{
  "contractName": "iuhBank",
  "abi": [
    {
      "inputs": [
        {
          "internalType": "contract Oracle",
          "name": "_oracle",
          "type": "address"
        },
        {
          "internalType": "contract iuhCoin",
          "name": "_iuhcoin",
          "type": "address"
        }
      ],
      "stateMutability": "nonpayable",
      "type": "constructor"
    },
    {
      "anonymous": false,
      "inputs": [
        {
          "indexed": true,
          "internalType": "address",
          "name": "user",
          "type": "address"
        },
        {
          "indexed": false,
          "internalType": "uint256",
          "name": "amount",
          "type": "uint256"
        }
      ],
      "name": "Borrowing",
      "type": "event"
    },
    {
      "anonymous": false,
      "inputs": [
        {
          "indexed": true,
          "internalType": "address",
          "name": "user",
          "type": "address"
        },
        {
          "indexed": false,
          "internalType": "uint256",
          "name": "etherAmount",
          "type": "uint256"
        },
        {
          "indexed": false,
          "internalType": "uint256",
          "name": "timeStart",
          "type": "uint256"
        }
      ],
      "name": "Deposit",
      "type": "event"
    },
    {
      "anonymous": false,
      "inputs": [
        {
          "indexed": true,
          "internalType": "address",
          "name": "user",
          "type": "address"
        }
      ],
      "name": "Repay",
      "type": "event"
    },
    {
      "anonymous": false,
      "inputs": [
        {
          "indexed": true,
          "internalType": "address",
          "name": "user",
          "type": "address"
        },
        {
          "indexed": false,
          "internalType": "uint256",
          "name": "etherAmount",
          "type": "uint256"
        }
      ],
      "name": "Withdraw",
      "type": "event"
    },
    {
      "inputs": [],
      "name": "oracle",
      "outputs": [
        {
          "internalType": "contract Oracle",
          "name": "",
          "type": "address"
        }
      ],
      "stateMutability": "view",
      "type": "function",
      "constant": true
    },
    {
      "inputs": [],
      "name": "depositEther",
      "outputs": [],
      "stateMutability": "payable",
      "type": "function",
      "payable": true
    },
    {
      "inputs": [
        {
          "internalType": "uint256",
          "name": "amount",
          "type": "uint256"
        }
      ],
      "name": "depositIuhCoin",
      "outputs": [],
      "stateMutability": "payable",
      "type": "function",
      "payable": true
    },
    {
      "inputs": [],
      "name": "updateRate",
      "outputs": [],
      "stateMutability": "nonpayable",
      "type": "function"
    },
    {
      "inputs": [
        {
          "internalType": "uint256",
          "name": "amount",
          "type": "uint256"
        }
      ],
      "name": "withdrawEther",
      "outputs": [],
      "stateMutability": "nonpayable",
      "type": "function"
    },
    {
      "inputs": [
        {
          "internalType": "uint256",
          "name": "amount",
          "type": "uint256"
        }
      ],
      "name": "withdrawIuh",
      "outputs": [],
      "stateMutability": "nonpayable",
      "type": "function"
    },
    {
      "inputs": [
        {
          "internalType": "uint256",
          "name": "amount",
          "type": "uint256"
        }
      ],
      "name": "borrowingEth",
      "outputs": [],
      "stateMutability": "nonpayable",
      "type": "function"
    },
    {
      "inputs": [
        {
          "internalType": "uint256",
          "name": "amount",
          "type": "uint256"
        }
      ],
      "name": "borrowingIuhCoin",
      "outputs": [],
      "stateMutability": "nonpayable",
      "type": "function"
    },
    {
      "inputs": [],
      "name": "repayEther",
      "outputs": [],
      "stateMutability": "payable",
      "type": "function",
      "payable": true
    },
    {
      "inputs": [],
      "name": "repayIuhCoin",
      "outputs": [],
      "stateMutability": "payable",
      "type": "function",
      "payable": true
    },
    {
      "inputs": [],
      "name": "getUserSupplied",
      "outputs": [
        {
          "internalType": "uint256",
          "name": "index",
          "type": "uint256"
        },
        {
          "internalType": "uint256[2]",
          "name": "LendAmount",
          "type": "uint256[2]"
        },
        {
          "internalType": "uint256",
          "name": "Collateral",
          "type": "uint256"
        },
        {
          "internalType": "string[2]",
          "name": "tokenName",
          "type": "string[2]"
        }
      ],
      "stateMutability": "view",
      "type": "function",
      "constant": true
    },
    {
      "inputs": [],
      "name": "getUserBorrow",
      "outputs": [
        {
          "internalType": "uint256",
          "name": "index",
          "type": "uint256"
        },
        {
          "internalType": "uint256[2]",
          "name": "Borrow",
          "type": "uint256[2]"
        },
        {
          "internalType": "uint256[2]",
          "name": "frezeAmount",
          "type": "uint256[2]"
        },
        {
          "internalType": "string[2]",
          "name": "tokenName",
          "type": "string[2]"
        }
      ],
      "stateMutability": "view",
      "type": "function",
      "constant": true
    },
    {
      "inputs": [],
      "name": "getEtherPoolInfo",
      "outputs": [
        {
          "internalType": "uint256",
          "name": "totalAmount",
          "type": "uint256"
        },
        {
          "internalType": "uint256",
          "name": "borrowAmount",
          "type": "uint256"
        },
        {
          "internalType": "uint256",
          "name": "price",
          "type": "uint256"
        },
        {
          "internalType": "uint256",
          "name": "lendRate",
          "type": "uint256"
        },
        {
          "internalType": "uint256",
          "name": "borrowRate",
          "type": "uint256"
        },
        {
          "internalType": "uint256",
          "name": "totalAmountInUsd",
          "type": "uint256"
        },
        {
          "internalType": "uint256",
          "name": "borrowAmountInUsd",
          "type": "uint256"
        }
      ],
      "stateMutability": "view",
      "type": "function",
      "constant": true
    },
    {
      "inputs": [],
      "name": "getIuhCoinPoolInfo",
      "outputs": [
        {
          "internalType": "uint256",
          "name": "totalAmount",
          "type": "uint256"
        },
        {
          "internalType": "uint256",
          "name": "borrowAmount",
          "type": "uint256"
        },
        {
          "internalType": "uint256",
          "name": "price",
          "type": "uint256"
        },
        {
          "internalType": "uint256",
          "name": "lendRate",
          "type": "uint256"
        },
        {
          "internalType": "uint256",
          "name": "borrowRate",
          "type": "uint256"
        },
        {
          "internalType": "uint256",
          "name": "totalAmountInUsd",
          "type": "uint256"
        },
        {
          "internalType": "uint256",
          "name": "borrowAmountInUsd",
          "type": "uint256"
        }
      ],
      "stateMutability": "view",
      "type": "function",
      "constant": true
    },
    {
      "inputs": [],
      "name": "getTotalLiquidInUsd",
      "outputs": [
        {
          "internalType": "uint256",
          "name": "",
          "type": "uint256"
        }
      ],
      "stateMutability": "view",
      "type": "function",
      "constant": true
    },
    {
      "inputs": [],
      "name": "updatePrice",
      "outputs": [],
      "stateMutability": "nonpayable",
      "type": "function"
    },
    {
      "inputs": [],
      "name": "mintIuhCoin",
      "outputs": [],
      "stateMutability": "nonpayable",
      "type": "function"
    }
  ],
  "bytecode": "0x60806040526040518060a00160405280600081526020016000815260200160008152602001601460ff168152602001601560ff16815250600560008201518160000155602082015181600101556040820151816002015560608201518160030160006101000a81548160ff021916908360ff16021790555060808201518160030160016101000a81548160ff021916908360ff16021790555050506040518060a00160405280600081526020016000815260200160008152602001601460ff168152602001601560ff16815250600960008201518160000155602082015181600101556040820151816002015560608201518160030160006101000a81548160ff021916908360ff16021790555060808201518160030160016101000a81548160ff021916908360ff16021790555050503480156200013d57600080fd5b50604051620064333803806200643383398181016040528101906200016391906200038b565b81600460006101000a81548173ffffffffffffffffffffffffffffffffffffffff021916908373ffffffffffffffffffffffffffffffffffffffff160217905550806000806101000a81548173ffffffffffffffffffffffffffffffffffffffff021916908373ffffffffffffffffffffffffffffffffffffffff160217905550600460009054906101000a900473ffffffffffffffffffffffffffffffffffffffff1673ffffffffffffffffffffffffffffffffffffffff166398d5fdca6040518163ffffffff1660e01b815260040160206040518083038186803b1580156200024d57600080fd5b505afa15801562000262573d6000803e3d6000fd5b505050506040513d601f19601f82011682018060405250810190620002889190620003cc565b600560020181905550600460009054906101000a900473ffffffffffffffffffffffffffffffffffffffff1673ffffffffffffffffffffffffffffffffffffffff166372366dbf6040518163ffffffff1660e01b815260040160206040518083038186803b158015620002fa57600080fd5b505afa1580156200030f573d6000803e3d6000fd5b505050506040513d601f19601f82011682018060405250810190620003359190620003cc565b6009600201819055505050620004ac565b60008151905062000357816200045e565b92915050565b6000815190506200036e8162000478565b92915050565b600081519050620003858162000492565b92915050565b600080604083850312156200039f57600080fd5b6000620003af8582860162000346565b9250506020620003c2858286016200035d565b9150509250929050565b600060208284031215620003df57600080fd5b6000620003ef8482850162000374565b91505092915050565b6000620004058262000434565b9050919050565b60006200041982620003f8565b9050919050565b60006200042d82620003f8565b9050919050565b600073ffffffffffffffffffffffffffffffffffffffff82169050919050565b6000819050919050565b62000469816200040c565b81146200047557600080fd5b50565b620004838162000420565b81146200048f57600080fd5b50565b6200049d8162000454565b8114620004a957600080fd5b50565b615f7780620004bc6000396000f3fe6080604052600436106100fe5760003560e01c8063673a7e2811610095578063b67828c811610064578063b67828c814610278578063bff368d3146102a1578063c7fee63e146102cc578063de4755c1146102e3578063f1f8a42714610311576100fe565b8063673a7e28146101fb5780637dc0d1d01461021257806388a3796c1461023d57806398ea5fca1461026e576100fe565b80633ad7ef9a116100d15780633ad7ef9a146101575780633bed33ce14610173578063509b2b011461019c57806361083cbc146101cd576100fe565b806326c7d3f01461010357806326cebf831461012c57806337f97c9d1461014357806338418afe1461014d575b600080fd5b34801561010f57600080fd5b5061012a60048036038101906101259190615310565b61033a565b005b34801561013857600080fd5b506101416108a4565b005b61014b61093c565b005b610155610e3a565b005b610171600480360381019061016c9190615310565b6112dc565b005b34801561017f57600080fd5b5061019a60048036038101906101959190615310565b611a21565b005b3480156101a857600080fd5b506101b1611e05565b6040516101c49796959493929190615d08565b60405180910390f35b3480156101d957600080fd5b506101e2611fb3565b6040516101f29493929190615c47565b60405180910390f35b34801561020757600080fd5b5061021061223a565b005b34801561021e57600080fd5b506102276122d3565b6040516102349190615a76565b60405180910390f35b34801561024957600080fd5b506102526122f9565b6040516102659796959493929190615d08565b60405180910390f35b6102766124a7565b005b34801561028457600080fd5b5061029f600480360381019061029a9190615310565b612b06565b005b3480156102ad57600080fd5b506102b661307a565b6040516102c39190615c2c565b60405180910390f35b3480156102d857600080fd5b506102e161326e565b005b3480156102ef57600080fd5b506102f8614975565b6040516103089493929190615c93565b60405180910390f35b34801561031d57600080fd5b5061033860048036038101906103339190615310565b614bbb565b005b600360003373ffffffffffffffffffffffffffffffffffffffff1673ffffffffffffffffffffffffffffffffffffffff16815260200190815260200160002060009054906101000a900460ff166103c6576040517f08c379a00000000000000000000000000000000000000000000000000000000081526004016103bd90615aac565b60405180910390fd5b6000600260003373ffffffffffffffffffffffffffffffffffffffff1673ffffffffffffffffffffffffffffffffffffffff168152602001908152602001600020600a01604051610416906159bd565b908152602001604051809103902060009054906101000a900460ff1660ff1690506000600460009054906101000a900473ffffffffffffffffffffffffffffffffffffffff1673ffffffffffffffffffffffffffffffffffffffff166372366dbf6040518163ffffffff1660e01b815260040160206040518083038186803b1580156104a157600080fd5b505afa1580156104b5573d6000803e3d6000fd5b505050506040513d601f19601f820116820180604052508101906104d99190615339565b9050670de0b6b3a764000083029250826009600001541015610530576040517f08c379a000000000000000000000000000000000000000000000000000000000815260040161052790615aec565b60405180910390fd5b808302925082600260003373ffffffffffffffffffffffffffffffffffffffff1673ffffffffffffffffffffffffffffffffffffffff1681526020019081526020016000206001015410156105ba576040517f08c379a00000000000000000000000000000000000000000000000000000000081526004016105b190615b4c565b60405180910390fd5b82600260003373ffffffffffffffffffffffffffffffffffffffff1673ffffffffffffffffffffffffffffffffffffffff1681526020019081526020016000206001016000828254039250508190555082600260003373ffffffffffffffffffffffffffffffffffffffff1673ffffffffffffffffffffffffffffffffffffffff168152602001908152602001600020600601836002811061065857fe5b016000828254019250508190555080838161066f57fe5b04600260003373ffffffffffffffffffffffffffffffffffffffff1673ffffffffffffffffffffffffffffffffffffffff16815260200190815260200160002060040183600281106106bd57fe5b01600082825401925050819055506001600260003373ffffffffffffffffffffffffffffffffffffffff1673ffffffffffffffffffffffffffffffffffffffff168152602001908152602001600020600c0160405161071b906159bd565b908152602001604051809103902060006101000a81548160ff021916908315150217905550806050606485028161074e57fe5b048161075657fe5b04600960000160008282540392505081905550806050606485028161077757fe5b048161077f57fe5b0460096001016000828254019250508190555060008054906101000a900473ffffffffffffffffffffffffffffffffffffffff1673ffffffffffffffffffffffffffffffffffffffff1663a9059cbb338386816107d857fe5b046040518363ffffffff1660e01b81526004016107f6929190615a4d565b602060405180830381600087803b15801561081057600080fd5b505af1158015610824573d6000803e3d6000fd5b505050506040513d601f19601f8201168201806040525081019061084891906152e7565b5061085161326e565b3373ffffffffffffffffffffffffffffffffffffffff167f03951a10935c21c2aac3ad2e2caebf2ccd972c3db450d4bfa44c9dd359862f89846040516108979190615c2c565b60405180910390a2505050565b60008054906101000a900473ffffffffffffffffffffffffffffffffffffffff1673ffffffffffffffffffffffffffffffffffffffff166340c10f193368056bc75e2d631000006040518363ffffffff1660e01b8152600401610908929190615a24565b600060405180830381600087803b15801561092257600080fd5b505af1158015610936573d6000803e3d6000fd5b50505050565b60011515600260003373ffffffffffffffffffffffffffffffffffffffff1673ffffffffffffffffffffffffffffffffffffffff168152602001908152602001600020600c0160405161098e906159a8565b908152602001604051809103902060009054906101000a900460ff161515146109ec576040517f08c379a00000000000000000000000000000000000000000000000000000000081526004016109e390615b8c565b60405180910390fd5b6000600460009054906101000a900473ffffffffffffffffffffffffffffffffffffffff1673ffffffffffffffffffffffffffffffffffffffff166398d5fdca6040518163ffffffff1660e01b815260040160206040518083038186803b158015610a5657600080fd5b505afa158015610a6a573d6000803e3d6000fd5b505050506040513d601f19601f82011682018060405250810190610a8e9190615339565b90506000600260003373ffffffffffffffffffffffffffffffffffffffff1673ffffffffffffffffffffffffffffffffffffffff168152602001908152602001600020600a01604051610ae0906159a8565b908152602001604051809103902060009054906101000a900460ff1660ff169050600082340290506000600260003373ffffffffffffffffffffffffffffffffffffffff1673ffffffffffffffffffffffffffffffffffffffff1681526020019081526020016000206004018360028110610b5757fe5b01549050600260003373ffffffffffffffffffffffffffffffffffffffff1673ffffffffffffffffffffffffffffffffffffffff1681526020019081526020016000206006018360028110610ba857fe5b01548214610beb576040517f08c379a0000000000000000000000000000000000000000000000000000000008152600401610be290615bac565b60405180910390fd5b6000600260003373ffffffffffffffffffffffffffffffffffffffff1673ffffffffffffffffffffffffffffffffffffffff1681526020019081526020016000206006018460028110610c3a57fe5b018190555080600260003373ffffffffffffffffffffffffffffffffffffffff1673ffffffffffffffffffffffffffffffffffffffff1681526020019081526020016000206002018460028110610c8d57fe5b0160008282540192505081905550606460508583020281610caa57fe5b04600260003373ffffffffffffffffffffffffffffffffffffffff1673ffffffffffffffffffffffffffffffffffffffff168152602001908152602001600020600101600082825401925050819055506000600260003373ffffffffffffffffffffffffffffffffffffffff1673ffffffffffffffffffffffffffffffffffffffff1681526020019081526020016000206004018460028110610d4957fe5b01819055506000600260003373ffffffffffffffffffffffffffffffffffffffff1673ffffffffffffffffffffffffffffffffffffffff168152602001908152602001600020600c01604051610d9e906159a8565b908152602001604051809103902060006101000a81548160ff0219169083151502179055508060056000016000828254019250508190555080600560010160008282540392505081905550610df161326e565b3373ffffffffffffffffffffffffffffffffffffffff167f5f9ec7a6c98280524f8d172d79eecf9e9660ad36b52d1836dd45dd81a342bd1360405160405180910390a250505050565b60011515600260003373ffffffffffffffffffffffffffffffffffffffff1673ffffffffffffffffffffffffffffffffffffffff168152602001908152602001600020600c01604051610e8c906159bd565b908152602001604051809103902060009054906101000a900460ff16151514610eea576040517f08c379a0000000000000000000000000000000000000000000000000000000008152600401610ee190615b8c565b60405180910390fd5b6000600460009054906101000a900473ffffffffffffffffffffffffffffffffffffffff1673ffffffffffffffffffffffffffffffffffffffff166372366dbf6040518163ffffffff1660e01b815260040160206040518083038186803b158015610f5457600080fd5b505afa158015610f68573d6000803e3d6000fd5b505050506040513d601f19601f82011682018060405250810190610f8c9190615339565b90506000600260003373ffffffffffffffffffffffffffffffffffffffff1673ffffffffffffffffffffffffffffffffffffffff168152602001908152602001600020600a01604051610fde906159bd565b908152602001604051809103902060009054906101000a900460ff1660ff169050600082340290506000600260003373ffffffffffffffffffffffffffffffffffffffff1673ffffffffffffffffffffffffffffffffffffffff168152602001908152602001600020600401836002811061105557fe5b01549050600260003373ffffffffffffffffffffffffffffffffffffffff1673ffffffffffffffffffffffffffffffffffffffff16815260200190815260200160002060060183600281106110a657fe5b015482146110e9576040517f08c379a00000000000000000000000000000000000000000000000000000000081526004016110e090615bac565b60405180910390fd5b6000600260003373ffffffffffffffffffffffffffffffffffffffff1673ffffffffffffffffffffffffffffffffffffffff168152602001908152602001600020600601846002811061113857fe5b018190555060646050858302028161114c57fe5b04600260003373ffffffffffffffffffffffffffffffffffffffff1673ffffffffffffffffffffffffffffffffffffffff168152602001908152602001600020600101600082825401925050819055506000600260003373ffffffffffffffffffffffffffffffffffffffff1673ffffffffffffffffffffffffffffffffffffffff16815260200190815260200160002060040184600281106111eb57fe5b01819055506000600260003373ffffffffffffffffffffffffffffffffffffffff1673ffffffffffffffffffffffffffffffffffffffff168152602001908152602001600020600c01604051611240906159bd565b908152602001604051809103902060006101000a81548160ff021916908315150217905550806009600001600082825401925050819055508060096001016000828254039250508190555061129361326e565b3373ffffffffffffffffffffffffffffffffffffffff167f5f9ec7a6c98280524f8d172d79eecf9e9660ad36b52d1836dd45dd81a342bd1360405160405180910390a250505050565b670de0b6b3a764000081029050662386f26fc10000811015611333576040517f08c379a000000000000000000000000000000000000000000000000000000000815260040161132a90615acc565b60405180910390fd5b6000600360003373ffffffffffffffffffffffffffffffffffffffff1673ffffffffffffffffffffffffffffffffffffffff16815260200190815260200160002060009054906101000a900460ff166113ea576001339080600181540180825580915050600190039060005260206000200160009091909190916101000a81548173ffffffffffffffffffffffffffffffffffffffff021916908373ffffffffffffffffffffffffffffffffffffffff1602179055505b600260003373ffffffffffffffffffffffffffffffffffffffff1673ffffffffffffffffffffffffffffffffffffffff168152602001908152602001600020600b01604051611438906159bd565b908152602001604051809103902060009054906101000a900460ff1661160757600260003373ffffffffffffffffffffffffffffffffffffffff1673ffffffffffffffffffffffffffffffffffffffff16815260200190815260200160002060000160009054906101000a900460ff16905080600260003373ffffffffffffffffffffffffffffffffffffffff1673ffffffffffffffffffffffffffffffffffffffff168152602001908152602001600020600a016040516114f9906159bd565b908152602001604051809103902060006101000a81548160ff021916908360ff1602179055506001600260003373ffffffffffffffffffffffffffffffffffffffff1673ffffffffffffffffffffffffffffffffffffffff16815260200190815260200160002060000160008282829054906101000a900460ff160192506101000a81548160ff021916908360ff1602179055506001600260003373ffffffffffffffffffffffffffffffffffffffff1673ffffffffffffffffffffffffffffffffffffffff168152602001908152602001600020600b016040516115dd906159bd565b908152602001604051809103902060006101000a81548160ff021916908315150217905550611674565b600260003373ffffffffffffffffffffffffffffffffffffffff1673ffffffffffffffffffffffffffffffffffffffff168152602001908152602001600020600a01604051611655906159bd565b908152602001604051809103902060009054906101000a900460ff1690505b60008054906101000a900473ffffffffffffffffffffffffffffffffffffffff1673ffffffffffffffffffffffffffffffffffffffff166323b872dd3330856040518463ffffffff1660e01b81526004016116d1939291906159ed565b602060405180830381600087803b1580156116eb57600080fd5b505af11580156116ff573d6000803e3d6000fd5b505050506040513d601f19601f8201168201806040525081019061172391906152e7565b611762576040517f08c379a000000000000000000000000000000000000000000000000000000000815260040161175990615bcc565b60405180910390fd5b8160096000016000828254019250508190555081600260003373ffffffffffffffffffffffffffffffffffffffff1673ffffffffffffffffffffffffffffffffffffffff1681526020019081526020016000206002018260ff16600281106117c657fe5b01600082825401925050819055506040518060400160405280600781526020017f497568436f696e00000000000000000000000000000000000000000000000000815250600260003373ffffffffffffffffffffffffffffffffffffffff1673ffffffffffffffffffffffffffffffffffffffff1681526020019081526020016000206008018260ff166002811061185a57fe5b01908051906020019061186e92919061513d565b5060646050600460009054906101000a900473ffffffffffffffffffffffffffffffffffffffff1673ffffffffffffffffffffffffffffffffffffffff166372366dbf6040518163ffffffff1660e01b815260040160206040518083038186803b1580156118db57600080fd5b505afa1580156118ef573d6000803e3d6000fd5b505050506040513d601f19601f820116820180604052508101906119139190615339565b3402028161191d57fe5b04600260003373ffffffffffffffffffffffffffffffffffffffff1673ffffffffffffffffffffffffffffffffffffffff1681526020019081526020016000206001016000828254019250508190555061197561326e565b6001600360003373ffffffffffffffffffffffffffffffffffffffff1673ffffffffffffffffffffffffffffffffffffffff16815260200190815260200160002060006101000a81548160ff0219169083151502179055503373ffffffffffffffffffffffffffffffffffffffff167f90890809c654f11d6e72a28fa60149770a0d11ec6c92319d6ceb2bb0a4ea1a158342604051611a15929190615cdf565b60405180910390a25050565b600360003373ffffffffffffffffffffffffffffffffffffffff1673ffffffffffffffffffffffffffffffffffffffff16815260200190815260200160002060009054906101000a900460ff16611aad576040517f08c379a0000000000000000000000000000000000000000000000000000000008152600401611aa490615aac565b60405180910390fd5b6000600260003373ffffffffffffffffffffffffffffffffffffffff1673ffffffffffffffffffffffffffffffffffffffff168152602001908152602001600020600a01604051611afd906159a8565b908152602001604051809103902060009054906101000a900460ff1660ff169050816005600001541015611b66576040517f08c379a0000000000000000000000000000000000000000000000000000000008152600401611b5d90615b0c565b60405180910390fd5b600260003373ffffffffffffffffffffffffffffffffffffffff1673ffffffffffffffffffffffffffffffffffffffff1681526020019081526020016000206002018160028110611bb357fe5b0154821115611bf7576040517f08c379a0000000000000000000000000000000000000000000000000000000008152600401611bee90615bec565b60405180910390fd5b60646050600460009054906101000a900473ffffffffffffffffffffffffffffffffffffffff1673ffffffffffffffffffffffffffffffffffffffff166398d5fdca6040518163ffffffff1660e01b815260040160206040518083038186803b158015611c6357600080fd5b505afa158015611c77573d6000803e3d6000fd5b505050506040513d601f19601f82011682018060405250810190611c9b9190615339565b84020281611ca557fe5b04600260003373ffffffffffffffffffffffffffffffffffffffff1673ffffffffffffffffffffffffffffffffffffffff168152602001908152602001600020600101600082825403925050819055508160056000016000828254039250508190555081600260003373ffffffffffffffffffffffffffffffffffffffff1673ffffffffffffffffffffffffffffffffffffffff1681526020019081526020016000206002018260028110611d5657fe5b01600082825403925050819055503373ffffffffffffffffffffffffffffffffffffffff166108fc839081150290604051600060405180830381858888f19350505050158015611daa573d6000803e3d6000fd5b50611db361326e565b3373ffffffffffffffffffffffffffffffffffffffff167f884edad9ce6fa2440d8a54cc123490eb96d2768479d49ff9c7366125a942436483604051611df99190615c2c565b60405180910390a25050565b600080600080600080600060056000015496506005600101549550600460009054906101000a900473ffffffffffffffffffffffffffffffffffffffff1673ffffffffffffffffffffffffffffffffffffffff166398d5fdca6040518163ffffffff1660e01b815260040160206040518083038186803b158015611e8857600080fd5b505afa158015611e9c573d6000803e3d6000fd5b505050506040513d601f19601f82011682018060405250810190611ec09190615339565b600560000154029150600460009054906101000a900473ffffffffffffffffffffffffffffffffffffffff1673ffffffffffffffffffffffffffffffffffffffff166398d5fdca6040518163ffffffff1660e01b815260040160206040518083038186803b158015611f3157600080fd5b505afa158015611f45573d6000803e3d6000fd5b505050506040513d601f19601f82011682018060405250810190611f699190615339565b6005600101540290506005600201549450600560030160009054906101000a900460ff1660ff169350600560030160019054906101000a900460ff1660ff16925090919293949596565b6000611fbd6151cb565b611fc56151cb565b611fcd6151ed565b600260003373ffffffffffffffffffffffffffffffffffffffff1673ffffffffffffffffffffffffffffffffffffffff16815260200190815260200160002060000160009054906101000a900460ff1660ff169350600260003373ffffffffffffffffffffffffffffffffffffffff1673ffffffffffffffffffffffffffffffffffffffff16815260200190815260200160002060060160028060200260405190810160405280929190826002801561209b576020028201915b815481526020019060010190808311612087575b50505050509250600260003373ffffffffffffffffffffffffffffffffffffffff1673ffffffffffffffffffffffffffffffffffffffff16815260200190815260200160002060040160028060200260405190810160405280929190826002801561211b576020028201915b815481526020019060010190808311612107575b50505050509150600260003373ffffffffffffffffffffffffffffffffffffffff1673ffffffffffffffffffffffffffffffffffffffff168152602001908152602001600020600801600280602002604051908101604052809291906000905b8282101561222e578382018054600181600116156101000203166002900480601f01602080910402602001604051908101604052809291908181526020018280546001816001161561010002031660029004801561221a5780601f106121ef5761010080835404028352916020019161221a565b820191906000526020600020905b8154815290600101906020018083116121fd57829003601f168201915b50505050508152602001906001019061217b565b50505050905090919293565b600460009054906101000a900473ffffffffffffffffffffffffffffffffffffffff1673ffffffffffffffffffffffffffffffffffffffff166391b7f5ed6107d06040518263ffffffff1660e01b81526004016122979190615a91565b600060405180830381600087803b1580156122b157600080fd5b505af11580156122c5573d6000803e3d6000fd5b505050506122d161326e565b565b600460009054906101000a900473ffffffffffffffffffffffffffffffffffffffff1681565b600080600080600080600060096000015496506009600101549550600460009054906101000a900473ffffffffffffffffffffffffffffffffffffffff1673ffffffffffffffffffffffffffffffffffffffff166372366dbf6040518163ffffffff1660e01b815260040160206040518083038186803b15801561237c57600080fd5b505afa158015612390573d6000803e3d6000fd5b505050506040513d601f19601f820116820180604052508101906123b49190615339565b600960000154029150600460009054906101000a900473ffffffffffffffffffffffffffffffffffffffff1673ffffffffffffffffffffffffffffffffffffffff166372366dbf6040518163ffffffff1660e01b815260040160206040518083038186803b15801561242557600080fd5b505afa158015612439573d6000803e3d6000fd5b505050506040513d601f19601f8201168201806040525081019061245d9190615339565b6009600101540290506009600201549450600960030160009054906101000a900460ff1660ff169350600960030160019054906101000a900460ff1660ff16925090919293949596565b662386f26fc100003410156124f1576040517f08c379a00000000000000000000000000000000000000000000000000000000081526004016124e890615acc565b60405180910390fd5b6000600360003373ffffffffffffffffffffffffffffffffffffffff1673ffffffffffffffffffffffffffffffffffffffff16815260200190815260200160002060009054906101000a900460ff166125a8576001339080600181540180825580915050600190039060005260206000200160009091909190916101000a81548173ffffffffffffffffffffffffffffffffffffffff021916908373ffffffffffffffffffffffffffffffffffffffff1602179055505b600260003373ffffffffffffffffffffffffffffffffffffffff1673ffffffffffffffffffffffffffffffffffffffff168152602001908152602001600020600b016040516125f6906159a8565b908152602001604051809103902060009054906101000a900460ff166127c957600260003373ffffffffffffffffffffffffffffffffffffffff1673ffffffffffffffffffffffffffffffffffffffff16815260200190815260200160002060000160009054906101000a900460ff16905080600260003373ffffffffffffffffffffffffffffffffffffffff1673ffffffffffffffffffffffffffffffffffffffff168152602001908152602001600020600a016040516126b7906159a8565b908152602001604051809103902060006101000a81548160ff021916908360ff160217905550600260003373ffffffffffffffffffffffffffffffffffffffff1673ffffffffffffffffffffffffffffffffffffffff168152602001908152602001600020600001600081819054906101000a900460ff168092919060010191906101000a81548160ff021916908360ff160217905550506001600260003373ffffffffffffffffffffffffffffffffffffffff1673ffffffffffffffffffffffffffffffffffffffff168152602001908152602001600020600b0160405161279f906159a8565b908152602001604051809103902060006101000a81548160ff021916908315150217905550612836565b600260003373ffffffffffffffffffffffffffffffffffffffff1673ffffffffffffffffffffffffffffffffffffffff168152602001908152602001600020600a01604051612817906159a8565b908152602001604051809103902060009054906101000a900460ff1690505b6000600460009054906101000a900473ffffffffffffffffffffffffffffffffffffffff1673ffffffffffffffffffffffffffffffffffffffff166398d5fdca6040518163ffffffff1660e01b815260040160206040518083038186803b1580156128a057600080fd5b505afa1580156128b4573d6000803e3d6000fd5b505050506040513d601f19601f820116820180604052508101906128d89190615339565b905060003490506000600a600884840202816128f057fe5b0490508160056000016000828254019250508190555081600260003373ffffffffffffffffffffffffffffffffffffffff1673ffffffffffffffffffffffffffffffffffffffff1681526020019081526020016000206002018560ff166002811061295757fe5b01600082825401925050819055506040518060400160405280600581526020017f4574686572000000000000000000000000000000000000000000000000000000815250600260003373ffffffffffffffffffffffffffffffffffffffff1673ffffffffffffffffffffffffffffffffffffffff1681526020019081526020016000206008018560ff16600281106129eb57fe5b0190805190602001906129ff92919061513d565b5080600260003373ffffffffffffffffffffffffffffffffffffffff1673ffffffffffffffffffffffffffffffffffffffff16815260200190815260200160002060010160008282540192505081905550612a5861326e565b6001600360003373ffffffffffffffffffffffffffffffffffffffff1673ffffffffffffffffffffffffffffffffffffffff16815260200190815260200160002060006101000a81548160ff0219169083151502179055503373ffffffffffffffffffffffffffffffffffffffff167f90890809c654f11d6e72a28fa60149770a0d11ec6c92319d6ceb2bb0a4ea1a158342604051612af8929190615cdf565b60405180910390a250505050565b600360003373ffffffffffffffffffffffffffffffffffffffff1673ffffffffffffffffffffffffffffffffffffffff16815260200190815260200160002060009054906101000a900460ff16612b92576040517f08c379a0000000000000000000000000000000000000000000000000000000008152600401612b8990615aac565b60405180910390fd5b6000600260003373ffffffffffffffffffffffffffffffffffffffff1673ffffffffffffffffffffffffffffffffffffffff168152602001908152602001600020600a01604051612be2906159bd565b908152602001604051809103902060009054906101000a900460ff1660ff169050816009600001541015612c4b576040517f08c379a0000000000000000000000000000000000000000000000000000000008152600401612c4290615b0c565b60405180910390fd5b600260003373ffffffffffffffffffffffffffffffffffffffff1673ffffffffffffffffffffffffffffffffffffffff1681526020019081526020016000206002018160028110612c9857fe5b0154821115612cdc576040517f08c379a0000000000000000000000000000000000000000000000000000000008152600401612cd390615b6c565b60405180910390fd5b8160008054906101000a900473ffffffffffffffffffffffffffffffffffffffff1673ffffffffffffffffffffffffffffffffffffffff166370a08231306040518263ffffffff1660e01b8152600401612d3691906159d2565b60206040518083038186803b158015612d4e57600080fd5b505afa158015612d62573d6000803e3d6000fd5b505050506040513d601f19601f82011682018060405250810190612d869190615339565b1015612dc7576040517f08c379a0000000000000000000000000000000000000000000000000000000008152600401612dbe90615b2c565b60405180910390fd5b60008054906101000a900473ffffffffffffffffffffffffffffffffffffffff1673ffffffffffffffffffffffffffffffffffffffff1663a9059cbb33846040518363ffffffff1660e01b8152600401612e22929190615a4d565b602060405180830381600087803b158015612e3c57600080fd5b505af1158015612e50573d6000803e3d6000fd5b505050506040513d601f19601f82011682018060405250810190612e7491906152e7565b612eb3576040517f08c379a0000000000000000000000000000000000000000000000000000000008152600401612eaa90615c0c565b60405180910390fd5b60646050600460009054906101000a900473ffffffffffffffffffffffffffffffffffffffff1673ffffffffffffffffffffffffffffffffffffffff166372366dbf6040518163ffffffff1660e01b815260040160206040518083038186803b158015612f1f57600080fd5b505afa158015612f33573d6000803e3d6000fd5b505050506040513d601f19601f82011682018060405250810190612f579190615339565b84020281612f6157fe5b04600260003373ffffffffffffffffffffffffffffffffffffffff1673ffffffffffffffffffffffffffffffffffffffff168152602001908152602001600020600101600082825403925050819055508160096000016000828254039250508190555081600260003373ffffffffffffffffffffffffffffffffffffffff1673ffffffffffffffffffffffffffffffffffffffff168152602001908152602001600020600201826002811061301257fe5b016000828254039250508190555061302861326e565b3373ffffffffffffffffffffffffffffffffffffffff167f884edad9ce6fa2440d8a54cc123490eb96d2768479d49ff9c7366125a94243648360405161306e9190615c2c565b60405180910390a25050565b6000600460009054906101000a900473ffffffffffffffffffffffffffffffffffffffff1673ffffffffffffffffffffffffffffffffffffffff166372366dbf6040518163ffffffff1660e01b815260040160206040518083038186803b1580156130e457600080fd5b505afa1580156130f8573d6000803e3d6000fd5b505050506040513d601f19601f8201168201806040525081019061311c9190615339565b60008054906101000a900473ffffffffffffffffffffffffffffffffffffffff1673ffffffffffffffffffffffffffffffffffffffff166370a08231306040518263ffffffff1660e01b815260040161317591906159d2565b60206040518083038186803b15801561318d57600080fd5b505afa1580156131a1573d6000803e3d6000fd5b505050506040513d601f19601f820116820180604052508101906131c59190615339565b02600460009054906101000a900473ffffffffffffffffffffffffffffffffffffffff1673ffffffffffffffffffffffffffffffffffffffff166398d5fdca6040518163ffffffff1660e01b815260040160206040518083038186803b15801561322e57600080fd5b505afa158015613242573d6000803e3d6000fd5b505050506040513d601f19601f820116820180604052508101906132669190615339565b470201905090565b6000600460009054906101000a900473ffffffffffffffffffffffffffffffffffffffff1673ffffffffffffffffffffffffffffffffffffffff166398d5fdca6040518163ffffffff1660e01b815260040160206040518083038186803b1580156132d857600080fd5b505afa1580156132ec573d6000803e3d6000fd5b505050506040513d601f19601f820116820180604052508101906133109190615339565b90506000600460009054906101000a900473ffffffffffffffffffffffffffffffffffffffff1673ffffffffffffffffffffffffffffffffffffffff166372366dbf6040518163ffffffff1660e01b815260040160206040518083038186803b15801561337c57600080fd5b505afa158015613390573d6000803e3d6000fd5b505050506040513d601f19601f820116820180604052508101906133b49190615339565b905060005b6001805490508160ff1610156149705760006002600060018460ff16815481106133df57fe5b9060005260206000200160009054906101000a900473ffffffffffffffffffffffffffffffffffffffff1673ffffffffffffffffffffffffffffffffffffffff1673ffffffffffffffffffffffffffffffffffffffff168152602001908152602001600020600101541161393e576002600060018360ff168154811061346157fe5b9060005260206000200160009054906101000a900473ffffffffffffffffffffffffffffffffffffffff1673ffffffffffffffffffffffffffffffffffffffff1673ffffffffffffffffffffffffffffffffffffffff168152602001908152602001600020600c016040516134d5906159a8565b908152602001604051809103902060009054906101000a900460ff16156136575760006002600060018460ff168154811061350c57fe5b9060005260206000200160009054906101000a900473ffffffffffffffffffffffffffffffffffffffff1673ffffffffffffffffffffffffffffffffffffffff1673ffffffffffffffffffffffffffffffffffffffff168152602001908152602001600020600a01604051613580906159a8565b908152602001604051809103902060009054906101000a900460ff16905060006002600060018560ff16815481106135b457fe5b9060005260206000200160009054906101000a900473ffffffffffffffffffffffffffffffffffffffff1673ffffffffffffffffffffffffffffffffffffffff1673ffffffffffffffffffffffffffffffffffffffff1681526020019081526020016000206004018260ff166002811061362a57fe5b01549050806005600001600082825401925050819055508060056001016000828254039250508190555050505b6002600060018360ff168154811061366b57fe5b9060005260206000200160009054906101000a900473ffffffffffffffffffffffffffffffffffffffff1673ffffffffffffffffffffffffffffffffffffffff1673ffffffffffffffffffffffffffffffffffffffff168152602001908152602001600020600c016040516136df906159bd565b908152602001604051809103902060009054906101000a900460ff16156138615760006002600060018460ff168154811061371657fe5b9060005260206000200160009054906101000a900473ffffffffffffffffffffffffffffffffffffffff1673ffffffffffffffffffffffffffffffffffffffff1673ffffffffffffffffffffffffffffffffffffffff168152602001908152602001600020600a0160405161378a906159bd565b908152602001604051809103902060009054906101000a900460ff16905060006002600060018560ff16815481106137be57fe5b9060005260206000200160009054906101000a900473ffffffffffffffffffffffffffffffffffffffff1673ffffffffffffffffffffffffffffffffffffffff1673ffffffffffffffffffffffffffffffffffffffff1681526020019081526020016000206004018260ff166002811061383457fe5b01549050806009600001600082825401925050819055508060096001016000828254039250508190555050505b6002600060018360ff168154811061387557fe5b9060005260206000200160009054906101000a900473ffffffffffffffffffffffffffffffffffffffff1673ffffffffffffffffffffffffffffffffffffffff1673ffffffffffffffffffffffffffffffffffffffff168152602001908152602001600020600080820160006101000a81549060ff021916905560018201600090556002820160006139079190615214565b6004820160006139179190615214565b6006820160006139279190615214565b6008820160006139379190615222565b5050614963565b60005b6002600060018460ff168154811061395557fe5b9060005260206000200160009054906101000a900473ffffffffffffffffffffffffffffffffffffffff1673ffffffffffffffffffffffffffffffffffffffff1673ffffffffffffffffffffffffffffffffffffffff16815260200190815260200160002060000160009054906101000a900460ff1660ff16811015613dc75760006103e8601460ff166002600060018760ff16815481106139f357fe5b9060005260206000200160009054906101000a900473ffffffffffffffffffffffffffffffffffffffff1673ffffffffffffffffffffffffffffffffffffffff1673ffffffffffffffffffffffffffffffffffffffff1681526020019081526020016000206002018460028110613a6657fe5b01540281613a7057fe5b049050806002600060018660ff1681548110613a8857fe5b9060005260206000200160009054906101000a900473ffffffffffffffffffffffffffffffffffffffff1673ffffffffffffffffffffffffffffffffffffffff1673ffffffffffffffffffffffffffffffffffffffff1681526020019081526020016000206002018360028110613afb57fe5b016000828254019250508190555060006002600060018660ff1681548110613b1f57fe5b9060005260206000200160009054906101000a900473ffffffffffffffffffffffffffffffffffffffff1673ffffffffffffffffffffffffffffffffffffffff1673ffffffffffffffffffffffffffffffffffffffff1681526020019081526020016000206008018360028110613b9257fe5b018054600181600116156101000203166002900480601f016020809104026020016040519081016040528092919081815260200182805460018160011615610100020316600290048015613c275780601f10613bfc57610100808354040283529160200191613c27565b820191906000526020600020905b815481529060010190602001808311613c0a57829003601f168201915b50505050509050604051602001613c3d906159a8565b6040516020818303038152906040528051906020012081604051602001613c649190615991565b604051602081830303815290604052805190602001201415613d1e57606460508784020281613c8f57fe5b046002600060018760ff1681548110613ca457fe5b9060005260206000200160009054906101000a900473ffffffffffffffffffffffffffffffffffffffff1673ffffffffffffffffffffffffffffffffffffffff1673ffffffffffffffffffffffffffffffffffffffff16815260200190815260200160002060010160008282540192505081905550613db8565b606460508684020281613d2d57fe5b046002600060018760ff1681548110613d4257fe5b9060005260206000200160009054906101000a900473ffffffffffffffffffffffffffffffffffffffff1673ffffffffffffffffffffffffffffffffffffffff1673ffffffffffffffffffffffffffffffffffffffff168152602001908152602001600020600101600082825401925050819055505b50508080600101915050613941565b5060006002600060018460ff1681548110613dde57fe5b9060005260206000200160009054906101000a900473ffffffffffffffffffffffffffffffffffffffff1673ffffffffffffffffffffffffffffffffffffffff1673ffffffffffffffffffffffffffffffffffffffff168152602001908152602001600020600c01604051613e52906159a8565b908152602001604051809103902060009054906101000a900460ff168015613f1a57506002600060018460ff1681548110613e8957fe5b9060005260206000200160009054906101000a900473ffffffffffffffffffffffffffffffffffffffff1673ffffffffffffffffffffffffffffffffffffffff1673ffffffffffffffffffffffffffffffffffffffff168152602001908152602001600020600c01604051613efd906159bd565b908152602001604051809103902060009054906101000a900460ff165b156141975760006103e8601560ff166002600060018760ff1681548110613f3d57fe5b9060005260206000200160009054906101000a900473ffffffffffffffffffffffffffffffffffffffff1673ffffffffffffffffffffffffffffffffffffffff1673ffffffffffffffffffffffffffffffffffffffff168152602001908152602001600020600601600060028110613fb157fe5b01540281613fbb57fe5b04905060006103e8601560ff166002600060018860ff1681548110613fdc57fe5b9060005260206000200160009054906101000a900473ffffffffffffffffffffffffffffffffffffffff1673ffffffffffffffffffffffffffffffffffffffff1673ffffffffffffffffffffffffffffffffffffffff16815260200190815260200160002060060160016002811061405057fe5b0154028161405a57fe5b049050816002600060018760ff168154811061407257fe5b9060005260206000200160009054906101000a900473ffffffffffffffffffffffffffffffffffffffff1673ffffffffffffffffffffffffffffffffffffffff1673ffffffffffffffffffffffffffffffffffffffff1681526020019081526020016000206006016000600281106140e657fe5b0160008282540192505081905550806002600060018760ff168154811061410957fe5b9060005260206000200160009054906101000a900473ffffffffffffffffffffffffffffffffffffffff1673ffffffffffffffffffffffffffffffffffffffff1673ffffffffffffffffffffffffffffffffffffffff16815260200190815260200160002060060160016002811061417d57fe5b016000828254019250508190555080820192505050614366565b6103e8601560ff166002600060018660ff16815481106141b357fe5b9060005260206000200160009054906101000a900473ffffffffffffffffffffffffffffffffffffffff1673ffffffffffffffffffffffffffffffffffffffff1673ffffffffffffffffffffffffffffffffffffffff16815260200190815260200160002060060160006002811061422757fe5b0154028161423157fe5b046002600060018560ff168154811061424657fe5b9060005260206000200160009054906101000a900473ffffffffffffffffffffffffffffffffffffffff1673ffffffffffffffffffffffffffffffffffffffff1673ffffffffffffffffffffffffffffffffffffffff1681526020019081526020016000206006016000600281106142ba57fe5b01600082825401925050819055506103e8601560ff166002600060018660ff16815481106142e457fe5b9060005260206000200160009054906101000a900473ffffffffffffffffffffffffffffffffffffffff1673ffffffffffffffffffffffffffffffffffffffff1673ffffffffffffffffffffffffffffffffffffffff16815260200190815260200160002060060160006002811061435857fe5b0154028161436257fe5b0490505b806002600060018560ff168154811061437b57fe5b9060005260206000200160009054906101000a900473ffffffffffffffffffffffffffffffffffffffff1673ffffffffffffffffffffffffffffffffffffffff1673ffffffffffffffffffffffffffffffffffffffff1681526020019081526020016000206001016000828254039250508190555060006002600060018560ff168154811061440657fe5b9060005260206000200160009054906101000a900473ffffffffffffffffffffffffffffffffffffffff1673ffffffffffffffffffffffffffffffffffffffff1673ffffffffffffffffffffffffffffffffffffffff1681526020019081526020016000206001015411614961576002600060018460ff168154811061448857fe5b9060005260206000200160009054906101000a900473ffffffffffffffffffffffffffffffffffffffff1673ffffffffffffffffffffffffffffffffffffffff1673ffffffffffffffffffffffffffffffffffffffff168152602001908152602001600020600c016040516144fc906159a8565b908152602001604051809103902060009054906101000a900460ff161561467e5760006002600060018560ff168154811061453357fe5b9060005260206000200160009054906101000a900473ffffffffffffffffffffffffffffffffffffffff1673ffffffffffffffffffffffffffffffffffffffff1673ffffffffffffffffffffffffffffffffffffffff168152602001908152602001600020600a016040516145a7906159a8565b908152602001604051809103902060009054906101000a900460ff16905060006002600060018660ff16815481106145db57fe5b9060005260206000200160009054906101000a900473ffffffffffffffffffffffffffffffffffffffff1673ffffffffffffffffffffffffffffffffffffffff1673ffffffffffffffffffffffffffffffffffffffff1681526020019081526020016000206004018260ff166002811061465157fe5b01549050806005600001600082825401925050819055508060056001016000828254039250508190555050505b6002600060018460ff168154811061469257fe5b9060005260206000200160009054906101000a900473ffffffffffffffffffffffffffffffffffffffff1673ffffffffffffffffffffffffffffffffffffffff1673ffffffffffffffffffffffffffffffffffffffff168152602001908152602001600020600c01604051614706906159bd565b908152602001604051809103902060009054906101000a900460ff16156148885760006002600060018560ff168154811061473d57fe5b9060005260206000200160009054906101000a900473ffffffffffffffffffffffffffffffffffffffff1673ffffffffffffffffffffffffffffffffffffffff1673ffffffffffffffffffffffffffffffffffffffff168152602001908152602001600020600a016040516147b1906159bd565b908152602001604051809103902060009054906101000a900460ff16905060006002600060018660ff16815481106147e557fe5b9060005260206000200160009054906101000a900473ffffffffffffffffffffffffffffffffffffffff1673ffffffffffffffffffffffffffffffffffffffff1673ffffffffffffffffffffffffffffffffffffffff1681526020019081526020016000206004018260ff166002811061485b57fe5b01549050806009600001600082825401925050819055508060096001016000828254039250508190555050505b6002600060018460ff168154811061489c57fe5b9060005260206000200160009054906101000a900473ffffffffffffffffffffffffffffffffffffffff1673ffffffffffffffffffffffffffffffffffffffff1673ffffffffffffffffffffffffffffffffffffffff168152602001908152602001600020600080820160006101000a81549060ff0219169055600182016000905560028201600061492e9190615214565b60048201600061493e9190615214565b60068201600061494e9190615214565b60088201600061495e9190615222565b50505b505b80806001019150506133b9565b505050565b600061497f6151cb565b60006149896151ed565b600260003373ffffffffffffffffffffffffffffffffffffffff1673ffffffffffffffffffffffffffffffffffffffff16815260200190815260200160002060000160009054906101000a900460ff1660ff169350600260003373ffffffffffffffffffffffffffffffffffffffff1673ffffffffffffffffffffffffffffffffffffffff168152602001908152602001600020600201600280602002604051908101604052809291908260028015614a57576020028201915b815481526020019060010190808311614a43575b50505050509250600260003373ffffffffffffffffffffffffffffffffffffffff1673ffffffffffffffffffffffffffffffffffffffff168152602001908152602001600020600101549150600260003373ffffffffffffffffffffffffffffffffffffffff1673ffffffffffffffffffffffffffffffffffffffff168152602001908152602001600020600801600280602002604051908101604052809291906000905b82821015614baf578382018054600181600116156101000203166002900480601f016020809104026020016040519081016040528092919081815260200182805460018160011615610100020316600290048015614b9b5780601f10614b7057610100808354040283529160200191614b9b565b820191906000526020600020905b815481529060010190602001808311614b7e57829003601f168201915b505050505081526020019060010190614afc565b50505050905090919293565b600360003373ffffffffffffffffffffffffffffffffffffffff1673ffffffffffffffffffffffffffffffffffffffff16815260200190815260200160002060009054906101000a900460ff16614c47576040517f08c379a0000000000000000000000000000000000000000000000000000000008152600401614c3e90615aac565b60405180910390fd5b6000600260003373ffffffffffffffffffffffffffffffffffffffff1673ffffffffffffffffffffffffffffffffffffffff168152602001908152602001600020600a01604051614c97906159a8565b908152602001604051809103902060009054906101000a900460ff1660ff1690506000600460009054906101000a900473ffffffffffffffffffffffffffffffffffffffff1673ffffffffffffffffffffffffffffffffffffffff166398d5fdca6040518163ffffffff1660e01b815260040160206040518083038186803b158015614d2257600080fd5b505afa158015614d36573d6000803e3d6000fd5b505050506040513d601f19601f82011682018060405250810190614d5a9190615339565b9050670de0b6b3a764000083029250826005600001541015614db1576040517f08c379a0000000000000000000000000000000000000000000000000000000008152600401614da890615aec565b60405180910390fd5b808302925082600260003373ffffffffffffffffffffffffffffffffffffffff1673ffffffffffffffffffffffffffffffffffffffff168152602001908152602001600020600101541015614e3b576040517f08c379a0000000000000000000000000000000000000000000000000000000008152600401614e3290615b4c565b60405180910390fd5b82600260003373ffffffffffffffffffffffffffffffffffffffff1673ffffffffffffffffffffffffffffffffffffffff1681526020019081526020016000206001016000828254039250508190555082600260003373ffffffffffffffffffffffffffffffffffffffff1673ffffffffffffffffffffffffffffffffffffffff1681526020019081526020016000206006018360028110614ed957fe5b01600082825401925050819055508060506064850281614ef557fe5b0481614efd57fe5b04600260003373ffffffffffffffffffffffffffffffffffffffff1673ffffffffffffffffffffffffffffffffffffffff1681526020019081526020016000206004018360028110614f4b57fe5b01600082825401925050819055508060506064850281614f6757fe5b0481614f6f57fe5b04600260003373ffffffffffffffffffffffffffffffffffffffff1673ffffffffffffffffffffffffffffffffffffffff1681526020019081526020016000206002018360028110614fbd57fe5b01600082825403925050819055506001600260003373ffffffffffffffffffffffffffffffffffffffff1673ffffffffffffffffffffffffffffffffffffffff168152602001908152602001600020600c0160405161501b906159a8565b908152602001604051809103902060006101000a81548160ff021916908315150217905550806050606485028161504e57fe5b048161505657fe5b04600560000160008282540392505081905550806050606485028161507757fe5b048161507f57fe5b046005600101600082825401925050819055503373ffffffffffffffffffffffffffffffffffffffff166108fc8285816150b557fe5b049081150290604051600060405180830381858888f193505050501580156150e1573d6000803e3d6000fd5b506150ea61326e565b3373ffffffffffffffffffffffffffffffffffffffff167f03951a10935c21c2aac3ad2e2caebf2ccd972c3db450d4bfa44c9dd359862f89846040516151309190615c2c565b60405180910390a2505050565b828054600181600116156101000203166002900490600052602060002090601f01602090048101928261517357600085556151ba565b82601f1061518c57805160ff19168380011785556151ba565b828001600101855582156151ba579182015b828111156151b957825182559160200191906001019061519e565b5b5090506151c79190615243565b5090565b6040518060400160405280600290602082028036833780820191505090505090565b60405180604001604052806002905b60608152602001906001900390816151fc5790505090565b506000815560010160009055565b50600081816152319190615260565b5060010160006152419190615260565b565b5b8082111561525c576000816000905550600101615244565b5090565b50805460018160011615610100020316600290046000825580601f1061528657506152a5565b601f0160209004906000526020600020908101906152a49190615243565b5b50565b6000815190506152b781615f13565b92915050565b6000813590506152cc81615f2a565b92915050565b6000815190506152e181615f2a565b92915050565b6000602082840312156152f957600080fd5b6000615307848285016152a8565b91505092915050565b60006020828403121561532257600080fd5b6000615330848285016152bd565b91505092915050565b60006020828403121561534b57600080fd5b6000615359848285016152d2565b91505092915050565b600061536e83836154a5565b905092915050565b60006153828383615973565b60208301905092915050565b61539781615e51565b82525050565b6153a681615e09565b82525050565b60006153b782615d8b565b6153c18185615dc6565b9350836020820285016153d385615d77565b8060005b8581101561540f57848403895281516153f08582615362565b94506153fb83615dac565b925060208a019950506001810190506153d7565b50829750879550505050505092915050565b61542a81615d96565b6154348184615dd1565b925061543f82615d81565b8060005b838110156154705781516154578782615376565b965061546283615db9565b925050600181019050615443565b505050505050565b61548181615e63565b82525050565b61549081615e87565b82525050565b61549f81615e99565b82525050565b60006154b082615da1565b6154ba8185615ddc565b93506154ca818560208601615ecf565b6154d381615f02565b840191505092915050565b60006154e982615da1565b6154f38185615dfe565b9350615503818560208601615ecf565b80840191505092915050565b600061551c601483615ded565b91507f596f75206172656e2774206465706f7369746f720000000000000000000000006000830152602082019050919050565b600061555c602283615ded565b91507f4572726f722c206465706f736974206d757374206265203e3d20302e3031204560008301527f54480000000000000000000000000000000000000000000000000000000000006020830152604082019050919050565b60006155c2602483615ded565b91507f506f6f6c206973206e6f7420656e6f75676820746f6b656e20746f206c656e6460008301527f20796f75000000000000000000000000000000000000000000000000000000006020830152604082019050919050565b6000615628602583615ded565b91507f4e6f77206c697175696469747920646f6e2774206861766520656e6f7567682060008301527f746f6b656e0000000000000000000000000000000000000000000000000000006020830152604082019050919050565b600061568e602283615ded565b91507f536d61727420636f6e74726163742062616c616e6365206e6f7420656e6f756760008301527f682e0000000000000000000000000000000000000000000000000000000000006020830152604082019050919050565b60006156f4602a83615ded565b91507f596f7520646f6e2774206861766520656e6f75676820636f6c6c61746572616c60008301527f20746f20626f72726f77000000000000000000000000000000000000000000006020830152604082019050919050565b600061575a601b83615ded565b91507f596f7520646f6e2774206861766520656e6f75676820746f6b656e00000000006000830152602082019050919050565b600061579a601683615ded565b91507f4572726f722c206c6f616e206e6f7420616374697665000000000000000000006000830152602082019050919050565b60006157da600583615dfe565b91507f45746865720000000000000000000000000000000000000000000000000000006000830152600582019050919050565b600061581a600c83615ded565b91507f446f6e277420656e6f75676800000000000000000000000000000000000000006000830152602082019050919050565b600061585a600d83615ded565b91507f7472616e73666572206661696c000000000000000000000000000000000000006000830152602082019050919050565b600061589a602983615ded565b91507f596f7520646f6e2774206861766520656e6f6f75676820746f6b656e20746f2060008301527f77696474686472617700000000000000000000000000000000000000000000006020830152604082019050919050565b6000615900601683615ded565b91507f546f6b656e207472616e73666572206661696c65642e000000000000000000006000830152602082019050919050565b6000615940600783615dfe565b91507f497568436f696e000000000000000000000000000000000000000000000000006000830152600782019050919050565b61597c81615e47565b82525050565b61598b81615e47565b82525050565b600061599d82846154de565b915081905092915050565b60006159b3826157cd565b9150819050919050565b60006159c882615933565b9150819050919050565b60006020820190506159e7600083018461539d565b92915050565b6000606082019050615a02600083018661538e565b615a0f602083018561539d565b615a1c6040830184615982565b949350505050565b6000604082019050615a39600083018561538e565b615a466020830184615487565b9392505050565b6000604082019050615a62600083018561538e565b615a6f6020830184615982565b9392505050565b6000602082019050615a8b6000830184615478565b92915050565b6000602082019050615aa66000830184615496565b92915050565b60006020820190508181036000830152615ac58161550f565b9050919050565b60006020820190508181036000830152615ae58161554f565b9050919050565b60006020820190508181036000830152615b05816155b5565b9050919050565b60006020820190508181036000830152615b258161561b565b9050919050565b60006020820190508181036000830152615b4581615681565b9050919050565b60006020820190508181036000830152615b65816156e7565b9050919050565b60006020820190508181036000830152615b858161574d565b9050919050565b60006020820190508181036000830152615ba58161578d565b9050919050565b60006020820190508181036000830152615bc58161580d565b9050919050565b60006020820190508181036000830152615be58161584d565b9050919050565b60006020820190508181036000830152615c058161588d565b9050919050565b60006020820190508181036000830152615c25816158f3565b9050919050565b6000602082019050615c416000830184615982565b92915050565b600060c082019050615c5c6000830187615982565b615c696020830186615421565b615c766060830185615421565b81810360a0830152615c8881846153ac565b905095945050505050565b600060a082019050615ca86000830187615982565b615cb56020830186615421565b615cc26060830185615982565b8181036080830152615cd481846153ac565b905095945050505050565b6000604082019050615cf46000830185615982565b615d016020830184615982565b9392505050565b600060e082019050615d1d600083018a615982565b615d2a6020830189615982565b615d376040830188615982565b615d446060830187615982565b615d516080830186615982565b615d5e60a0830185615982565b615d6b60c0830184615982565b98975050505050505050565b6000819050919050565b6000819050919050565b600060029050919050565b600060029050919050565b600081519050919050565b6000602082019050919050565b6000602082019050919050565b600081905092915050565b600081905092915050565b600082825260208201905092915050565b600082825260208201905092915050565b600081905092915050565b6000615e1482615e27565b9050919050565b60008115159050919050565b600073ffffffffffffffffffffffffffffffffffffffff82169050919050565b6000819050919050565b6000615e5c82615eab565b9050919050565b6000615e6e82615e75565b9050919050565b6000615e8082615e27565b9050919050565b6000615e9282615e47565b9050919050565b6000615ea482615e47565b9050919050565b6000615eb682615ebd565b9050919050565b6000615ec882615e27565b9050919050565b60005b83811015615eed578082015181840152602081019050615ed2565b83811115615efc576000848401525b50505050565b6000601f19601f8301169050919050565b615f1c81615e1b565b8114615f2757600080fd5b50565b615f3381615e47565b8114615f3e57600080fd5b5056fea26469706673582212208c0b6047ffab17ed66df0109582951218d9ec4511cb3169866e547cf18c39f7864736f6c63430007060033",
  "immutableReferences": {},
  "source": "// SPDX-License-Identifier: MIT\r\npragma solidity >=0.6.0 <0.8.0;\r\npragma experimental ABIEncoderV2;\r\nimport \"./oracle.sol\";\r\nimport \"./IuhCoin.sol\";\r\n\r\ncontract iuhBank {\r\n  iuhCoin private iuhcoin;\r\n  uint8 constant exchangeLendRate = 20;\r\n  uint8 constant exchangeBorrowRate = 21;\r\n    struct pool{\r\n      uint totalAmount;\r\n      uint borrowAmount;\r\n      uint price;\r\n      uint8 lendRate;\r\n      uint8 borrowRate;\r\n    }\r\n    struct UserInfo{\r\n      uint8 index;\r\n      uint Collateral;\r\n      uint[2] LendAmount;\r\n      uint[2] frezeAmount;\r\n      uint[2] Borrow;\r\n      string[2] tokenName;\r\n      mapping(string => uint8) token;\r\n      mapping(string => bool) isToken;\r\n      mapping(string => bool) isBorrowed;\r\n    }\r\n    address[] userAddress;\r\n    mapping(address => UserInfo) user;\r\n    mapping(address => bool) isDeposited;\r\n   \r\n    Oracle public oracle;\r\n     \r\n    constructor(Oracle _oracle, iuhCoin _iuhcoin) public{\r\n      oracle = _oracle;\r\n      iuhcoin = _iuhcoin;\r\n      EtherToken.price = oracle.getPrice();\r\n      IuhToken.price = oracle.getIuhPrice();\r\n    }\r\n    pool EtherToken = pool({\r\n          totalAmount:0 ,\r\n          borrowAmount: 0 ,\r\n          price: 0,\r\n          lendRate: 20,\r\n          borrowRate: 21});\r\n      pool IuhToken = pool({\r\n          totalAmount:0 ,\r\n          borrowAmount: 0 ,\r\n          price: 0,\r\n          lendRate: 20,\r\n          borrowRate: 21});\r\n    \r\n    event Deposit(address indexed user, uint etherAmount, uint timeStart);\r\n    event Withdraw(address indexed user, uint etherAmount);\r\n    event Borrowing(address indexed user, uint amount);\r\n    event Repay(address indexed user);\r\n\r\n    modifier depositor{\r\n      require(isDeposited[msg.sender],\"You aren't depositor\");\r\n      _;\r\n    }\r\n\r\n    function depositEther()  payable public {\r\n    require(msg.value>=1e16, 'Error, deposit must be >= 0.01 ETH');\r\n    uint8 index;\r\n\r\n    if (!isDeposited[msg.sender]) {\r\n        userAddress.push(msg.sender);\r\n    }\r\n\r\n    if (!user[msg.sender].isToken[\"Ether\"]) {\r\n        index = user[msg.sender].index;\r\n        user[msg.sender].token[\"Ether\"] = index;\r\n        user[msg.sender].index++;\r\n        user[msg.sender].isToken[\"Ether\"] = true;\r\n    } else {\r\n        index = user[msg.sender].token[\"Ether\"];\r\n    }\r\n    uint price = oracle.getPrice();\r\n    uint value = msg.value;\r\n    uint collateral = (value * price * 8) / 10;\r\n    EtherToken.totalAmount += value;\r\n    user[msg.sender].LendAmount[index] += value;\r\n    user[msg.sender].tokenName[index] = \"Ether\";\r\n    user[msg.sender].Collateral += collateral;\r\n    updateRate();\r\n    isDeposited[msg.sender] = true;\r\n\r\n    emit Deposit(msg.sender, value, block.timestamp);\r\n  }\r\n  function depositIuhCoin( uint amount)  payable public {\r\n    amount = amount * 10 **18;\r\n    require(amount>=1e16, 'Error, deposit must be >= 0.01 ETH');\r\n    uint8 index;\r\n    if(!isDeposited[msg.sender]){\r\n      userAddress.push(msg.sender);\r\n    }\r\n    if(!user[msg.sender].isToken[\"IuhCoin\"]){\r\n      index = user[msg.sender].index;\r\n      user[msg.sender].token[\"IuhCoin\"] = index;\r\n      user[msg.sender].index +=1;\r\n      user[msg.sender].isToken[\"IuhCoin\"] =true;\r\n    }else{\r\n        index =user[msg.sender].token[\"IuhCoin\"];\r\n    }\r\n      \r\n    require(iuhcoin.transferFrom(msg.sender,address(this),amount), \"transfer fail\");\r\n    IuhToken.totalAmount += amount;\r\n    user[msg.sender].LendAmount[index] += amount;\r\n    user[msg.sender].tokenName[index] = \"IuhCoin\";\r\n    user[msg.sender].Collateral += (msg.value * oracle.getIuhPrice() * 80 ) / 100;\r\n    updateRate();\r\n    isDeposited[msg.sender] = true;\r\n    emit Deposit(msg.sender, amount, block.timestamp);\r\n  }\r\n  function updateRate() public {\r\n    uint etherPrice = oracle.getPrice();\r\n    uint iuhCoinPrice = oracle.getIuhPrice();\r\n    for (uint8 i = 0; i < userAddress.length ; i++) \r\n    {\r\n      if(user[userAddress[i]].Collateral <= 0){\r\n        if(user[userAddress[i]].isBorrowed[\"Ether\"]){ \r\n        uint8 etherIndex = user[userAddress[i]].token[\"Ether\"];\r\n        uint freze =  user[userAddress[i]].frezeAmount[etherIndex];\r\n        EtherToken.totalAmount += freze;\r\n        EtherToken.borrowAmount -= freze;\r\n        }\r\n        \r\n        if(user[userAddress[i]].isBorrowed[\"IuhCoin\"]){ \r\n        uint8 iuhIndex = user[userAddress[i]].token[\"IuhCoin\"];\r\n        uint freze =  user[userAddress[i]].frezeAmount[iuhIndex];\r\n        IuhToken.totalAmount += freze;\r\n        IuhToken.borrowAmount -= freze;  \r\n        }\r\n        delete user[userAddress[i]];\r\n        }else{\r\n      for(uint j = 0; j < user[userAddress[i]].index ;j++){\r\n        uint value1 =((user[userAddress[i]].LendAmount[j] * exchangeLendRate) / 1000);\r\n        user[userAddress[i]].LendAmount[j] += value1;\r\n        string memory tokenName = user[userAddress[i]].tokenName[j];\r\n        if (keccak256(abi.encodePacked(tokenName)) == keccak256(abi.encodePacked(\"Ether\"))) {\r\n          user[userAddress[i]].Collateral += (value1 * etherPrice * 80 ) / 100;\r\n        } else{\r\n          user[userAddress[i]].Collateral += (value1 * iuhCoinPrice * 80 ) / 100;\r\n        }\r\n      }\r\n      uint addBorrow = 0;\r\n      if(user[userAddress[i]].isBorrowed[\"Ether\"] && user[userAddress[i]].isBorrowed[\"IuhCoin\"]  ){\r\n        uint value1 = ((user[userAddress[i]].Borrow[0] * exchangeBorrowRate) / 1000);\r\n        uint value2 = ((user[userAddress[i]].Borrow[1] * exchangeBorrowRate) / 1000);\r\n        user[userAddress[i]].Borrow[0] += value1;\r\n        user[userAddress[i]].Borrow[1] += value2;\r\n        addBorrow = value1 + value2;\r\n      }else{\r\n        user[userAddress[i]].Borrow[0] +=((user[userAddress[i]].Borrow[0] * exchangeBorrowRate) / 1000);\r\n        addBorrow = ((user[userAddress[i]].Borrow[0] * exchangeBorrowRate) / 1000);\r\n      }\r\n      user[userAddress[i]].Collateral -= addBorrow;\r\n      if(user[userAddress[i]].Collateral <= 0){\r\n        if(user[userAddress[i]].isBorrowed[\"Ether\"]){ \r\n        uint8 etherIndex = user[userAddress[i]].token[\"Ether\"];\r\n        uint freze =  user[userAddress[i]].frezeAmount[etherIndex];\r\n        EtherToken.totalAmount += freze;\r\n        EtherToken.borrowAmount -= freze;\r\n        }\r\n        \r\n        if(user[userAddress[i]].isBorrowed[\"IuhCoin\"]){ \r\n        uint8 iuhIndex = user[userAddress[i]].token[\"IuhCoin\"];\r\n        uint freze =  user[userAddress[i]].frezeAmount[iuhIndex];\r\n        IuhToken.totalAmount += freze;\r\n        IuhToken.borrowAmount -= freze;  \r\n        }\r\n        delete user[userAddress[i]];\r\n        }\r\n    }}\r\n  }\r\n  function withdrawEther(uint amount) depositor public {\r\n    // thc hin rt\r\n    uint index = user[msg.sender].token[\"Ether\"]; \r\n    require(EtherToken.totalAmount >= amount, \"Now liquidity don't have enough token\");\r\n    require(amount <= user[msg.sender].LendAmount[index], \"You don't have enoough token to widthdraw\");\r\n\r\n    user[msg.sender].Collateral -= (amount * oracle.getPrice() * 80 ) / 100;\r\n    //ci t trng thi pool\r\n    EtherToken.totalAmount -= amount;\r\n    user[msg.sender].LendAmount[index] -= amount;\r\n    msg.sender.transfer(amount);\r\n    updateRate();\r\n    emit Withdraw(msg.sender, amount);\r\n  }\r\n  function withdrawIuh(uint amount) depositor  public {\r\n    // thc hin rt\r\n    uint index = user[msg.sender].token[\"IuhCoin\"]; \r\n    require(IuhToken.totalAmount >= amount,\"Now liquidity don't have enough token\");\r\n    require(amount <= user[msg.sender].LendAmount[index], \"You don't have enough token\");\r\n     // Kim tra s d token ca smart contract tr li cho ngi dng\r\n    require(iuhcoin.balanceOf(address(this)) >= amount, \"Smart contract balance not enough.\");\r\n    // Chuyn token t smart contract tr li cho ngi dng\r\n    require(iuhcoin.transfer(msg.sender, amount), \"Token transfer failed.\");\r\n    //ci t trng thi pool\r\n    user[msg.sender].Collateral -= (amount * oracle.getIuhPrice() * 80) / (100);\r\n    IuhToken.totalAmount -= amount;\r\n    user[msg.sender].LendAmount[index] -= amount;\r\n    updateRate();\r\n    emit Withdraw(msg.sender, amount);\r\n  }\r\n  \r\n  function borrowingEth(uint amount) depositor public {\r\n    uint index = user[msg.sender].token[\"Ether\"]; \r\n    uint etherPrice = oracle.getPrice();\r\n    amount = amount * 10 **18;\r\n    require(EtherToken.totalAmount >= amount, \"Pool is not enough token to lend you\");\r\n\r\n    amount = amount  * etherPrice; \r\n    require(user[msg.sender].Collateral >= amount, \"You don't have enough collateral to borrow\");\r\n\r\n    user[msg.sender].Collateral -= amount;\r\n    user[msg.sender].Borrow[index] += amount;\r\n    user[msg.sender].frezeAmount[index] += ((amount * 100)/80) / etherPrice;\r\n    user[msg.sender].LendAmount[index] -= ((amount * 100)/80) / etherPrice;\r\n    user[msg.sender].isBorrowed[\"Ether\"] = true;\r\n\r\n    EtherToken.totalAmount -= ((amount * 100)/80) / etherPrice;\r\n    EtherToken.borrowAmount += ((amount * 100)/80) / etherPrice;\r\n\r\n    msg.sender.transfer(amount / etherPrice);\r\n    updateRate();\r\n    emit Borrowing(msg.sender, amount);\r\n  }\r\n\r\n  function borrowingIuhCoin(uint amount) depositor public {\r\n    uint index = user[msg.sender].token[\"IuhCoin\"]; \r\n    uint price = oracle.getIuhPrice();\r\n    amount = amount * 10 **18;\r\n    require(IuhToken.totalAmount >= amount, \"Pool is not enough token to lend you\");\r\n    amount = amount * price; \r\n\r\n    require(user[msg.sender].Collateral>= amount, \"You don't have enough collateral to borrow\");\r\n    user[msg.sender].Collateral -= amount;\r\n    user[msg.sender].Borrow[index] += amount;\r\n    user[msg.sender].frezeAmount[index] += (amount) / price;\r\n    user[msg.sender].isBorrowed[\"IuhCoin\"] = true;\r\n\r\n    IuhToken.totalAmount -= ((amount * 100)/80) / price;\r\n    IuhToken.borrowAmount += ((amount * 100)/80) / price;\r\n    iuhcoin.transfer(msg.sender, amount / price);\r\n    updateRate();\r\n    emit Borrowing(msg.sender, amount);\r\n  }\r\n\r\n  function repayEther() payable public {\r\n    require(user[msg.sender].isBorrowed[\"Ether\"] == true, 'Error, loan not active');\r\n    uint price = oracle.getPrice();\r\n    uint index = user[msg.sender].token[\"Ether\"];\r\n    uint payAmount = msg.value * price;\r\n    uint freze = user[msg.sender].frezeAmount[index];\r\n    require(payAmount == user[msg.sender].Borrow[index], \"Don't enough\");\r\n\r\n    user[msg.sender].Borrow[index] = 0;\r\n    user[msg.sender].LendAmount[index] +=  freze;\r\n    user[msg.sender].Collateral += (freze * price * 80) / 100;\r\n    user[msg.sender].frezeAmount[index] = 0;\r\n\r\n    user[msg.sender].isBorrowed[\"Ether\"] = false;\r\n\r\n    EtherToken.totalAmount += freze;\r\n    EtherToken.borrowAmount -= freze;\r\n\r\n    updateRate();\r\n    emit Repay(msg.sender);\r\n  }\r\n\r\n  function repayIuhCoin() payable public {\r\n    require(user[msg.sender].isBorrowed[\"IuhCoin\"] == true, 'Error, loan not active');\r\n    uint price = oracle.getIuhPrice();\r\n    uint index = user[msg.sender].token[\"IuhCoin\"];\r\n    uint payAmount = msg.value * price ;\r\n    uint freze = user[msg.sender].frezeAmount[index];\r\n    require(payAmount == user[msg.sender].Borrow[index], \"Don't enough\");\r\n    \r\n    user[msg.sender].Borrow[index] = 0;\r\n    user[msg.sender].Collateral += (freze * price *80) /100 ;\r\n    user[msg.sender].frezeAmount[index] = 0;\r\n    user[msg.sender].isBorrowed[\"IuhCoin\"] = false;\r\n\r\n    IuhToken.totalAmount += freze;\r\n    IuhToken.borrowAmount -= freze;\r\n    updateRate();\r\n    emit Repay(msg.sender);\r\n  }\r\n  // ly thng tin ngi dng\r\n\r\n  function getUserSupplied() public view returns(uint  index,uint[2] memory LendAmount, uint  Collateral, string[2] memory tokenName ){\r\n    index = user[msg.sender].index;\r\n    LendAmount = user[msg.sender].LendAmount;\r\n    Collateral = user[msg.sender].Collateral;\r\n    tokenName = user[msg.sender].tokenName;\r\n  }\r\n  function getUserBorrow() public view returns(uint  index,uint[2] memory Borrow,uint[2] memory frezeAmount, string[2] memory tokenName ){\r\n    index = user[msg.sender].index;\r\n    Borrow = user[msg.sender].Borrow;\r\n    frezeAmount = user[msg.sender].frezeAmount;\r\n    tokenName = user[msg.sender].tokenName;\r\n  }\r\n\r\n  // Ly thng tin h\r\n  function getEtherPoolInfo() public view returns (uint  totalAmount, \r\n  uint borrowAmount, uint  price, uint lendRate, uint borrowRate,uint totalAmountInUsd , uint borrowAmountInUsd) {\r\n    totalAmount = EtherToken.totalAmount;\r\n    borrowAmount = EtherToken.borrowAmount;\r\n    totalAmountInUsd = EtherToken.totalAmount * oracle.getPrice();\r\n    borrowAmountInUsd = EtherToken.borrowAmount * oracle.getPrice();\r\n    price = EtherToken.price;\r\n    lendRate = EtherToken.lendRate;\r\n    borrowRate = EtherToken.borrowRate;\r\n  }\r\n  function getIuhCoinPoolInfo() external view returns (uint  totalAmount, \r\n  uint borrowAmount, uint  price, uint lendRate, uint borrowRate, uint totalAmountInUsd, uint borrowAmountInUsd) {\r\n    totalAmount = IuhToken.totalAmount;\r\n    borrowAmount = IuhToken.borrowAmount;\r\n    totalAmountInUsd = IuhToken.totalAmount * oracle.getIuhPrice();\r\n    borrowAmountInUsd = IuhToken.borrowAmount * oracle.getIuhPrice();\r\n    price = IuhToken.price;\r\n    lendRate = IuhToken.lendRate;\r\n    borrowRate = IuhToken.borrowRate;\r\n  }\r\n  function getTotalLiquidInUsd() external view returns(uint){\r\n    return (address(this).balance * oracle.getPrice()) + (iuhcoin.balanceOf(address(this)) * oracle.getIuhPrice());\r\n  }\r\n  function updatePrice() public {\r\n    oracle.setPrice(2000);\r\n    updateRate();\r\n  }\r\n  function mintIuhCoin() public{\r\n    iuhcoin.mint(msg.sender, 100 *10 **18);\r\n  }\r\n}\r\n\r\n\r\n",
  "sourcePath": "C:\\Users\\acer\\client\\contracts\\dBank.sol",
  "compiler": {
    "name": "solc",
    "version": "0.7.6+commit.7338295f.Emscripten.clang"
  },
  "schemaVersion": "3.4.12",
  "updatedAt": "2023-05-05T09:44:34.087Z",
  "networkType": "ethereum",
  "devdoc": {
    "kind": "dev",
    "methods": {},
    "version": 1
  },
  "userdoc": {
    "kind": "user",
    "methods": {},
    "version": 1
  }
}