{
  "contractName": "iuhBank",
  "abi": [
    {
      "inputs": [
        {
          "internalType": "contract Oracle",
          "name": "_oracle",
          "type": "address"
        },
        {
          "internalType": "contract iuhCoin",
          "name": "_iuhcoin",
          "type": "address"
        }
      ],
      "stateMutability": "nonpayable",
      "type": "constructor"
    },
    {
      "anonymous": false,
      "inputs": [
        {
          "indexed": true,
          "internalType": "address",
          "name": "user",
          "type": "address"
        },
        {
          "indexed": false,
          "internalType": "uint256",
          "name": "amount",
          "type": "uint256"
        }
      ],
      "name": "Borrowing",
      "type": "event"
    },
    {
      "anonymous": false,
      "inputs": [
        {
          "indexed": true,
          "internalType": "address",
          "name": "user",
          "type": "address"
        },
        {
          "indexed": false,
          "internalType": "uint256",
          "name": "etherAmount",
          "type": "uint256"
        },
        {
          "indexed": false,
          "internalType": "uint256",
          "name": "timeStart",
          "type": "uint256"
        }
      ],
      "name": "Deposit",
      "type": "event"
    },
    {
      "anonymous": false,
      "inputs": [
        {
          "indexed": true,
          "internalType": "address",
          "name": "user",
          "type": "address"
        }
      ],
      "name": "Repay",
      "type": "event"
    },
    {
      "anonymous": false,
      "inputs": [
        {
          "indexed": true,
          "internalType": "address",
          "name": "user",
          "type": "address"
        },
        {
          "indexed": false,
          "internalType": "uint256",
          "name": "etherAmount",
          "type": "uint256"
        }
      ],
      "name": "Withdraw",
      "type": "event"
    },
    {
      "inputs": [],
      "name": "oracle",
      "outputs": [
        {
          "internalType": "contract Oracle",
          "name": "",
          "type": "address"
        }
      ],
      "stateMutability": "view",
      "type": "function",
      "constant": true
    },
    {
      "inputs": [],
      "name": "depositEther",
      "outputs": [],
      "stateMutability": "payable",
      "type": "function",
      "payable": true
    },
    {
      "inputs": [
        {
          "internalType": "uint256",
          "name": "amount",
          "type": "uint256"
        }
      ],
      "name": "depositIuhCoin",
      "outputs": [],
      "stateMutability": "payable",
      "type": "function",
      "payable": true
    },
    {
      "inputs": [],
      "name": "updateRate",
      "outputs": [],
      "stateMutability": "nonpayable",
      "type": "function"
    },
    {
      "inputs": [
        {
          "internalType": "uint256",
          "name": "amount",
          "type": "uint256"
        }
      ],
      "name": "withdrawEther",
      "outputs": [],
      "stateMutability": "nonpayable",
      "type": "function"
    },
    {
      "inputs": [
        {
          "internalType": "uint256",
          "name": "amount",
          "type": "uint256"
        }
      ],
      "name": "withdrawIuh",
      "outputs": [],
      "stateMutability": "nonpayable",
      "type": "function"
    },
    {
      "inputs": [
        {
          "internalType": "uint256",
          "name": "amount",
          "type": "uint256"
        }
      ],
      "name": "borrowingEth",
      "outputs": [],
      "stateMutability": "nonpayable",
      "type": "function"
    },
    {
      "inputs": [
        {
          "internalType": "uint256",
          "name": "amount",
          "type": "uint256"
        }
      ],
      "name": "borrowingIuhCoin",
      "outputs": [],
      "stateMutability": "nonpayable",
      "type": "function"
    },
    {
      "inputs": [],
      "name": "repayEther",
      "outputs": [],
      "stateMutability": "payable",
      "type": "function",
      "payable": true
    },
    {
      "inputs": [
        {
          "internalType": "uint256",
          "name": "amount",
          "type": "uint256"
        }
      ],
      "name": "repayIuhCoin",
      "outputs": [],
      "stateMutability": "payable",
      "type": "function",
      "payable": true
    },
    {
      "inputs": [],
      "name": "getUserSupplied",
      "outputs": [
        {
          "internalType": "uint256",
          "name": "index",
          "type": "uint256"
        },
        {
          "internalType": "uint256[2]",
          "name": "LendAmount",
          "type": "uint256[2]"
        },
        {
          "internalType": "uint256",
          "name": "Collateral",
          "type": "uint256"
        },
        {
          "internalType": "string[2]",
          "name": "tokenName",
          "type": "string[2]"
        }
      ],
      "stateMutability": "view",
      "type": "function",
      "constant": true
    },
    {
      "inputs": [],
      "name": "getUserBorrow",
      "outputs": [
        {
          "internalType": "uint256",
          "name": "index",
          "type": "uint256"
        },
        {
          "internalType": "uint256[2]",
          "name": "Borrow",
          "type": "uint256[2]"
        },
        {
          "internalType": "uint256[2]",
          "name": "frezeAmount",
          "type": "uint256[2]"
        },
        {
          "internalType": "string[2]",
          "name": "tokenName",
          "type": "string[2]"
        }
      ],
      "stateMutability": "view",
      "type": "function",
      "constant": true
    },
    {
      "inputs": [],
      "name": "getEtherPoolInfo",
      "outputs": [
        {
          "internalType": "uint256",
          "name": "totalAmount",
          "type": "uint256"
        },
        {
          "internalType": "uint256",
          "name": "borrowAmount",
          "type": "uint256"
        },
        {
          "internalType": "uint256",
          "name": "price",
          "type": "uint256"
        },
        {
          "internalType": "uint256",
          "name": "lendRate",
          "type": "uint256"
        },
        {
          "internalType": "uint256",
          "name": "borrowRate",
          "type": "uint256"
        },
        {
          "internalType": "uint256",
          "name": "totalAmountInUsd",
          "type": "uint256"
        },
        {
          "internalType": "uint256",
          "name": "borrowAmountInUsd",
          "type": "uint256"
        }
      ],
      "stateMutability": "view",
      "type": "function",
      "constant": true
    },
    {
      "inputs": [],
      "name": "getIuhCoinPoolInfo",
      "outputs": [
        {
          "internalType": "uint256",
          "name": "totalAmount",
          "type": "uint256"
        },
        {
          "internalType": "uint256",
          "name": "borrowAmount",
          "type": "uint256"
        },
        {
          "internalType": "uint256",
          "name": "price",
          "type": "uint256"
        },
        {
          "internalType": "uint256",
          "name": "lendRate",
          "type": "uint256"
        },
        {
          "internalType": "uint256",
          "name": "borrowRate",
          "type": "uint256"
        },
        {
          "internalType": "uint256",
          "name": "totalAmountInUsd",
          "type": "uint256"
        },
        {
          "internalType": "uint256",
          "name": "borrowAmountInUsd",
          "type": "uint256"
        }
      ],
      "stateMutability": "view",
      "type": "function",
      "constant": true
    },
    {
      "inputs": [],
      "name": "getTotalLiquidInUsd",
      "outputs": [
        {
          "internalType": "uint256",
          "name": "",
          "type": "uint256"
        }
      ],
      "stateMutability": "view",
      "type": "function",
      "constant": true
    },
    {
      "inputs": [],
      "name": "updatePrice",
      "outputs": [],
      "stateMutability": "nonpayable",
      "type": "function"
    },
    {
      "inputs": [],
      "name": "mintIuhCoin",
      "outputs": [],
      "stateMutability": "nonpayable",
      "type": "function"
    }
  ],
  "bytecode": "0x60806040526040518060a00160405280600081526020016000815260200160008152602001601460ff168152602001601560ff16815250600560008201518160000155602082015181600101556040820151816002015560608201518160030160006101000a81548160ff021916908360ff16021790555060808201518160030160016101000a81548160ff021916908360ff16021790555050506040518060a00160405280600081526020016000815260200160008152602001601460ff168152602001601560ff16815250600960008201518160000155602082015181600101556040820151816002015560608201518160030160006101000a81548160ff021916908360ff16021790555060808201518160030160016101000a81548160ff021916908360ff16021790555050503480156200013d57600080fd5b506040516200632f3803806200632f83398181016040528101906200016391906200038b565b81600460006101000a81548173ffffffffffffffffffffffffffffffffffffffff021916908373ffffffffffffffffffffffffffffffffffffffff160217905550806000806101000a81548173ffffffffffffffffffffffffffffffffffffffff021916908373ffffffffffffffffffffffffffffffffffffffff160217905550600460009054906101000a900473ffffffffffffffffffffffffffffffffffffffff1673ffffffffffffffffffffffffffffffffffffffff166398d5fdca6040518163ffffffff1660e01b815260040160206040518083038186803b1580156200024d57600080fd5b505afa15801562000262573d6000803e3d6000fd5b505050506040513d601f19601f82011682018060405250810190620002889190620003cc565b600560020181905550600460009054906101000a900473ffffffffffffffffffffffffffffffffffffffff1673ffffffffffffffffffffffffffffffffffffffff166372366dbf6040518163ffffffff1660e01b815260040160206040518083038186803b158015620002fa57600080fd5b505afa1580156200030f573d6000803e3d6000fd5b505050506040513d601f19601f82011682018060405250810190620003359190620003cc565b6009600201819055505050620004ac565b60008151905062000357816200045e565b92915050565b6000815190506200036e8162000478565b92915050565b600081519050620003858162000492565b92915050565b600080604083850312156200039f57600080fd5b6000620003af8582860162000346565b9250506020620003c2858286016200035d565b9150509250929050565b600060208284031215620003df57600080fd5b6000620003ef8482850162000374565b91505092915050565b6000620004058262000434565b9050919050565b60006200041982620003f8565b9050919050565b60006200042d82620003f8565b9050919050565b600073ffffffffffffffffffffffffffffffffffffffff82169050919050565b6000819050919050565b62000469816200040c565b81146200047557600080fd5b50565b620004838162000420565b81146200048f57600080fd5b50565b6200049d8162000454565b8114620004a957600080fd5b50565b615e7380620004bc6000396000f3fe6080604052600436106100fe5760003560e01c80637dc0d1d011610095578063bff368d311610064578063bff368d314610297578063c75253e9146102c2578063c7fee63e146102de578063de4755c1146102f5578063f1f8a42714610323576100fe565b80637dc0d1d01461020857806388a3796c1461023357806398ea5fca14610264578063b67828c81461026e576100fe565b80633bed33ce116100d15780633bed33ce14610169578063509b2b011461019257806361083cbc146101c3578063673a7e28146101f1576100fe565b806326c7d3f01461010357806326cebf831461012c57806337f97c9d146101435780633ad7ef9a1461014d575b600080fd5b34801561010f57600080fd5b5061012a6004803603810190610125919061520c565b61034c565b005b34801561013857600080fd5b506101416108c3565b005b61014b61095b565b005b6101676004803603810190610162919061520c565b610e59565b005b34801561017557600080fd5b50610190600480360381019061018b919061520c565b61159e565b005b34801561019e57600080fd5b506101a76118f0565b6040516101ba9796959493929190615c04565b60405180910390f35b3480156101cf57600080fd5b506101d8611a9e565b6040516101e89493929190615b43565b60405180910390f35b3480156101fd57600080fd5b50610206611d25565b005b34801561021457600080fd5b5061021d611dbe565b60405161022a9190615972565b60405180910390f35b34801561023f57600080fd5b50610248611de4565b60405161025b9796959493929190615c04565b60405180910390f35b61026c611f92565b005b34801561027a57600080fd5b506102956004803603810190610290919061520c565b6125f1565b005b3480156102a357600080fd5b506102ac612ad3565b6040516102b99190615b28565b60405180910390f35b6102dc60048036038101906102d7919061520c565b612cc7565b005b3480156102ea57600080fd5b506102f361316a565b005b34801561030157600080fd5b5061030a614871565b60405161031a9493929190615b8f565b60405180910390f35b34801561032f57600080fd5b5061034a6004803603810190610345919061520c565b614ab7565b005b600360003373ffffffffffffffffffffffffffffffffffffffff1673ffffffffffffffffffffffffffffffffffffffff16815260200190815260200160002060009054906101000a900460ff166103d8576040517f08c379a00000000000000000000000000000000000000000000000000000000081526004016103cf906159a8565b60405180910390fd5b6000600260003373ffffffffffffffffffffffffffffffffffffffff1673ffffffffffffffffffffffffffffffffffffffff168152602001908152602001600020600a01604051610428906158b9565b908152602001604051809103902060009054906101000a900460ff1660ff1690506000600460009054906101000a900473ffffffffffffffffffffffffffffffffffffffff1673ffffffffffffffffffffffffffffffffffffffff166372366dbf6040518163ffffffff1660e01b815260040160206040518083038186803b1580156104b357600080fd5b505afa1580156104c7573d6000803e3d6000fd5b505050506040513d601f19601f820116820180604052508101906104eb9190615235565b9050670de0b6b3a764000083029250826009600001541015610542576040517f08c379a0000000000000000000000000000000000000000000000000000000008152600401610539906159e8565b60405180910390fd5b808302925082600260003373ffffffffffffffffffffffffffffffffffffffff1673ffffffffffffffffffffffffffffffffffffffff1681526020019081526020016000206001015410156105cc576040517f08c379a00000000000000000000000000000000000000000000000000000000081526004016105c390615a48565b60405180910390fd5b82600260003373ffffffffffffffffffffffffffffffffffffffff1673ffffffffffffffffffffffffffffffffffffffff1681526020019081526020016000206001016000828254039250508190555082600260003373ffffffffffffffffffffffffffffffffffffffff1673ffffffffffffffffffffffffffffffffffffffff168152602001908152602001600020600601836002811061066a57fe5b0160008282540192505081905550806050606485028161068657fe5b048161068e57fe5b04600260003373ffffffffffffffffffffffffffffffffffffffff1673ffffffffffffffffffffffffffffffffffffffff16815260200190815260200160002060040183600281106106dc57fe5b01600082825401925050819055506001600260003373ffffffffffffffffffffffffffffffffffffffff1673ffffffffffffffffffffffffffffffffffffffff168152602001908152602001600020600c0160405161073a906158b9565b908152602001604051809103902060006101000a81548160ff021916908315150217905550806050606485028161076d57fe5b048161077557fe5b04600960000160008282540392505081905550806050606485028161079657fe5b048161079e57fe5b0460096001016000828254019250508190555060008054906101000a900473ffffffffffffffffffffffffffffffffffffffff1673ffffffffffffffffffffffffffffffffffffffff1663a9059cbb338386816107f757fe5b046040518363ffffffff1660e01b8152600401610815929190615949565b602060405180830381600087803b15801561082f57600080fd5b505af1158015610843573d6000803e3d6000fd5b505050506040513d601f19601f8201168201806040525081019061086791906151e3565b5061087061316a565b3373ffffffffffffffffffffffffffffffffffffffff167f03951a10935c21c2aac3ad2e2caebf2ccd972c3db450d4bfa44c9dd359862f89846040516108b69190615b28565b60405180910390a2505050565b60008054906101000a900473ffffffffffffffffffffffffffffffffffffffff1673ffffffffffffffffffffffffffffffffffffffff166340c10f193368056bc75e2d631000006040518363ffffffff1660e01b8152600401610927929190615920565b600060405180830381600087803b15801561094157600080fd5b505af1158015610955573d6000803e3d6000fd5b50505050565b60011515600260003373ffffffffffffffffffffffffffffffffffffffff1673ffffffffffffffffffffffffffffffffffffffff168152602001908152602001600020600c016040516109ad906158a4565b908152602001604051809103902060009054906101000a900460ff16151514610a0b576040517f08c379a0000000000000000000000000000000000000000000000000000000008152600401610a0290615a88565b60405180910390fd5b6000600460009054906101000a900473ffffffffffffffffffffffffffffffffffffffff1673ffffffffffffffffffffffffffffffffffffffff166398d5fdca6040518163ffffffff1660e01b815260040160206040518083038186803b158015610a7557600080fd5b505afa158015610a89573d6000803e3d6000fd5b505050506040513d601f19601f82011682018060405250810190610aad9190615235565b90506000600260003373ffffffffffffffffffffffffffffffffffffffff1673ffffffffffffffffffffffffffffffffffffffff168152602001908152602001600020600a01604051610aff906158a4565b908152602001604051809103902060009054906101000a900460ff1660ff169050600082340290506000600260003373ffffffffffffffffffffffffffffffffffffffff1673ffffffffffffffffffffffffffffffffffffffff1681526020019081526020016000206004018360028110610b7657fe5b01549050600260003373ffffffffffffffffffffffffffffffffffffffff1673ffffffffffffffffffffffffffffffffffffffff1681526020019081526020016000206006018360028110610bc757fe5b01548214610c0a576040517f08c379a0000000000000000000000000000000000000000000000000000000008152600401610c0190615aa8565b60405180910390fd5b6000600260003373ffffffffffffffffffffffffffffffffffffffff1673ffffffffffffffffffffffffffffffffffffffff1681526020019081526020016000206006018460028110610c5957fe5b018190555080600260003373ffffffffffffffffffffffffffffffffffffffff1673ffffffffffffffffffffffffffffffffffffffff1681526020019081526020016000206002018460028110610cac57fe5b0160008282540192505081905550606460508583020281610cc957fe5b04600260003373ffffffffffffffffffffffffffffffffffffffff1673ffffffffffffffffffffffffffffffffffffffff168152602001908152602001600020600101600082825401925050819055506000600260003373ffffffffffffffffffffffffffffffffffffffff1673ffffffffffffffffffffffffffffffffffffffff1681526020019081526020016000206004018460028110610d6857fe5b01819055506000600260003373ffffffffffffffffffffffffffffffffffffffff1673ffffffffffffffffffffffffffffffffffffffff168152602001908152602001600020600c01604051610dbd906158a4565b908152602001604051809103902060006101000a81548160ff0219169083151502179055508060056000016000828254019250508190555080600560010160008282540392505081905550610e1061316a565b3373ffffffffffffffffffffffffffffffffffffffff167f5f9ec7a6c98280524f8d172d79eecf9e9660ad36b52d1836dd45dd81a342bd1360405160405180910390a250505050565b670de0b6b3a764000081029050662386f26fc10000811015610eb0576040517f08c379a0000000000000000000000000000000000000000000000000000000008152600401610ea7906159c8565b60405180910390fd5b6000600360003373ffffffffffffffffffffffffffffffffffffffff1673ffffffffffffffffffffffffffffffffffffffff16815260200190815260200160002060009054906101000a900460ff16610f67576001339080600181540180825580915050600190039060005260206000200160009091909190916101000a81548173ffffffffffffffffffffffffffffffffffffffff021916908373ffffffffffffffffffffffffffffffffffffffff1602179055505b600260003373ffffffffffffffffffffffffffffffffffffffff1673ffffffffffffffffffffffffffffffffffffffff168152602001908152602001600020600b01604051610fb5906158b9565b908152602001604051809103902060009054906101000a900460ff1661118457600260003373ffffffffffffffffffffffffffffffffffffffff1673ffffffffffffffffffffffffffffffffffffffff16815260200190815260200160002060000160009054906101000a900460ff16905080600260003373ffffffffffffffffffffffffffffffffffffffff1673ffffffffffffffffffffffffffffffffffffffff168152602001908152602001600020600a01604051611076906158b9565b908152602001604051809103902060006101000a81548160ff021916908360ff1602179055506001600260003373ffffffffffffffffffffffffffffffffffffffff1673ffffffffffffffffffffffffffffffffffffffff16815260200190815260200160002060000160008282829054906101000a900460ff160192506101000a81548160ff021916908360ff1602179055506001600260003373ffffffffffffffffffffffffffffffffffffffff1673ffffffffffffffffffffffffffffffffffffffff168152602001908152602001600020600b0160405161115a906158b9565b908152602001604051809103902060006101000a81548160ff0219169083151502179055506111f1565b600260003373ffffffffffffffffffffffffffffffffffffffff1673ffffffffffffffffffffffffffffffffffffffff168152602001908152602001600020600a016040516111d2906158b9565b908152602001604051809103902060009054906101000a900460ff1690505b60008054906101000a900473ffffffffffffffffffffffffffffffffffffffff1673ffffffffffffffffffffffffffffffffffffffff166323b872dd3330856040518463ffffffff1660e01b815260040161124e939291906158e9565b602060405180830381600087803b15801561126857600080fd5b505af115801561127c573d6000803e3d6000fd5b505050506040513d601f19601f820116820180604052508101906112a091906151e3565b6112df576040517f08c379a00000000000000000000000000000000000000000000000000000000081526004016112d690615ac8565b60405180910390fd5b8160096000016000828254019250508190555081600260003373ffffffffffffffffffffffffffffffffffffffff1673ffffffffffffffffffffffffffffffffffffffff1681526020019081526020016000206002018260ff166002811061134357fe5b01600082825401925050819055506040518060400160405280600781526020017f497568436f696e00000000000000000000000000000000000000000000000000815250600260003373ffffffffffffffffffffffffffffffffffffffff1673ffffffffffffffffffffffffffffffffffffffff1681526020019081526020016000206008018260ff16600281106113d757fe5b0190805190602001906113eb929190615039565b5060646050600460009054906101000a900473ffffffffffffffffffffffffffffffffffffffff1673ffffffffffffffffffffffffffffffffffffffff166372366dbf6040518163ffffffff1660e01b815260040160206040518083038186803b15801561145857600080fd5b505afa15801561146c573d6000803e3d6000fd5b505050506040513d601f19601f820116820180604052508101906114909190615235565b3402028161149a57fe5b04600260003373ffffffffffffffffffffffffffffffffffffffff1673ffffffffffffffffffffffffffffffffffffffff168152602001908152602001600020600101600082825401925050819055506114f261316a565b6001600360003373ffffffffffffffffffffffffffffffffffffffff1673ffffffffffffffffffffffffffffffffffffffff16815260200190815260200160002060006101000a81548160ff0219169083151502179055503373ffffffffffffffffffffffffffffffffffffffff167f90890809c654f11d6e72a28fa60149770a0d11ec6c92319d6ceb2bb0a4ea1a158342604051611592929190615bdb565b60405180910390a25050565b600360003373ffffffffffffffffffffffffffffffffffffffff1673ffffffffffffffffffffffffffffffffffffffff16815260200190815260200160002060009054906101000a900460ff1661162a576040517f08c379a0000000000000000000000000000000000000000000000000000000008152600401611621906159a8565b60405180910390fd5b6000600260003373ffffffffffffffffffffffffffffffffffffffff1673ffffffffffffffffffffffffffffffffffffffff1681526020019081526020016000209050600081600a0160405161167f906158a4565b908152602001604051809103902060009054906101000a900460ff1660ff1690508260056000015410156116e8576040517f08c379a00000000000000000000000000000000000000000000000000000000081526004016116df90615a08565b60405180910390fd5b8160020181600281106116f757fe5b015483111561173b576040517f08c379a000000000000000000000000000000000000000000000000000000000815260040161173290615ae8565b60405180910390fd5b600060646050600460009054906101000a900473ffffffffffffffffffffffffffffffffffffffff1673ffffffffffffffffffffffffffffffffffffffff166398d5fdca6040518163ffffffff1660e01b815260040160206040518083038186803b1580156117a957600080fd5b505afa1580156117bd573d6000803e3d6000fd5b505050506040513d601f19601f820116820180604052508101906117e19190615235565b860202816117eb57fe5b0490508260010154811115611809576000836001018190555061181c565b8083600101600082825403925050819055505b836005600001600082825403925050819055508383600201836002811061183f57fe5b01600082825403925050819055503373ffffffffffffffffffffffffffffffffffffffff166108fc859081150290604051600060405180830381858888f19350505050158015611893573d6000803e3d6000fd5b5061189c61316a565b3373ffffffffffffffffffffffffffffffffffffffff167f884edad9ce6fa2440d8a54cc123490eb96d2768479d49ff9c7366125a9424364856040516118e29190615b28565b60405180910390a250505050565b600080600080600080600060056000015496506005600101549550600460009054906101000a900473ffffffffffffffffffffffffffffffffffffffff1673ffffffffffffffffffffffffffffffffffffffff166398d5fdca6040518163ffffffff1660e01b815260040160206040518083038186803b15801561197357600080fd5b505afa158015611987573d6000803e3d6000fd5b505050506040513d601f19601f820116820180604052508101906119ab9190615235565b600560000154029150600460009054906101000a900473ffffffffffffffffffffffffffffffffffffffff1673ffffffffffffffffffffffffffffffffffffffff166398d5fdca6040518163ffffffff1660e01b815260040160206040518083038186803b158015611a1c57600080fd5b505afa158015611a30573d6000803e3d6000fd5b505050506040513d601f19601f82011682018060405250810190611a549190615235565b6005600101540290506005600201549450600560030160009054906101000a900460ff1660ff169350600560030160019054906101000a900460ff1660ff16925090919293949596565b6000611aa86150c7565b611ab06150c7565b611ab86150e9565b600260003373ffffffffffffffffffffffffffffffffffffffff1673ffffffffffffffffffffffffffffffffffffffff16815260200190815260200160002060000160009054906101000a900460ff1660ff169350600260003373ffffffffffffffffffffffffffffffffffffffff1673ffffffffffffffffffffffffffffffffffffffff168152602001908152602001600020600601600280602002604051908101604052809291908260028015611b86576020028201915b815481526020019060010190808311611b72575b50505050509250600260003373ffffffffffffffffffffffffffffffffffffffff1673ffffffffffffffffffffffffffffffffffffffff168152602001908152602001600020600401600280602002604051908101604052809291908260028015611c06576020028201915b815481526020019060010190808311611bf2575b50505050509150600260003373ffffffffffffffffffffffffffffffffffffffff1673ffffffffffffffffffffffffffffffffffffffff168152602001908152602001600020600801600280602002604051908101604052809291906000905b82821015611d19578382018054600181600116156101000203166002900480601f016020809104026020016040519081016040528092919081815260200182805460018160011615610100020316600290048015611d055780601f10611cda57610100808354040283529160200191611d05565b820191906000526020600020905b815481529060010190602001808311611ce857829003601f168201915b505050505081526020019060010190611c66565b50505050905090919293565b600460009054906101000a900473ffffffffffffffffffffffffffffffffffffffff1673ffffffffffffffffffffffffffffffffffffffff166391b7f5ed6107d06040518263ffffffff1660e01b8152600401611d82919061598d565b600060405180830381600087803b158015611d9c57600080fd5b505af1158015611db0573d6000803e3d6000fd5b50505050611dbc61316a565b565b600460009054906101000a900473ffffffffffffffffffffffffffffffffffffffff1681565b600080600080600080600060096000015496506009600101549550600460009054906101000a900473ffffffffffffffffffffffffffffffffffffffff1673ffffffffffffffffffffffffffffffffffffffff166372366dbf6040518163ffffffff1660e01b815260040160206040518083038186803b158015611e6757600080fd5b505afa158015611e7b573d6000803e3d6000fd5b505050506040513d601f19601f82011682018060405250810190611e9f9190615235565b600960000154029150600460009054906101000a900473ffffffffffffffffffffffffffffffffffffffff1673ffffffffffffffffffffffffffffffffffffffff166372366dbf6040518163ffffffff1660e01b815260040160206040518083038186803b158015611f1057600080fd5b505afa158015611f24573d6000803e3d6000fd5b505050506040513d601f19601f82011682018060405250810190611f489190615235565b6009600101540290506009600201549450600960030160009054906101000a900460ff1660ff169350600960030160019054906101000a900460ff1660ff16925090919293949596565b662386f26fc10000341015611fdc576040517f08c379a0000000000000000000000000000000000000000000000000000000008152600401611fd3906159c8565b60405180910390fd5b6000600360003373ffffffffffffffffffffffffffffffffffffffff1673ffffffffffffffffffffffffffffffffffffffff16815260200190815260200160002060009054906101000a900460ff16612093576001339080600181540180825580915050600190039060005260206000200160009091909190916101000a81548173ffffffffffffffffffffffffffffffffffffffff021916908373ffffffffffffffffffffffffffffffffffffffff1602179055505b600260003373ffffffffffffffffffffffffffffffffffffffff1673ffffffffffffffffffffffffffffffffffffffff168152602001908152602001600020600b016040516120e1906158a4565b908152602001604051809103902060009054906101000a900460ff166122b457600260003373ffffffffffffffffffffffffffffffffffffffff1673ffffffffffffffffffffffffffffffffffffffff16815260200190815260200160002060000160009054906101000a900460ff16905080600260003373ffffffffffffffffffffffffffffffffffffffff1673ffffffffffffffffffffffffffffffffffffffff168152602001908152602001600020600a016040516121a2906158a4565b908152602001604051809103902060006101000a81548160ff021916908360ff160217905550600260003373ffffffffffffffffffffffffffffffffffffffff1673ffffffffffffffffffffffffffffffffffffffff168152602001908152602001600020600001600081819054906101000a900460ff168092919060010191906101000a81548160ff021916908360ff160217905550506001600260003373ffffffffffffffffffffffffffffffffffffffff1673ffffffffffffffffffffffffffffffffffffffff168152602001908152602001600020600b0160405161228a906158a4565b908152602001604051809103902060006101000a81548160ff021916908315150217905550612321565b600260003373ffffffffffffffffffffffffffffffffffffffff1673ffffffffffffffffffffffffffffffffffffffff168152602001908152602001600020600a01604051612302906158a4565b908152602001604051809103902060009054906101000a900460ff1690505b6000600460009054906101000a900473ffffffffffffffffffffffffffffffffffffffff1673ffffffffffffffffffffffffffffffffffffffff166398d5fdca6040518163ffffffff1660e01b815260040160206040518083038186803b15801561238b57600080fd5b505afa15801561239f573d6000803e3d6000fd5b505050506040513d601f19601f820116820180604052508101906123c39190615235565b905060003490506000600a600884840202816123db57fe5b0490508160056000016000828254019250508190555081600260003373ffffffffffffffffffffffffffffffffffffffff1673ffffffffffffffffffffffffffffffffffffffff1681526020019081526020016000206002018560ff166002811061244257fe5b01600082825401925050819055506040518060400160405280600581526020017f4574686572000000000000000000000000000000000000000000000000000000815250600260003373ffffffffffffffffffffffffffffffffffffffff1673ffffffffffffffffffffffffffffffffffffffff1681526020019081526020016000206008018560ff16600281106124d657fe5b0190805190602001906124ea929190615039565b5080600260003373ffffffffffffffffffffffffffffffffffffffff1673ffffffffffffffffffffffffffffffffffffffff1681526020019081526020016000206001016000828254019250508190555061254361316a565b6001600360003373ffffffffffffffffffffffffffffffffffffffff1673ffffffffffffffffffffffffffffffffffffffff16815260200190815260200160002060006101000a81548160ff0219169083151502179055503373ffffffffffffffffffffffffffffffffffffffff167f90890809c654f11d6e72a28fa60149770a0d11ec6c92319d6ceb2bb0a4ea1a1583426040516125e3929190615bdb565b60405180910390a250505050565b600360003373ffffffffffffffffffffffffffffffffffffffff1673ffffffffffffffffffffffffffffffffffffffff16815260200190815260200160002060009054906101000a900460ff1661267d576040517f08c379a0000000000000000000000000000000000000000000000000000000008152600401612674906159a8565b60405180910390fd5b6000600260003373ffffffffffffffffffffffffffffffffffffffff1673ffffffffffffffffffffffffffffffffffffffff1681526020019081526020016000209050600081600a016040516126d2906158b9565b908152602001604051809103902060009054906101000a900460ff1660ff16905082600960000154101561273b576040517f08c379a000000000000000000000000000000000000000000000000000000000815260040161273290615a08565b60405180910390fd5b81600201816002811061274a57fe5b015483111561278e576040517f08c379a000000000000000000000000000000000000000000000000000000000815260040161278590615a68565b60405180910390fd5b8260008054906101000a900473ffffffffffffffffffffffffffffffffffffffff1673ffffffffffffffffffffffffffffffffffffffff166370a08231306040518263ffffffff1660e01b81526004016127e891906158ce565b60206040518083038186803b15801561280057600080fd5b505afa158015612814573d6000803e3d6000fd5b505050506040513d601f19601f820116820180604052508101906128389190615235565b1015612879576040517f08c379a000000000000000000000000000000000000000000000000000000000815260040161287090615a28565b60405180910390fd5b60008054906101000a900473ffffffffffffffffffffffffffffffffffffffff1673ffffffffffffffffffffffffffffffffffffffff1663a9059cbb33856040518363ffffffff1660e01b81526004016128d4929190615949565b602060405180830381600087803b1580156128ee57600080fd5b505af1158015612902573d6000803e3d6000fd5b505050506040513d601f19601f8201168201806040525081019061292691906151e3565b612965576040517f08c379a000000000000000000000000000000000000000000000000000000000815260040161295c90615b08565b60405180910390fd5b600060646050600460009054906101000a900473ffffffffffffffffffffffffffffffffffffffff1673ffffffffffffffffffffffffffffffffffffffff166372366dbf6040518163ffffffff1660e01b815260040160206040518083038186803b1580156129d357600080fd5b505afa1580156129e7573d6000803e3d6000fd5b505050506040513d601f19601f82011682018060405250810190612a0b9190615235565b86020281612a1557fe5b0490508260010154811115612a335760008360010181905550612a46565b8083600101600082825403925050819055505b8360096000016000828254039250508190555083836002018360028110612a6957fe5b0160008282540392505081905550612a7f61316a565b3373ffffffffffffffffffffffffffffffffffffffff167f884edad9ce6fa2440d8a54cc123490eb96d2768479d49ff9c7366125a942436485604051612ac59190615b28565b60405180910390a250505050565b6000600460009054906101000a900473ffffffffffffffffffffffffffffffffffffffff1673ffffffffffffffffffffffffffffffffffffffff166372366dbf6040518163ffffffff1660e01b815260040160206040518083038186803b158015612b3d57600080fd5b505afa158015612b51573d6000803e3d6000fd5b505050506040513d601f19601f82011682018060405250810190612b759190615235565b60008054906101000a900473ffffffffffffffffffffffffffffffffffffffff1673ffffffffffffffffffffffffffffffffffffffff166370a08231306040518263ffffffff1660e01b8152600401612bce91906158ce565b60206040518083038186803b158015612be657600080fd5b505afa158015612bfa573d6000803e3d6000fd5b505050506040513d601f19601f82011682018060405250810190612c1e9190615235565b02600460009054906101000a900473ffffffffffffffffffffffffffffffffffffffff1673ffffffffffffffffffffffffffffffffffffffff166398d5fdca6040518163ffffffff1660e01b815260040160206040518083038186803b158015612c8757600080fd5b505afa158015612c9b573d6000803e3d6000fd5b505050506040513d601f19601f82011682018060405250810190612cbf9190615235565b470201905090565b60011515600260003373ffffffffffffffffffffffffffffffffffffffff1673ffffffffffffffffffffffffffffffffffffffff168152602001908152602001600020600c01604051612d19906158b9565b908152602001604051809103902060009054906101000a900460ff16151514612d77576040517f08c379a0000000000000000000000000000000000000000000000000000000008152600401612d6e90615a88565b60405180910390fd5b6000600460009054906101000a900473ffffffffffffffffffffffffffffffffffffffff1673ffffffffffffffffffffffffffffffffffffffff166372366dbf6040518163ffffffff1660e01b815260040160206040518083038186803b158015612de157600080fd5b505afa158015612df5573d6000803e3d6000fd5b505050506040513d601f19601f82011682018060405250810190612e199190615235565b90506000600260003373ffffffffffffffffffffffffffffffffffffffff1673ffffffffffffffffffffffffffffffffffffffff168152602001908152602001600020600a01604051612e6b906158b9565b908152602001604051809103902060009054906101000a900460ff1660ff169050600082840290506000600260003373ffffffffffffffffffffffffffffffffffffffff1673ffffffffffffffffffffffffffffffffffffffff1681526020019081526020016000206004018360028110612ee257fe5b01549050600260003373ffffffffffffffffffffffffffffffffffffffff1673ffffffffffffffffffffffffffffffffffffffff1681526020019081526020016000206006018360028110612f3357fe5b01548214612f76576040517f08c379a0000000000000000000000000000000000000000000000000000000008152600401612f6d90615aa8565b60405180910390fd5b6000600260003373ffffffffffffffffffffffffffffffffffffffff1673ffffffffffffffffffffffffffffffffffffffff1681526020019081526020016000206006018460028110612fc557fe5b0181905550606460508583020281612fd957fe5b04600260003373ffffffffffffffffffffffffffffffffffffffff1673ffffffffffffffffffffffffffffffffffffffff168152602001908152602001600020600101600082825401925050819055506000600260003373ffffffffffffffffffffffffffffffffffffffff1673ffffffffffffffffffffffffffffffffffffffff168152602001908152602001600020600401846002811061307857fe5b01819055506000600260003373ffffffffffffffffffffffffffffffffffffffff1673ffffffffffffffffffffffffffffffffffffffff168152602001908152602001600020600c016040516130cd906158b9565b908152602001604051809103902060006101000a81548160ff021916908315150217905550806009600001600082825401925050819055508060096001016000828254039250508190555061312061316a565b3373ffffffffffffffffffffffffffffffffffffffff167f5f9ec7a6c98280524f8d172d79eecf9e9660ad36b52d1836dd45dd81a342bd1360405160405180910390a25050505050565b6000600460009054906101000a900473ffffffffffffffffffffffffffffffffffffffff1673ffffffffffffffffffffffffffffffffffffffff166398d5fdca6040518163ffffffff1660e01b815260040160206040518083038186803b1580156131d457600080fd5b505afa1580156131e8573d6000803e3d6000fd5b505050506040513d601f19601f8201168201806040525081019061320c9190615235565b90506000600460009054906101000a900473ffffffffffffffffffffffffffffffffffffffff1673ffffffffffffffffffffffffffffffffffffffff166372366dbf6040518163ffffffff1660e01b815260040160206040518083038186803b15801561327857600080fd5b505afa15801561328c573d6000803e3d6000fd5b505050506040513d601f19601f820116820180604052508101906132b09190615235565b905060005b6001805490508160ff16101561486c5760006002600060018460ff16815481106132db57fe5b9060005260206000200160009054906101000a900473ffffffffffffffffffffffffffffffffffffffff1673ffffffffffffffffffffffffffffffffffffffff1673ffffffffffffffffffffffffffffffffffffffff168152602001908152602001600020600101541161383a576002600060018360ff168154811061335d57fe5b9060005260206000200160009054906101000a900473ffffffffffffffffffffffffffffffffffffffff1673ffffffffffffffffffffffffffffffffffffffff1673ffffffffffffffffffffffffffffffffffffffff168152602001908152602001600020600c016040516133d1906158a4565b908152602001604051809103902060009054906101000a900460ff16156135535760006002600060018460ff168154811061340857fe5b9060005260206000200160009054906101000a900473ffffffffffffffffffffffffffffffffffffffff1673ffffffffffffffffffffffffffffffffffffffff1673ffffffffffffffffffffffffffffffffffffffff168152602001908152602001600020600a0160405161347c906158a4565b908152602001604051809103902060009054906101000a900460ff16905060006002600060018560ff16815481106134b057fe5b9060005260206000200160009054906101000a900473ffffffffffffffffffffffffffffffffffffffff1673ffffffffffffffffffffffffffffffffffffffff1673ffffffffffffffffffffffffffffffffffffffff1681526020019081526020016000206004018260ff166002811061352657fe5b01549050806005600001600082825401925050819055508060056001016000828254039250508190555050505b6002600060018360ff168154811061356757fe5b9060005260206000200160009054906101000a900473ffffffffffffffffffffffffffffffffffffffff1673ffffffffffffffffffffffffffffffffffffffff1673ffffffffffffffffffffffffffffffffffffffff168152602001908152602001600020600c016040516135db906158b9565b908152602001604051809103902060009054906101000a900460ff161561375d5760006002600060018460ff168154811061361257fe5b9060005260206000200160009054906101000a900473ffffffffffffffffffffffffffffffffffffffff1673ffffffffffffffffffffffffffffffffffffffff1673ffffffffffffffffffffffffffffffffffffffff168152602001908152602001600020600a01604051613686906158b9565b908152602001604051809103902060009054906101000a900460ff16905060006002600060018560ff16815481106136ba57fe5b9060005260206000200160009054906101000a900473ffffffffffffffffffffffffffffffffffffffff1673ffffffffffffffffffffffffffffffffffffffff1673ffffffffffffffffffffffffffffffffffffffff1681526020019081526020016000206004018260ff166002811061373057fe5b01549050806009600001600082825401925050819055508060096001016000828254039250508190555050505b6002600060018360ff168154811061377157fe5b9060005260206000200160009054906101000a900473ffffffffffffffffffffffffffffffffffffffff1673ffffffffffffffffffffffffffffffffffffffff1673ffffffffffffffffffffffffffffffffffffffff168152602001908152602001600020600080820160006101000a81549060ff021916905560018201600090556002820160006138039190615110565b6004820160006138139190615110565b6006820160006138239190615110565b600882016000613833919061511e565b505061485f565b60005b6002600060018460ff168154811061385157fe5b9060005260206000200160009054906101000a900473ffffffffffffffffffffffffffffffffffffffff1673ffffffffffffffffffffffffffffffffffffffff1673ffffffffffffffffffffffffffffffffffffffff16815260200190815260200160002060000160009054906101000a900460ff1660ff16811015613cc35760006103e8601460ff166002600060018760ff16815481106138ef57fe5b9060005260206000200160009054906101000a900473ffffffffffffffffffffffffffffffffffffffff1673ffffffffffffffffffffffffffffffffffffffff1673ffffffffffffffffffffffffffffffffffffffff168152602001908152602001600020600201846002811061396257fe5b0154028161396c57fe5b049050806002600060018660ff168154811061398457fe5b9060005260206000200160009054906101000a900473ffffffffffffffffffffffffffffffffffffffff1673ffffffffffffffffffffffffffffffffffffffff1673ffffffffffffffffffffffffffffffffffffffff16815260200190815260200160002060020183600281106139f757fe5b016000828254019250508190555060006002600060018660ff1681548110613a1b57fe5b9060005260206000200160009054906101000a900473ffffffffffffffffffffffffffffffffffffffff1673ffffffffffffffffffffffffffffffffffffffff1673ffffffffffffffffffffffffffffffffffffffff1681526020019081526020016000206008018360028110613a8e57fe5b018054600181600116156101000203166002900480601f016020809104026020016040519081016040528092919081815260200182805460018160011615610100020316600290048015613b235780601f10613af857610100808354040283529160200191613b23565b820191906000526020600020905b815481529060010190602001808311613b0657829003601f168201915b50505050509050604051602001613b39906158a4565b6040516020818303038152906040528051906020012081604051602001613b60919061588d565b604051602081830303815290604052805190602001201415613c1a57606460508784020281613b8b57fe5b046002600060018760ff1681548110613ba057fe5b9060005260206000200160009054906101000a900473ffffffffffffffffffffffffffffffffffffffff1673ffffffffffffffffffffffffffffffffffffffff1673ffffffffffffffffffffffffffffffffffffffff16815260200190815260200160002060010160008282540192505081905550613cb4565b606460508684020281613c2957fe5b046002600060018760ff1681548110613c3e57fe5b9060005260206000200160009054906101000a900473ffffffffffffffffffffffffffffffffffffffff1673ffffffffffffffffffffffffffffffffffffffff1673ffffffffffffffffffffffffffffffffffffffff168152602001908152602001600020600101600082825401925050819055505b5050808060010191505061383d565b5060006002600060018460ff1681548110613cda57fe5b9060005260206000200160009054906101000a900473ffffffffffffffffffffffffffffffffffffffff1673ffffffffffffffffffffffffffffffffffffffff1673ffffffffffffffffffffffffffffffffffffffff168152602001908152602001600020600c01604051613d4e906158a4565b908152602001604051809103902060009054906101000a900460ff168015613e1657506002600060018460ff1681548110613d8557fe5b9060005260206000200160009054906101000a900473ffffffffffffffffffffffffffffffffffffffff1673ffffffffffffffffffffffffffffffffffffffff1673ffffffffffffffffffffffffffffffffffffffff168152602001908152602001600020600c01604051613df9906158b9565b908152602001604051809103902060009054906101000a900460ff165b156140935760006103e8601560ff166002600060018760ff1681548110613e3957fe5b9060005260206000200160009054906101000a900473ffffffffffffffffffffffffffffffffffffffff1673ffffffffffffffffffffffffffffffffffffffff1673ffffffffffffffffffffffffffffffffffffffff168152602001908152602001600020600601600060028110613ead57fe5b01540281613eb757fe5b04905060006103e8601560ff166002600060018860ff1681548110613ed857fe5b9060005260206000200160009054906101000a900473ffffffffffffffffffffffffffffffffffffffff1673ffffffffffffffffffffffffffffffffffffffff1673ffffffffffffffffffffffffffffffffffffffff168152602001908152602001600020600601600160028110613f4c57fe5b01540281613f5657fe5b049050816002600060018760ff1681548110613f6e57fe5b9060005260206000200160009054906101000a900473ffffffffffffffffffffffffffffffffffffffff1673ffffffffffffffffffffffffffffffffffffffff1673ffffffffffffffffffffffffffffffffffffffff168152602001908152602001600020600601600060028110613fe257fe5b0160008282540192505081905550806002600060018760ff168154811061400557fe5b9060005260206000200160009054906101000a900473ffffffffffffffffffffffffffffffffffffffff1673ffffffffffffffffffffffffffffffffffffffff1673ffffffffffffffffffffffffffffffffffffffff16815260200190815260200160002060060160016002811061407957fe5b016000828254019250508190555080820192505050614262565b6103e8601560ff166002600060018660ff16815481106140af57fe5b9060005260206000200160009054906101000a900473ffffffffffffffffffffffffffffffffffffffff1673ffffffffffffffffffffffffffffffffffffffff1673ffffffffffffffffffffffffffffffffffffffff16815260200190815260200160002060060160006002811061412357fe5b0154028161412d57fe5b046002600060018560ff168154811061414257fe5b9060005260206000200160009054906101000a900473ffffffffffffffffffffffffffffffffffffffff1673ffffffffffffffffffffffffffffffffffffffff1673ffffffffffffffffffffffffffffffffffffffff1681526020019081526020016000206006016000600281106141b657fe5b01600082825401925050819055506103e8601560ff166002600060018660ff16815481106141e057fe5b9060005260206000200160009054906101000a900473ffffffffffffffffffffffffffffffffffffffff1673ffffffffffffffffffffffffffffffffffffffff1673ffffffffffffffffffffffffffffffffffffffff16815260200190815260200160002060060160006002811061425457fe5b0154028161425e57fe5b0490505b806002600060018560ff168154811061427757fe5b9060005260206000200160009054906101000a900473ffffffffffffffffffffffffffffffffffffffff1673ffffffffffffffffffffffffffffffffffffffff1673ffffffffffffffffffffffffffffffffffffffff1681526020019081526020016000206001016000828254039250508190555060006002600060018560ff168154811061430257fe5b9060005260206000200160009054906101000a900473ffffffffffffffffffffffffffffffffffffffff1673ffffffffffffffffffffffffffffffffffffffff1673ffffffffffffffffffffffffffffffffffffffff168152602001908152602001600020600101541161485d576002600060018460ff168154811061438457fe5b9060005260206000200160009054906101000a900473ffffffffffffffffffffffffffffffffffffffff1673ffffffffffffffffffffffffffffffffffffffff1673ffffffffffffffffffffffffffffffffffffffff168152602001908152602001600020600c016040516143f8906158a4565b908152602001604051809103902060009054906101000a900460ff161561457a5760006002600060018560ff168154811061442f57fe5b9060005260206000200160009054906101000a900473ffffffffffffffffffffffffffffffffffffffff1673ffffffffffffffffffffffffffffffffffffffff1673ffffffffffffffffffffffffffffffffffffffff168152602001908152602001600020600a016040516144a3906158a4565b908152602001604051809103902060009054906101000a900460ff16905060006002600060018660ff16815481106144d757fe5b9060005260206000200160009054906101000a900473ffffffffffffffffffffffffffffffffffffffff1673ffffffffffffffffffffffffffffffffffffffff1673ffffffffffffffffffffffffffffffffffffffff1681526020019081526020016000206004018260ff166002811061454d57fe5b01549050806005600001600082825401925050819055508060056001016000828254039250508190555050505b6002600060018460ff168154811061458e57fe5b9060005260206000200160009054906101000a900473ffffffffffffffffffffffffffffffffffffffff1673ffffffffffffffffffffffffffffffffffffffff1673ffffffffffffffffffffffffffffffffffffffff168152602001908152602001600020600c01604051614602906158b9565b908152602001604051809103902060009054906101000a900460ff16156147845760006002600060018560ff168154811061463957fe5b9060005260206000200160009054906101000a900473ffffffffffffffffffffffffffffffffffffffff1673ffffffffffffffffffffffffffffffffffffffff1673ffffffffffffffffffffffffffffffffffffffff168152602001908152602001600020600a016040516146ad906158b9565b908152602001604051809103902060009054906101000a900460ff16905060006002600060018660ff16815481106146e157fe5b9060005260206000200160009054906101000a900473ffffffffffffffffffffffffffffffffffffffff1673ffffffffffffffffffffffffffffffffffffffff1673ffffffffffffffffffffffffffffffffffffffff1681526020019081526020016000206004018260ff166002811061475757fe5b01549050806009600001600082825401925050819055508060096001016000828254039250508190555050505b6002600060018460ff168154811061479857fe5b9060005260206000200160009054906101000a900473ffffffffffffffffffffffffffffffffffffffff1673ffffffffffffffffffffffffffffffffffffffff1673ffffffffffffffffffffffffffffffffffffffff168152602001908152602001600020600080820160006101000a81549060ff0219169055600182016000905560028201600061482a9190615110565b60048201600061483a9190615110565b60068201600061484a9190615110565b60088201600061485a919061511e565b50505b505b80806001019150506132b5565b505050565b600061487b6150c7565b60006148856150e9565b600260003373ffffffffffffffffffffffffffffffffffffffff1673ffffffffffffffffffffffffffffffffffffffff16815260200190815260200160002060000160009054906101000a900460ff1660ff169350600260003373ffffffffffffffffffffffffffffffffffffffff1673ffffffffffffffffffffffffffffffffffffffff168152602001908152602001600020600201600280602002604051908101604052809291908260028015614953576020028201915b81548152602001906001019080831161493f575b50505050509250600260003373ffffffffffffffffffffffffffffffffffffffff1673ffffffffffffffffffffffffffffffffffffffff168152602001908152602001600020600101549150600260003373ffffffffffffffffffffffffffffffffffffffff1673ffffffffffffffffffffffffffffffffffffffff168152602001908152602001600020600801600280602002604051908101604052809291906000905b82821015614aab578382018054600181600116156101000203166002900480601f016020809104026020016040519081016040528092919081815260200182805460018160011615610100020316600290048015614a975780601f10614a6c57610100808354040283529160200191614a97565b820191906000526020600020905b815481529060010190602001808311614a7a57829003601f168201915b5050505050815260200190600101906149f8565b50505050905090919293565b600360003373ffffffffffffffffffffffffffffffffffffffff1673ffffffffffffffffffffffffffffffffffffffff16815260200190815260200160002060009054906101000a900460ff16614b43576040517f08c379a0000000000000000000000000000000000000000000000000000000008152600401614b3a906159a8565b60405180910390fd5b6000600260003373ffffffffffffffffffffffffffffffffffffffff1673ffffffffffffffffffffffffffffffffffffffff168152602001908152602001600020600a01604051614b93906158a4565b908152602001604051809103902060009054906101000a900460ff1660ff1690506000600460009054906101000a900473ffffffffffffffffffffffffffffffffffffffff1673ffffffffffffffffffffffffffffffffffffffff166398d5fdca6040518163ffffffff1660e01b815260040160206040518083038186803b158015614c1e57600080fd5b505afa158015614c32573d6000803e3d6000fd5b505050506040513d601f19601f82011682018060405250810190614c569190615235565b9050670de0b6b3a764000083029250826005600001541015614cad576040517f08c379a0000000000000000000000000000000000000000000000000000000008152600401614ca4906159e8565b60405180910390fd5b808302925082600260003373ffffffffffffffffffffffffffffffffffffffff1673ffffffffffffffffffffffffffffffffffffffff168152602001908152602001600020600101541015614d37576040517f08c379a0000000000000000000000000000000000000000000000000000000008152600401614d2e90615a48565b60405180910390fd5b82600260003373ffffffffffffffffffffffffffffffffffffffff1673ffffffffffffffffffffffffffffffffffffffff1681526020019081526020016000206001016000828254039250508190555082600260003373ffffffffffffffffffffffffffffffffffffffff1673ffffffffffffffffffffffffffffffffffffffff1681526020019081526020016000206006018360028110614dd557fe5b01600082825401925050819055508060506064850281614df157fe5b0481614df957fe5b04600260003373ffffffffffffffffffffffffffffffffffffffff1673ffffffffffffffffffffffffffffffffffffffff1681526020019081526020016000206004018360028110614e4757fe5b01600082825401925050819055508060506064850281614e6357fe5b0481614e6b57fe5b04600260003373ffffffffffffffffffffffffffffffffffffffff1673ffffffffffffffffffffffffffffffffffffffff1681526020019081526020016000206002018360028110614eb957fe5b01600082825403925050819055506001600260003373ffffffffffffffffffffffffffffffffffffffff1673ffffffffffffffffffffffffffffffffffffffff168152602001908152602001600020600c01604051614f17906158a4565b908152602001604051809103902060006101000a81548160ff0219169083151502179055508060506064850281614f4a57fe5b0481614f5257fe5b046005600001600082825403925050819055508060506064850281614f7357fe5b0481614f7b57fe5b046005600101600082825401925050819055503373ffffffffffffffffffffffffffffffffffffffff166108fc828581614fb157fe5b049081150290604051600060405180830381858888f19350505050158015614fdd573d6000803e3d6000fd5b50614fe661316a565b3373ffffffffffffffffffffffffffffffffffffffff167f03951a10935c21c2aac3ad2e2caebf2ccd972c3db450d4bfa44c9dd359862f898460405161502c9190615b28565b60405180910390a2505050565b828054600181600116156101000203166002900490600052602060002090601f01602090048101928261506f57600085556150b6565b82601f1061508857805160ff19168380011785556150b6565b828001600101855582156150b6579182015b828111156150b557825182559160200191906001019061509a565b5b5090506150c3919061513f565b5090565b6040518060400160405280600290602082028036833780820191505090505090565b60405180604001604052806002905b60608152602001906001900390816150f85790505090565b506000815560010160009055565b506000818161512d919061515c565b50600101600061513d919061515c565b565b5b80821115615158576000816000905550600101615140565b5090565b50805460018160011615610100020316600290046000825580601f1061518257506151a1565b601f0160209004906000526020600020908101906151a0919061513f565b5b50565b6000815190506151b381615e0f565b92915050565b6000813590506151c881615e26565b92915050565b6000815190506151dd81615e26565b92915050565b6000602082840312156151f557600080fd5b6000615203848285016151a4565b91505092915050565b60006020828403121561521e57600080fd5b600061522c848285016151b9565b91505092915050565b60006020828403121561524757600080fd5b6000615255848285016151ce565b91505092915050565b600061526a83836153a1565b905092915050565b600061527e838361586f565b60208301905092915050565b61529381615d4d565b82525050565b6152a281615d05565b82525050565b60006152b382615c87565b6152bd8185615cc2565b9350836020820285016152cf85615c73565b8060005b8581101561530b57848403895281516152ec858261525e565b94506152f783615ca8565b925060208a019950506001810190506152d3565b50829750879550505050505092915050565b61532681615c92565b6153308184615ccd565b925061533b82615c7d565b8060005b8381101561536c5781516153538782615272565b965061535e83615cb5565b92505060018101905061533f565b505050505050565b61537d81615d5f565b82525050565b61538c81615d83565b82525050565b61539b81615d95565b82525050565b60006153ac82615c9d565b6153b68185615cd8565b93506153c6818560208601615dcb565b6153cf81615dfe565b840191505092915050565b60006153e582615c9d565b6153ef8185615cfa565b93506153ff818560208601615dcb565b80840191505092915050565b6000615418601483615ce9565b91507f596f75206172656e2774206465706f7369746f720000000000000000000000006000830152602082019050919050565b6000615458602283615ce9565b91507f4572726f722c206465706f736974206d757374206265203e3d20302e3031204560008301527f54480000000000000000000000000000000000000000000000000000000000006020830152604082019050919050565b60006154be602483615ce9565b91507f506f6f6c206973206e6f7420656e6f75676820746f6b656e20746f206c656e6460008301527f20796f75000000000000000000000000000000000000000000000000000000006020830152604082019050919050565b6000615524602583615ce9565b91507f4e6f77206c697175696469747920646f6e2774206861766520656e6f7567682060008301527f746f6b656e0000000000000000000000000000000000000000000000000000006020830152604082019050919050565b600061558a602283615ce9565b91507f536d61727420636f6e74726163742062616c616e6365206e6f7420656e6f756760008301527f682e0000000000000000000000000000000000000000000000000000000000006020830152604082019050919050565b60006155f0602a83615ce9565b91507f596f7520646f6e2774206861766520656e6f75676820636f6c6c61746572616c60008301527f20746f20626f72726f77000000000000000000000000000000000000000000006020830152604082019050919050565b6000615656601b83615ce9565b91507f596f7520646f6e2774206861766520656e6f75676820746f6b656e00000000006000830152602082019050919050565b6000615696601683615ce9565b91507f4572726f722c206c6f616e206e6f7420616374697665000000000000000000006000830152602082019050919050565b60006156d6600583615cfa565b91507f45746865720000000000000000000000000000000000000000000000000000006000830152600582019050919050565b6000615716600c83615ce9565b91507f446f6e277420656e6f75676800000000000000000000000000000000000000006000830152602082019050919050565b6000615756600d83615ce9565b91507f7472616e73666572206661696c000000000000000000000000000000000000006000830152602082019050919050565b6000615796602983615ce9565b91507f596f7520646f6e2774206861766520656e6f6f75676820746f6b656e20746f2060008301527f77696474686472617700000000000000000000000000000000000000000000006020830152604082019050919050565b60006157fc601683615ce9565b91507f546f6b656e207472616e73666572206661696c65642e000000000000000000006000830152602082019050919050565b600061583c600783615cfa565b91507f497568436f696e000000000000000000000000000000000000000000000000006000830152600782019050919050565b61587881615d43565b82525050565b61588781615d43565b82525050565b600061589982846153da565b915081905092915050565b60006158af826156c9565b9150819050919050565b60006158c48261582f565b9150819050919050565b60006020820190506158e36000830184615299565b92915050565b60006060820190506158fe600083018661528a565b61590b6020830185615299565b615918604083018461587e565b949350505050565b6000604082019050615935600083018561528a565b6159426020830184615383565b9392505050565b600060408201905061595e600083018561528a565b61596b602083018461587e565b9392505050565b60006020820190506159876000830184615374565b92915050565b60006020820190506159a26000830184615392565b92915050565b600060208201905081810360008301526159c18161540b565b9050919050565b600060208201905081810360008301526159e18161544b565b9050919050565b60006020820190508181036000830152615a01816154b1565b9050919050565b60006020820190508181036000830152615a2181615517565b9050919050565b60006020820190508181036000830152615a418161557d565b9050919050565b60006020820190508181036000830152615a61816155e3565b9050919050565b60006020820190508181036000830152615a8181615649565b9050919050565b60006020820190508181036000830152615aa181615689565b9050919050565b60006020820190508181036000830152615ac181615709565b9050919050565b60006020820190508181036000830152615ae181615749565b9050919050565b60006020820190508181036000830152615b0181615789565b9050919050565b60006020820190508181036000830152615b21816157ef565b9050919050565b6000602082019050615b3d600083018461587e565b92915050565b600060c082019050615b58600083018761587e565b615b65602083018661531d565b615b72606083018561531d565b81810360a0830152615b8481846152a8565b905095945050505050565b600060a082019050615ba4600083018761587e565b615bb1602083018661531d565b615bbe606083018561587e565b8181036080830152615bd081846152a8565b905095945050505050565b6000604082019050615bf0600083018561587e565b615bfd602083018461587e565b9392505050565b600060e082019050615c19600083018a61587e565b615c26602083018961587e565b615c33604083018861587e565b615c40606083018761587e565b615c4d608083018661587e565b615c5a60a083018561587e565b615c6760c083018461587e565b98975050505050505050565b6000819050919050565b6000819050919050565b600060029050919050565b600060029050919050565b600081519050919050565b6000602082019050919050565b6000602082019050919050565b600081905092915050565b600081905092915050565b600082825260208201905092915050565b600082825260208201905092915050565b600081905092915050565b6000615d1082615d23565b9050919050565b60008115159050919050565b600073ffffffffffffffffffffffffffffffffffffffff82169050919050565b6000819050919050565b6000615d5882615da7565b9050919050565b6000615d6a82615d71565b9050919050565b6000615d7c82615d23565b9050919050565b6000615d8e82615d43565b9050919050565b6000615da082615d43565b9050919050565b6000615db282615db9565b9050919050565b6000615dc482615d23565b9050919050565b60005b83811015615de9578082015181840152602081019050615dce565b83811115615df8576000848401525b50505050565b6000601f19601f8301169050919050565b615e1881615d17565b8114615e2357600080fd5b50565b615e2f81615d43565b8114615e3a57600080fd5b5056fea26469706673582212209d830b895275a73fd99bb41f510c44a9865cc7391c714e064986dab3f42daf1464736f6c63430007060033",
  "immutableReferences": {},
  "source": "// SPDX-License-Identifier: MIT\r\npragma solidity >=0.6.0 <0.8.0;\r\npragma experimental ABIEncoderV2;\r\nimport \"./oracle.sol\";\r\nimport \"./IuhCoin.sol\";\r\n\r\ncontract iuhBank {\r\n  iuhCoin private iuhcoin;\r\n  uint8 constant exchangeLendRate = 20;\r\n  uint8 constant exchangeBorrowRate = 21;\r\n    struct pool{\r\n      uint totalAmount;\r\n      uint borrowAmount;\r\n      uint price;\r\n      uint8 lendRate;\r\n      uint8 borrowRate;\r\n    }\r\n    struct UserInfo{\r\n      uint8 index;\r\n      uint Collateral;\r\n      uint[2] LendAmount;\r\n      uint[2] frezeAmount;\r\n      uint[2] Borrow;\r\n      string[2] tokenName;\r\n      mapping(string => uint8) token;\r\n      mapping(string => bool) isToken;\r\n      mapping(string => bool) isBorrowed;\r\n    }\r\n    address[] userAddress;\r\n    mapping(address => UserInfo) user;\r\n    mapping(address => bool) isDeposited;\r\n   \r\n    Oracle public oracle;\r\n     \r\n    constructor(Oracle _oracle, iuhCoin _iuhcoin) public{\r\n      oracle = _oracle;\r\n      iuhcoin = _iuhcoin;\r\n      EtherToken.price = oracle.getPrice();\r\n      IuhToken.price = oracle.getIuhPrice();\r\n    }\r\n    pool EtherToken = pool({\r\n          totalAmount:0 ,\r\n          borrowAmount: 0 ,\r\n          price: 0,\r\n          lendRate: 20,\r\n          borrowRate: 21});\r\n      pool IuhToken = pool({\r\n          totalAmount:0 ,\r\n          borrowAmount: 0 ,\r\n          price: 0,\r\n          lendRate: 20,\r\n          borrowRate: 21});\r\n    \r\n    event Deposit(address indexed user, uint etherAmount, uint timeStart);\r\n    event Withdraw(address indexed user, uint etherAmount);\r\n    event Borrowing(address indexed user, uint amount);\r\n    event Repay(address indexed user);\r\n\r\n    modifier depositor{\r\n      require(isDeposited[msg.sender],\"You aren't depositor\");\r\n      _;\r\n    }\r\n\r\n    function depositEther()  payable public {\r\n    require(msg.value>=1e16, 'Error, deposit must be >= 0.01 ETH');\r\n    uint8 index;\r\n\r\n    if (!isDeposited[msg.sender]) {\r\n        userAddress.push(msg.sender);\r\n    }\r\n\r\n    if (!user[msg.sender].isToken[\"Ether\"]) {\r\n        index = user[msg.sender].index;\r\n        user[msg.sender].token[\"Ether\"] = index;\r\n        user[msg.sender].index++;\r\n        user[msg.sender].isToken[\"Ether\"] = true;\r\n    } else {\r\n        index = user[msg.sender].token[\"Ether\"];\r\n    }\r\n    uint price = oracle.getPrice();\r\n    uint value = msg.value;\r\n    uint collateral = (value * price * 8) / 10;\r\n    EtherToken.totalAmount += value;\r\n    user[msg.sender].LendAmount[index] += value;\r\n    user[msg.sender].tokenName[index] = \"Ether\";\r\n    user[msg.sender].Collateral += collateral;\r\n    updateRate();\r\n    isDeposited[msg.sender] = true;\r\n\r\n    emit Deposit(msg.sender, value, block.timestamp);\r\n  }\r\n  function depositIuhCoin( uint amount)  payable public {\r\n    amount = amount * 10 **18;\r\n    require(amount>=1e16, 'Error, deposit must be >= 0.01 ETH');\r\n    uint8 index;\r\n    if(!isDeposited[msg.sender]){\r\n      userAddress.push(msg.sender);\r\n    }\r\n    if(!user[msg.sender].isToken[\"IuhCoin\"]){\r\n      index = user[msg.sender].index;\r\n      user[msg.sender].token[\"IuhCoin\"] = index;\r\n      user[msg.sender].index +=1;\r\n      user[msg.sender].isToken[\"IuhCoin\"] =true;\r\n    }else{\r\n        index =user[msg.sender].token[\"IuhCoin\"];\r\n    }\r\n      \r\n    require(iuhcoin.transferFrom(msg.sender,address(this),amount), \"transfer fail\");\r\n    IuhToken.totalAmount += amount;\r\n    user[msg.sender].LendAmount[index] += amount;\r\n    user[msg.sender].tokenName[index] = \"IuhCoin\";\r\n    user[msg.sender].Collateral += (msg.value * oracle.getIuhPrice() * 80 ) / 100;\r\n    updateRate();\r\n    isDeposited[msg.sender] = true;\r\n    emit Deposit(msg.sender, amount, block.timestamp);\r\n  }\r\n  function updateRate() public {\r\n    uint etherPrice = oracle.getPrice();\r\n    uint iuhCoinPrice = oracle.getIuhPrice();\r\n    for (uint8 i = 0; i < userAddress.length ; i++) \r\n    {\r\n      if(user[userAddress[i]].Collateral <= 0){\r\n        if(user[userAddress[i]].isBorrowed[\"Ether\"]){ \r\n        uint8 etherIndex = user[userAddress[i]].token[\"Ether\"];\r\n        uint freze =  user[userAddress[i]].frezeAmount[etherIndex];\r\n        EtherToken.totalAmount += freze;\r\n        EtherToken.borrowAmount -= freze;\r\n        }\r\n        \r\n        if(user[userAddress[i]].isBorrowed[\"IuhCoin\"]){ \r\n        uint8 iuhIndex = user[userAddress[i]].token[\"IuhCoin\"];\r\n        uint freze =  user[userAddress[i]].frezeAmount[iuhIndex];\r\n        IuhToken.totalAmount += freze;\r\n        IuhToken.borrowAmount -= freze;  \r\n        }\r\n        delete user[userAddress[i]];\r\n        }else{\r\n      for(uint j = 0; j < user[userAddress[i]].index ;j++){\r\n        uint value1 =((user[userAddress[i]].LendAmount[j] * exchangeLendRate) / 1000);\r\n        user[userAddress[i]].LendAmount[j] += value1;\r\n        string memory tokenName = user[userAddress[i]].tokenName[j];\r\n        if (keccak256(abi.encodePacked(tokenName)) == keccak256(abi.encodePacked(\"Ether\"))) {\r\n          user[userAddress[i]].Collateral += (value1 * etherPrice * 80 ) / 100;\r\n        } else{\r\n          user[userAddress[i]].Collateral += (value1 * iuhCoinPrice * 80 ) / 100;\r\n        }\r\n      }\r\n      uint addBorrow = 0;\r\n      if(user[userAddress[i]].isBorrowed[\"Ether\"] && user[userAddress[i]].isBorrowed[\"IuhCoin\"]  ){\r\n        uint value1 = ((user[userAddress[i]].Borrow[0] * exchangeBorrowRate) / 1000);\r\n        uint value2 = ((user[userAddress[i]].Borrow[1] * exchangeBorrowRate) / 1000);\r\n        user[userAddress[i]].Borrow[0] += value1;\r\n        user[userAddress[i]].Borrow[1] += value2;\r\n        addBorrow = value1 + value2;\r\n      }else{\r\n        user[userAddress[i]].Borrow[0] +=((user[userAddress[i]].Borrow[0] * exchangeBorrowRate) / 1000);\r\n        addBorrow = ((user[userAddress[i]].Borrow[0] * exchangeBorrowRate) / 1000);\r\n      }\r\n      user[userAddress[i]].Collateral -= addBorrow;\r\n      if(user[userAddress[i]].Collateral <= 0){\r\n        if(user[userAddress[i]].isBorrowed[\"Ether\"]){ \r\n        uint8 etherIndex = user[userAddress[i]].token[\"Ether\"];\r\n        uint freze =  user[userAddress[i]].frezeAmount[etherIndex];\r\n        EtherToken.totalAmount += freze;\r\n        EtherToken.borrowAmount -= freze;\r\n        }\r\n        \r\n        if(user[userAddress[i]].isBorrowed[\"IuhCoin\"]){ \r\n        uint8 iuhIndex = user[userAddress[i]].token[\"IuhCoin\"];\r\n        uint freze =  user[userAddress[i]].frezeAmount[iuhIndex];\r\n        IuhToken.totalAmount += freze;\r\n        IuhToken.borrowAmount -= freze;  \r\n        }\r\n        delete user[userAddress[i]];\r\n        }\r\n    }}\r\n  }\r\n    function withdrawEther(uint amount) depositor public {\r\n    // thc hin rt\r\n    UserInfo storage user = user[msg.sender];\r\n    uint index = user.token[\"Ether\"]; \r\n    require(EtherToken.totalAmount >= amount, \"Now liquidity don't have enough token\");\r\n    require(amount <= user.LendAmount[index], \"You don't have enoough token to widthdraw\");\r\n    uint widthdraw = (amount * oracle.getPrice() * 80 ) / 100;\r\n    if( widthdraw > user.Collateral){\r\n        user.Collateral = 0;\r\n    }else{\r\n        user.Collateral -= widthdraw;\r\n    }\r\n    //ci t trng thi pool\r\n    EtherToken.totalAmount -= amount;\r\n    user.LendAmount[index] -= amount;\r\n    msg.sender.transfer(amount);\r\n    updateRate();\r\n    emit Withdraw(msg.sender, amount);\r\n  }\r\n  function withdrawIuh(uint amount) depositor  public {\r\n    UserInfo storage user = user[msg.sender];\r\n    // thc hin rt\r\n    uint index = user.token[\"IuhCoin\"]; \r\n    require(IuhToken.totalAmount >= amount,\"Now liquidity don't have enough token\");\r\n    require(amount <= user.LendAmount[index], \"You don't have enough token\");\r\n\r\n    require(iuhcoin.balanceOf(address(this)) >= amount, \"Smart contract balance not enough.\");\r\n\r\n    require(iuhcoin.transfer(msg.sender, amount), \"Token transfer failed.\");\r\n\r\n    uint widthdraw = (amount * oracle.getIuhPrice() * 80 ) / 100;\r\n    if( widthdraw > user.Collateral){\r\n        user.Collateral = 0;\r\n    }else{\r\n        user.Collateral -= widthdraw;\r\n    }\r\n    IuhToken.totalAmount -= amount;\r\n    user.LendAmount[index] -= amount;\r\n    updateRate();\r\n    emit Withdraw(msg.sender, amount);\r\n  }\r\n  \r\n  function borrowingEth(uint amount) depositor public {\r\n    uint index = user[msg.sender].token[\"Ether\"]; \r\n    uint etherPrice = oracle.getPrice();\r\n    amount = amount * 10 **18;\r\n    require(EtherToken.totalAmount >= amount, \"Pool is not enough token to lend you\");\r\n\r\n    amount = amount  * etherPrice; \r\n    require(user[msg.sender].Collateral >= amount, \"You don't have enough collateral to borrow\");\r\n\r\n    user[msg.sender].Collateral -= amount;\r\n    user[msg.sender].Borrow[index] += amount;\r\n    user[msg.sender].frezeAmount[index] += ((amount * 100)/80) / etherPrice;\r\n    user[msg.sender].LendAmount[index] -= ((amount * 100)/80) / etherPrice;\r\n    user[msg.sender].isBorrowed[\"Ether\"] = true;\r\n\r\n    EtherToken.totalAmount -= ((amount * 100)/80) / etherPrice;\r\n    EtherToken.borrowAmount += ((amount * 100)/80) / etherPrice;\r\n\r\n    msg.sender.transfer(amount / etherPrice);\r\n    updateRate();\r\n    emit Borrowing(msg.sender, amount);\r\n  }\r\n\r\n  function borrowingIuhCoin(uint amount) depositor public {\r\n    uint index = user[msg.sender].token[\"IuhCoin\"]; \r\n    uint price = oracle.getIuhPrice();\r\n    amount = amount * 10 **18;\r\n    require(IuhToken.totalAmount >= amount, \"Pool is not enough token to lend you\");\r\n    amount = amount * price; \r\n\r\n    require(user[msg.sender].Collateral>= amount, \"You don't have enough collateral to borrow\");\r\n    user[msg.sender].Collateral -= amount;\r\n    user[msg.sender].Borrow[index] += amount;\r\n    user[msg.sender].frezeAmount[index] += ((amount * 100)/80) / price;\r\n    user[msg.sender].isBorrowed[\"IuhCoin\"] = true;\r\n\r\n    IuhToken.totalAmount -= ((amount * 100)/80) / price;\r\n    IuhToken.borrowAmount += ((amount * 100)/80) / price;\r\n    iuhcoin.transfer(msg.sender, amount / price);\r\n    updateRate();\r\n    emit Borrowing(msg.sender, amount);\r\n  }\r\n\r\n  function repayEther() payable public {\r\n    require(user[msg.sender].isBorrowed[\"Ether\"] == true, 'Error, loan not active');\r\n    uint price = oracle.getPrice();\r\n    uint index = user[msg.sender].token[\"Ether\"];\r\n    uint payAmount = msg.value * price;\r\n    uint freze = user[msg.sender].frezeAmount[index];\r\n    require(payAmount == user[msg.sender].Borrow[index], \"Don't enough\");\r\n\r\n    user[msg.sender].Borrow[index] = 0;\r\n    user[msg.sender].LendAmount[index] +=  freze;\r\n    user[msg.sender].Collateral += (freze * price * 80) / 100;\r\n    user[msg.sender].frezeAmount[index] = 0;\r\n\r\n    user[msg.sender].isBorrowed[\"Ether\"] = false;\r\n\r\n    EtherToken.totalAmount += freze;\r\n    EtherToken.borrowAmount -= freze;\r\n\r\n    updateRate();\r\n    emit Repay(msg.sender);\r\n  }\r\n\r\n  function repayIuhCoin(uint amount) payable public {\r\n    require(user[msg.sender].isBorrowed[\"IuhCoin\"] == true, 'Error, loan not active');\r\n    uint price = oracle.getIuhPrice();\r\n    uint index = user[msg.sender].token[\"IuhCoin\"];\r\n    uint payAmount = amount * price ;\r\n    uint freze = user[msg.sender].frezeAmount[index];\r\n    require(payAmount == user[msg.sender].Borrow[index], \"Don't enough\");\r\n    \r\n    user[msg.sender].Borrow[index] = 0;\r\n    user[msg.sender].Collateral += (freze * price *80) /100 ;\r\n    user[msg.sender].frezeAmount[index] = 0;\r\n    user[msg.sender].isBorrowed[\"IuhCoin\"] = false;\r\n\r\n    IuhToken.totalAmount += freze;\r\n    IuhToken.borrowAmount -= freze;\r\n    updateRate();\r\n    emit Repay(msg.sender);\r\n  }\r\n  // ly thng tin ngi dng\r\n\r\n  function getUserSupplied() public view returns(uint  index,uint[2] memory LendAmount, uint  Collateral, string[2] memory tokenName ){\r\n    index = user[msg.sender].index;\r\n    LendAmount = user[msg.sender].LendAmount;\r\n    Collateral = user[msg.sender].Collateral;\r\n    tokenName = user[msg.sender].tokenName;\r\n  }\r\n  function getUserBorrow() public view returns(uint  index,uint[2] memory Borrow,uint[2] memory frezeAmount, string[2] memory tokenName ){\r\n    index = user[msg.sender].index;\r\n    Borrow = user[msg.sender].Borrow;\r\n    frezeAmount = user[msg.sender].frezeAmount;\r\n    tokenName = user[msg.sender].tokenName;\r\n  }\r\n\r\n  // Ly thng tin h\r\n  function getEtherPoolInfo() public view returns (uint  totalAmount, \r\n  uint borrowAmount, uint  price, uint lendRate, uint borrowRate,uint totalAmountInUsd , uint borrowAmountInUsd) {\r\n    totalAmount = EtherToken.totalAmount;\r\n    borrowAmount = EtherToken.borrowAmount;\r\n    totalAmountInUsd = EtherToken.totalAmount * oracle.getPrice();\r\n    borrowAmountInUsd = EtherToken.borrowAmount * oracle.getPrice();\r\n    price = EtherToken.price;\r\n    lendRate = EtherToken.lendRate;\r\n    borrowRate = EtherToken.borrowRate;\r\n  }\r\n  function getIuhCoinPoolInfo() external view returns (uint  totalAmount, \r\n  uint borrowAmount, uint  price, uint lendRate, uint borrowRate, uint totalAmountInUsd, uint borrowAmountInUsd) {\r\n    totalAmount = IuhToken.totalAmount;\r\n    borrowAmount = IuhToken.borrowAmount;\r\n    totalAmountInUsd = IuhToken.totalAmount * oracle.getIuhPrice();\r\n    borrowAmountInUsd = IuhToken.borrowAmount * oracle.getIuhPrice();\r\n    price = IuhToken.price;\r\n    lendRate = IuhToken.lendRate;\r\n    borrowRate = IuhToken.borrowRate;\r\n  }\r\n  function getTotalLiquidInUsd() external view returns(uint){\r\n    return (address(this).balance * oracle.getPrice()) + (iuhcoin.balanceOf(address(this)) * oracle.getIuhPrice());\r\n  }\r\n  function updatePrice() public {\r\n    oracle.setPrice(2000);\r\n    updateRate();\r\n  }\r\n  function mintIuhCoin() public{\r\n    iuhcoin.mint(msg.sender, 100 *10 **18);\r\n  }\r\n}\r\n\r\n\r\n",
  "sourcePath": "C:\\Users\\acer\\client\\contracts\\dBank.sol",
  "compiler": {
    "name": "solc",
    "version": "0.7.6+commit.7338295f.Emscripten.clang"
  },
  "schemaVersion": "3.4.12",
  "updatedAt": "2023-05-06T03:08:15.380Z",
  "networkType": "ethereum",
  "devdoc": {
    "kind": "dev",
    "methods": {},
    "version": 1
  },
  "userdoc": {
    "kind": "user",
    "methods": {},
    "version": 1
  }
}