{
  "contractName": "Oracle",
  "abi": [
    {
      "inputs": [],
      "stateMutability": "nonpayable",
      "type": "constructor"
    },
    {
      "inputs": [],
      "name": "owner",
      "outputs": [
        {
          "internalType": "address",
          "name": "",
          "type": "address"
        }
      ],
      "stateMutability": "view",
      "type": "function",
      "constant": true
    },
    {
      "inputs": [],
      "name": "getPrice",
      "outputs": [
        {
          "internalType": "uint256",
          "name": "",
          "type": "uint256"
        }
      ],
      "stateMutability": "view",
      "type": "function",
      "constant": true
    },
    {
      "inputs": [
        {
          "internalType": "uint256",
          "name": "newPrice",
          "type": "uint256"
        }
      ],
      "name": "setPrice",
      "outputs": [],
      "stateMutability": "nonpayable",
      "type": "function"
    },
    {
      "inputs": [],
      "name": "getIuhPrice",
      "outputs": [
        {
          "internalType": "uint256",
          "name": "",
          "type": "uint256"
        }
      ],
      "stateMutability": "view",
      "type": "function",
      "constant": true
    },
    {
      "inputs": [
        {
          "internalType": "uint256",
          "name": "newPrice",
          "type": "uint256"
        }
      ],
      "name": "setIuhPrice",
      "outputs": [],
      "stateMutability": "nonpayable",
      "type": "function"
    }
  ],
  "bytecode": "0x6080604052610753600155600160025534801561001b57600080fd5b50336000806101000a81548173ffffffffffffffffffffffffffffffffffffffff021916908373ffffffffffffffffffffffffffffffffffffffff16021790555061032c8061006b6000396000f3fe608060405234801561001057600080fd5b50600436106100575760003560e01c806372366dbf1461005c5780638da5cb5b1461007a57806391b7f5ed146100ae57806398d5fdca146100dc578063dd4e5d5a146100fa575b600080fd5b610064610128565b6040518082815260200191505060405180910390f35b610082610132565b604051808273ffffffffffffffffffffffffffffffffffffffff16815260200191505060405180910390f35b6100da600480360360208110156100c457600080fd5b8101908080359060200190929190505050610156565b005b6100e4610221565b6040518082815260200191505060405180910390f35b6101266004803603602081101561011057600080fd5b810190808035906020019092919050505061022b565b005b6000600254905090565b60008054906101000a900473ffffffffffffffffffffffffffffffffffffffff1681565b60008054906101000a900473ffffffffffffffffffffffffffffffffffffffff1673ffffffffffffffffffffffffffffffffffffffff163373ffffffffffffffffffffffffffffffffffffffff1614610217576040517f08c379a000000000000000000000000000000000000000000000000000000000815260040180806020018281038252601f8152602001807f6f6e6c79206f776e65722063616e20757064617465207468652070726963650081525060200191505060405180910390fd5b8060018190555050565b6000600154905090565b60008054906101000a900473ffffffffffffffffffffffffffffffffffffffff1673ffffffffffffffffffffffffffffffffffffffff163373ffffffffffffffffffffffffffffffffffffffff16146102ec576040517f08c379a000000000000000000000000000000000000000000000000000000000815260040180806020018281038252601f8152602001807f6f6e6c79206f776e65722063616e20757064617465207468652070726963650081525060200191505060405180910390fd5b806002819055505056fea26469706673582212207203c6398d5606164bbcb86413c107d8d50b33110526f72fa52396e7679197fd64736f6c63430007060033",
  "immutableReferences": {},
  "source": "// SPDX-License-Identifier: MIT\r\npragma solidity >=0.6.0 <0.8.0;\r\n\r\ncontract Oracle{\r\n    address public owner;\r\n    uint private etherPrice = 1875 ;\r\n    uint private iuhPrice = 1;\r\n    constructor() public{\r\n        owner = msg.sender;\r\n    }\r\n\r\n    function getPrice() external view returns(uint256){\r\n        return etherPrice;\r\n    }\r\n    function setPrice(uint newPrice) external {\r\n        require(msg.sender == owner,\"only owner can update the price\");\r\n        etherPrice = newPrice;\r\n    }\r\n    function getIuhPrice() external view returns(uint256){\r\n        return iuhPrice;\r\n    }\r\n    function setIuhPrice(uint newPrice) external {\r\n        require(msg.sender == owner,\"only owner can update the price\");\r\n        iuhPrice = newPrice;\r\n    }\r\n}",
  "sourcePath": "C:\\Users\\acer\\client\\contracts\\oracle.sol",
  "compiler": {
    "name": "solc",
    "version": "0.7.6+commit.7338295f.Emscripten.clang"
  },
  "schemaVersion": "3.4.12",
  "updatedAt": "2023-05-06T01:29:26.851Z",
  "networkType": "ethereum",
  "devdoc": {
    "kind": "dev",
    "methods": {},
    "version": 1
  },
  "userdoc": {
    "kind": "user",
    "methods": {},
    "version": 1
  }
}