{
  "contractName": "iuhBank",
  "abi": [
    {
      "inputs": [
        {
          "internalType": "contract Oracle",
          "name": "_oracle",
          "type": "address"
        },
        {
          "internalType": "contract iuhCoin",
          "name": "_iuhcoin",
          "type": "address"
        }
      ],
      "stateMutability": "nonpayable",
      "type": "constructor"
    },
    {
      "anonymous": false,
      "inputs": [
        {
          "indexed": true,
          "internalType": "address",
          "name": "user",
          "type": "address"
        },
        {
          "indexed": false,
          "internalType": "uint256",
          "name": "amount",
          "type": "uint256"
        }
      ],
      "name": "Borrowing",
      "type": "event"
    },
    {
      "anonymous": false,
      "inputs": [
        {
          "indexed": true,
          "internalType": "address",
          "name": "user",
          "type": "address"
        },
        {
          "indexed": false,
          "internalType": "uint256",
          "name": "etherAmount",
          "type": "uint256"
        },
        {
          "indexed": false,
          "internalType": "uint256",
          "name": "timeStart",
          "type": "uint256"
        }
      ],
      "name": "Deposit",
      "type": "event"
    },
    {
      "anonymous": false,
      "inputs": [
        {
          "indexed": true,
          "internalType": "address",
          "name": "user",
          "type": "address"
        }
      ],
      "name": "Repay",
      "type": "event"
    },
    {
      "anonymous": false,
      "inputs": [
        {
          "indexed": true,
          "internalType": "address",
          "name": "user",
          "type": "address"
        },
        {
          "indexed": false,
          "internalType": "uint256",
          "name": "etherAmount",
          "type": "uint256"
        }
      ],
      "name": "Withdraw",
      "type": "event"
    },
    {
      "inputs": [],
      "name": "oracle",
      "outputs": [
        {
          "internalType": "contract Oracle",
          "name": "",
          "type": "address"
        }
      ],
      "stateMutability": "view",
      "type": "function",
      "constant": true
    },
    {
      "inputs": [],
      "name": "depositEther",
      "outputs": [],
      "stateMutability": "payable",
      "type": "function",
      "payable": true
    },
    {
      "inputs": [
        {
          "internalType": "uint256",
          "name": "amount",
          "type": "uint256"
        }
      ],
      "name": "depositIuhCoin",
      "outputs": [],
      "stateMutability": "payable",
      "type": "function",
      "payable": true
    },
    {
      "inputs": [],
      "name": "updateRate",
      "outputs": [],
      "stateMutability": "nonpayable",
      "type": "function"
    },
    {
      "inputs": [
        {
          "internalType": "uint256",
          "name": "amount",
          "type": "uint256"
        }
      ],
      "name": "withdrawEther",
      "outputs": [],
      "stateMutability": "nonpayable",
      "type": "function"
    },
    {
      "inputs": [
        {
          "internalType": "uint256",
          "name": "amount",
          "type": "uint256"
        }
      ],
      "name": "withdrawIuh",
      "outputs": [],
      "stateMutability": "nonpayable",
      "type": "function"
    },
    {
      "inputs": [
        {
          "internalType": "uint256",
          "name": "amount",
          "type": "uint256"
        }
      ],
      "name": "borrowingEth",
      "outputs": [],
      "stateMutability": "nonpayable",
      "type": "function"
    },
    {
      "inputs": [
        {
          "internalType": "uint256",
          "name": "amount",
          "type": "uint256"
        }
      ],
      "name": "borrowingIuhCoin",
      "outputs": [],
      "stateMutability": "nonpayable",
      "type": "function"
    },
    {
      "inputs": [],
      "name": "repayEther",
      "outputs": [],
      "stateMutability": "payable",
      "type": "function",
      "payable": true
    },
    {
      "inputs": [
        {
          "internalType": "uint256",
          "name": "amount",
          "type": "uint256"
        }
      ],
      "name": "repayIuhCoin",
      "outputs": [],
      "stateMutability": "payable",
      "type": "function",
      "payable": true
    },
    {
      "inputs": [],
      "name": "getUserSupplied",
      "outputs": [
        {
          "internalType": "uint256",
          "name": "index",
          "type": "uint256"
        },
        {
          "internalType": "uint256[2]",
          "name": "LendAmount",
          "type": "uint256[2]"
        },
        {
          "internalType": "uint256",
          "name": "Collateral",
          "type": "uint256"
        },
        {
          "internalType": "string[2]",
          "name": "tokenName",
          "type": "string[2]"
        }
      ],
      "stateMutability": "view",
      "type": "function",
      "constant": true
    },
    {
      "inputs": [],
      "name": "getUserBorrow",
      "outputs": [
        {
          "internalType": "uint256",
          "name": "index",
          "type": "uint256"
        },
        {
          "internalType": "uint256[2]",
          "name": "Borrow",
          "type": "uint256[2]"
        },
        {
          "internalType": "uint256[2]",
          "name": "frezeAmount",
          "type": "uint256[2]"
        },
        {
          "internalType": "string[2]",
          "name": "tokenName",
          "type": "string[2]"
        }
      ],
      "stateMutability": "view",
      "type": "function",
      "constant": true
    },
    {
      "inputs": [],
      "name": "getEtherPoolInfo",
      "outputs": [
        {
          "internalType": "uint256",
          "name": "totalAmount",
          "type": "uint256"
        },
        {
          "internalType": "uint256",
          "name": "borrowAmount",
          "type": "uint256"
        },
        {
          "internalType": "uint256",
          "name": "price",
          "type": "uint256"
        },
        {
          "internalType": "uint256",
          "name": "lendRate",
          "type": "uint256"
        },
        {
          "internalType": "uint256",
          "name": "borrowRate",
          "type": "uint256"
        },
        {
          "internalType": "uint256",
          "name": "totalAmountInUsd",
          "type": "uint256"
        },
        {
          "internalType": "uint256",
          "name": "borrowAmountInUsd",
          "type": "uint256"
        }
      ],
      "stateMutability": "view",
      "type": "function",
      "constant": true
    },
    {
      "inputs": [],
      "name": "getIuhCoinPoolInfo",
      "outputs": [
        {
          "internalType": "uint256",
          "name": "totalAmount",
          "type": "uint256"
        },
        {
          "internalType": "uint256",
          "name": "borrowAmount",
          "type": "uint256"
        },
        {
          "internalType": "uint256",
          "name": "price",
          "type": "uint256"
        },
        {
          "internalType": "uint256",
          "name": "lendRate",
          "type": "uint256"
        },
        {
          "internalType": "uint256",
          "name": "borrowRate",
          "type": "uint256"
        },
        {
          "internalType": "uint256",
          "name": "totalAmountInUsd",
          "type": "uint256"
        },
        {
          "internalType": "uint256",
          "name": "borrowAmountInUsd",
          "type": "uint256"
        }
      ],
      "stateMutability": "view",
      "type": "function",
      "constant": true
    },
    {
      "inputs": [],
      "name": "getTotalLiquidInUsd",
      "outputs": [
        {
          "internalType": "uint256",
          "name": "",
          "type": "uint256"
        }
      ],
      "stateMutability": "view",
      "type": "function",
      "constant": true
    },
    {
      "inputs": [],
      "name": "updatePrice",
      "outputs": [],
      "stateMutability": "nonpayable",
      "type": "function"
    },
    {
      "inputs": [],
      "name": "mintIuhCoin",
      "outputs": [],
      "stateMutability": "nonpayable",
      "type": "function"
    }
  ],
  "bytecode": "0x60806040526040518060a00160405280600081526020016000815260200160008152602001601460ff168152602001601560ff16815250600560008201518160000155602082015181600101556040820151816002015560608201518160030160006101000a81548160ff021916908360ff16021790555060808201518160030160016101000a81548160ff021916908360ff16021790555050506040518060a00160405280600081526020016000815260200160008152602001601460ff168152602001601560ff16815250600960008201518160000155602082015181600101556040820151816002015560608201518160030160006101000a81548160ff021916908360ff16021790555060808201518160030160016101000a81548160ff021916908360ff16021790555050503480156200013d57600080fd5b50604051620064533803806200645383398181016040528101906200016391906200038b565b81600460006101000a81548173ffffffffffffffffffffffffffffffffffffffff021916908373ffffffffffffffffffffffffffffffffffffffff160217905550806000806101000a81548173ffffffffffffffffffffffffffffffffffffffff021916908373ffffffffffffffffffffffffffffffffffffffff160217905550600460009054906101000a900473ffffffffffffffffffffffffffffffffffffffff1673ffffffffffffffffffffffffffffffffffffffff166398d5fdca6040518163ffffffff1660e01b815260040160206040518083038186803b1580156200024d57600080fd5b505afa15801562000262573d6000803e3d6000fd5b505050506040513d601f19601f82011682018060405250810190620002889190620003cc565b600560020181905550600460009054906101000a900473ffffffffffffffffffffffffffffffffffffffff1673ffffffffffffffffffffffffffffffffffffffff166372366dbf6040518163ffffffff1660e01b815260040160206040518083038186803b158015620002fa57600080fd5b505afa1580156200030f573d6000803e3d6000fd5b505050506040513d601f19601f82011682018060405250810190620003359190620003cc565b6009600201819055505050620004ac565b60008151905062000357816200045e565b92915050565b6000815190506200036e8162000478565b92915050565b600081519050620003858162000492565b92915050565b600080604083850312156200039f57600080fd5b6000620003af8582860162000346565b9250506020620003c2858286016200035d565b9150509250929050565b600060208284031215620003df57600080fd5b6000620003ef8482850162000374565b91505092915050565b6000620004058262000434565b9050919050565b60006200041982620003f8565b9050919050565b60006200042d82620003f8565b9050919050565b600073ffffffffffffffffffffffffffffffffffffffff82169050919050565b6000819050919050565b62000469816200040c565b81146200047557600080fd5b50565b620004838162000420565b81146200048f57600080fd5b50565b6200049d8162000454565b8114620004a957600080fd5b50565b615f9780620004bc6000396000f3fe6080604052600436106100fe5760003560e01c80637dc0d1d011610095578063bff368d311610064578063bff368d314610297578063c75253e9146102c2578063c7fee63e146102de578063de4755c1146102f5578063f1f8a42714610323576100fe565b80637dc0d1d01461020857806388a3796c1461023357806398ea5fca14610264578063b67828c81461026e576100fe565b80633bed33ce116100d15780633bed33ce14610169578063509b2b011461019257806361083cbc146101c3578063673a7e28146101f1576100fe565b806326c7d3f01461010357806326cebf831461012c57806337f97c9d146101435780633ad7ef9a1461014d575b600080fd5b34801561010f57600080fd5b5061012a60048036038101906101259190615330565b61034c565b005b34801561013857600080fd5b506101416108c3565b005b61014b61095b565b005b61016760048036038101906101629190615330565b610e59565b005b34801561017557600080fd5b50610190600480360381019061018b9190615330565b61159e565b005b34801561019e57600080fd5b506101a7611982565b6040516101ba9796959493929190615d28565b60405180910390f35b3480156101cf57600080fd5b506101d8611b30565b6040516101e89493929190615c67565b60405180910390f35b3480156101fd57600080fd5b50610206611db7565b005b34801561021457600080fd5b5061021d611e50565b60405161022a9190615a96565b60405180910390f35b34801561023f57600080fd5b50610248611e76565b60405161025b9796959493929190615d28565b60405180910390f35b61026c612024565b005b34801561027a57600080fd5b5061029560048036038101906102909190615330565b612683565b005b3480156102a357600080fd5b506102ac612bf7565b6040516102b99190615c4c565b60405180910390f35b6102dc60048036038101906102d79190615330565b612deb565b005b3480156102ea57600080fd5b506102f361328e565b005b34801561030157600080fd5b5061030a614995565b60405161031a9493929190615cb3565b60405180910390f35b34801561032f57600080fd5b5061034a60048036038101906103459190615330565b614bdb565b005b600360003373ffffffffffffffffffffffffffffffffffffffff1673ffffffffffffffffffffffffffffffffffffffff16815260200190815260200160002060009054906101000a900460ff166103d8576040517f08c379a00000000000000000000000000000000000000000000000000000000081526004016103cf90615acc565b60405180910390fd5b6000600260003373ffffffffffffffffffffffffffffffffffffffff1673ffffffffffffffffffffffffffffffffffffffff168152602001908152602001600020600a01604051610428906159dd565b908152602001604051809103902060009054906101000a900460ff1660ff1690506000600460009054906101000a900473ffffffffffffffffffffffffffffffffffffffff1673ffffffffffffffffffffffffffffffffffffffff166372366dbf6040518163ffffffff1660e01b815260040160206040518083038186803b1580156104b357600080fd5b505afa1580156104c7573d6000803e3d6000fd5b505050506040513d601f19601f820116820180604052508101906104eb9190615359565b9050670de0b6b3a764000083029250826009600001541015610542576040517f08c379a000000000000000000000000000000000000000000000000000000000815260040161053990615b0c565b60405180910390fd5b808302925082600260003373ffffffffffffffffffffffffffffffffffffffff1673ffffffffffffffffffffffffffffffffffffffff1681526020019081526020016000206001015410156105cc576040517f08c379a00000000000000000000000000000000000000000000000000000000081526004016105c390615b6c565b60405180910390fd5b82600260003373ffffffffffffffffffffffffffffffffffffffff1673ffffffffffffffffffffffffffffffffffffffff1681526020019081526020016000206001016000828254039250508190555082600260003373ffffffffffffffffffffffffffffffffffffffff1673ffffffffffffffffffffffffffffffffffffffff168152602001908152602001600020600601836002811061066a57fe5b0160008282540192505081905550806050606485028161068657fe5b048161068e57fe5b04600260003373ffffffffffffffffffffffffffffffffffffffff1673ffffffffffffffffffffffffffffffffffffffff16815260200190815260200160002060040183600281106106dc57fe5b01600082825401925050819055506001600260003373ffffffffffffffffffffffffffffffffffffffff1673ffffffffffffffffffffffffffffffffffffffff168152602001908152602001600020600c0160405161073a906159dd565b908152602001604051809103902060006101000a81548160ff021916908315150217905550806050606485028161076d57fe5b048161077557fe5b04600960000160008282540392505081905550806050606485028161079657fe5b048161079e57fe5b0460096001016000828254019250508190555060008054906101000a900473ffffffffffffffffffffffffffffffffffffffff1673ffffffffffffffffffffffffffffffffffffffff1663a9059cbb338386816107f757fe5b046040518363ffffffff1660e01b8152600401610815929190615a6d565b602060405180830381600087803b15801561082f57600080fd5b505af1158015610843573d6000803e3d6000fd5b505050506040513d601f19601f820116820180604052508101906108679190615307565b5061087061328e565b3373ffffffffffffffffffffffffffffffffffffffff167f03951a10935c21c2aac3ad2e2caebf2ccd972c3db450d4bfa44c9dd359862f89846040516108b69190615c4c565b60405180910390a2505050565b60008054906101000a900473ffffffffffffffffffffffffffffffffffffffff1673ffffffffffffffffffffffffffffffffffffffff166340c10f193368056bc75e2d631000006040518363ffffffff1660e01b8152600401610927929190615a44565b600060405180830381600087803b15801561094157600080fd5b505af1158015610955573d6000803e3d6000fd5b50505050565b60011515600260003373ffffffffffffffffffffffffffffffffffffffff1673ffffffffffffffffffffffffffffffffffffffff168152602001908152602001600020600c016040516109ad906159c8565b908152602001604051809103902060009054906101000a900460ff16151514610a0b576040517f08c379a0000000000000000000000000000000000000000000000000000000008152600401610a0290615bac565b60405180910390fd5b6000600460009054906101000a900473ffffffffffffffffffffffffffffffffffffffff1673ffffffffffffffffffffffffffffffffffffffff166398d5fdca6040518163ffffffff1660e01b815260040160206040518083038186803b158015610a7557600080fd5b505afa158015610a89573d6000803e3d6000fd5b505050506040513d601f19601f82011682018060405250810190610aad9190615359565b90506000600260003373ffffffffffffffffffffffffffffffffffffffff1673ffffffffffffffffffffffffffffffffffffffff168152602001908152602001600020600a01604051610aff906159c8565b908152602001604051809103902060009054906101000a900460ff1660ff169050600082340290506000600260003373ffffffffffffffffffffffffffffffffffffffff1673ffffffffffffffffffffffffffffffffffffffff1681526020019081526020016000206004018360028110610b7657fe5b01549050600260003373ffffffffffffffffffffffffffffffffffffffff1673ffffffffffffffffffffffffffffffffffffffff1681526020019081526020016000206006018360028110610bc757fe5b01548214610c0a576040517f08c379a0000000000000000000000000000000000000000000000000000000008152600401610c0190615bcc565b60405180910390fd5b6000600260003373ffffffffffffffffffffffffffffffffffffffff1673ffffffffffffffffffffffffffffffffffffffff1681526020019081526020016000206006018460028110610c5957fe5b018190555080600260003373ffffffffffffffffffffffffffffffffffffffff1673ffffffffffffffffffffffffffffffffffffffff1681526020019081526020016000206002018460028110610cac57fe5b0160008282540192505081905550606460508583020281610cc957fe5b04600260003373ffffffffffffffffffffffffffffffffffffffff1673ffffffffffffffffffffffffffffffffffffffff168152602001908152602001600020600101600082825401925050819055506000600260003373ffffffffffffffffffffffffffffffffffffffff1673ffffffffffffffffffffffffffffffffffffffff1681526020019081526020016000206004018460028110610d6857fe5b01819055506000600260003373ffffffffffffffffffffffffffffffffffffffff1673ffffffffffffffffffffffffffffffffffffffff168152602001908152602001600020600c01604051610dbd906159c8565b908152602001604051809103902060006101000a81548160ff0219169083151502179055508060056000016000828254019250508190555080600560010160008282540392505081905550610e1061328e565b3373ffffffffffffffffffffffffffffffffffffffff167f5f9ec7a6c98280524f8d172d79eecf9e9660ad36b52d1836dd45dd81a342bd1360405160405180910390a250505050565b670de0b6b3a764000081029050662386f26fc10000811015610eb0576040517f08c379a0000000000000000000000000000000000000000000000000000000008152600401610ea790615aec565b60405180910390fd5b6000600360003373ffffffffffffffffffffffffffffffffffffffff1673ffffffffffffffffffffffffffffffffffffffff16815260200190815260200160002060009054906101000a900460ff16610f67576001339080600181540180825580915050600190039060005260206000200160009091909190916101000a81548173ffffffffffffffffffffffffffffffffffffffff021916908373ffffffffffffffffffffffffffffffffffffffff1602179055505b600260003373ffffffffffffffffffffffffffffffffffffffff1673ffffffffffffffffffffffffffffffffffffffff168152602001908152602001600020600b01604051610fb5906159dd565b908152602001604051809103902060009054906101000a900460ff1661118457600260003373ffffffffffffffffffffffffffffffffffffffff1673ffffffffffffffffffffffffffffffffffffffff16815260200190815260200160002060000160009054906101000a900460ff16905080600260003373ffffffffffffffffffffffffffffffffffffffff1673ffffffffffffffffffffffffffffffffffffffff168152602001908152602001600020600a01604051611076906159dd565b908152602001604051809103902060006101000a81548160ff021916908360ff1602179055506001600260003373ffffffffffffffffffffffffffffffffffffffff1673ffffffffffffffffffffffffffffffffffffffff16815260200190815260200160002060000160008282829054906101000a900460ff160192506101000a81548160ff021916908360ff1602179055506001600260003373ffffffffffffffffffffffffffffffffffffffff1673ffffffffffffffffffffffffffffffffffffffff168152602001908152602001600020600b0160405161115a906159dd565b908152602001604051809103902060006101000a81548160ff0219169083151502179055506111f1565b600260003373ffffffffffffffffffffffffffffffffffffffff1673ffffffffffffffffffffffffffffffffffffffff168152602001908152602001600020600a016040516111d2906159dd565b908152602001604051809103902060009054906101000a900460ff1690505b60008054906101000a900473ffffffffffffffffffffffffffffffffffffffff1673ffffffffffffffffffffffffffffffffffffffff166323b872dd3330856040518463ffffffff1660e01b815260040161124e93929190615a0d565b602060405180830381600087803b15801561126857600080fd5b505af115801561127c573d6000803e3d6000fd5b505050506040513d601f19601f820116820180604052508101906112a09190615307565b6112df576040517f08c379a00000000000000000000000000000000000000000000000000000000081526004016112d690615bec565b60405180910390fd5b8160096000016000828254019250508190555081600260003373ffffffffffffffffffffffffffffffffffffffff1673ffffffffffffffffffffffffffffffffffffffff1681526020019081526020016000206002018260ff166002811061134357fe5b01600082825401925050819055506040518060400160405280600781526020017f497568436f696e00000000000000000000000000000000000000000000000000815250600260003373ffffffffffffffffffffffffffffffffffffffff1673ffffffffffffffffffffffffffffffffffffffff1681526020019081526020016000206008018260ff16600281106113d757fe5b0190805190602001906113eb92919061515d565b5060646050600460009054906101000a900473ffffffffffffffffffffffffffffffffffffffff1673ffffffffffffffffffffffffffffffffffffffff166372366dbf6040518163ffffffff1660e01b815260040160206040518083038186803b15801561145857600080fd5b505afa15801561146c573d6000803e3d6000fd5b505050506040513d601f19601f820116820180604052508101906114909190615359565b3402028161149a57fe5b04600260003373ffffffffffffffffffffffffffffffffffffffff1673ffffffffffffffffffffffffffffffffffffffff168152602001908152602001600020600101600082825401925050819055506114f261328e565b6001600360003373ffffffffffffffffffffffffffffffffffffffff1673ffffffffffffffffffffffffffffffffffffffff16815260200190815260200160002060006101000a81548160ff0219169083151502179055503373ffffffffffffffffffffffffffffffffffffffff167f90890809c654f11d6e72a28fa60149770a0d11ec6c92319d6ceb2bb0a4ea1a158342604051611592929190615cff565b60405180910390a25050565b600360003373ffffffffffffffffffffffffffffffffffffffff1673ffffffffffffffffffffffffffffffffffffffff16815260200190815260200160002060009054906101000a900460ff1661162a576040517f08c379a000000000000000000000000000000000000000000000000000000000815260040161162190615acc565b60405180910390fd5b6000600260003373ffffffffffffffffffffffffffffffffffffffff1673ffffffffffffffffffffffffffffffffffffffff168152602001908152602001600020600a0160405161167a906159c8565b908152602001604051809103902060009054906101000a900460ff1660ff1690508160056000015410156116e3576040517f08c379a00000000000000000000000000000000000000000000000000000000081526004016116da90615b2c565b60405180910390fd5b600260003373ffffffffffffffffffffffffffffffffffffffff1673ffffffffffffffffffffffffffffffffffffffff168152602001908152602001600020600201816002811061173057fe5b0154821115611774576040517f08c379a000000000000000000000000000000000000000000000000000000000815260040161176b90615c0c565b60405180910390fd5b60646050600460009054906101000a900473ffffffffffffffffffffffffffffffffffffffff1673ffffffffffffffffffffffffffffffffffffffff166398d5fdca6040518163ffffffff1660e01b815260040160206040518083038186803b1580156117e057600080fd5b505afa1580156117f4573d6000803e3d6000fd5b505050506040513d601f19601f820116820180604052508101906118189190615359565b8402028161182257fe5b04600260003373ffffffffffffffffffffffffffffffffffffffff1673ffffffffffffffffffffffffffffffffffffffff168152602001908152602001600020600101600082825403925050819055508160056000016000828254039250508190555081600260003373ffffffffffffffffffffffffffffffffffffffff1673ffffffffffffffffffffffffffffffffffffffff16815260200190815260200160002060020182600281106118d357fe5b01600082825403925050819055503373ffffffffffffffffffffffffffffffffffffffff166108fc839081150290604051600060405180830381858888f19350505050158015611927573d6000803e3d6000fd5b5061193061328e565b3373ffffffffffffffffffffffffffffffffffffffff167f884edad9ce6fa2440d8a54cc123490eb96d2768479d49ff9c7366125a9424364836040516119769190615c4c565b60405180910390a25050565b600080600080600080600060056000015496506005600101549550600460009054906101000a900473ffffffffffffffffffffffffffffffffffffffff1673ffffffffffffffffffffffffffffffffffffffff166398d5fdca6040518163ffffffff1660e01b815260040160206040518083038186803b158015611a0557600080fd5b505afa158015611a19573d6000803e3d6000fd5b505050506040513d601f19601f82011682018060405250810190611a3d9190615359565b600560000154029150600460009054906101000a900473ffffffffffffffffffffffffffffffffffffffff1673ffffffffffffffffffffffffffffffffffffffff166398d5fdca6040518163ffffffff1660e01b815260040160206040518083038186803b158015611aae57600080fd5b505afa158015611ac2573d6000803e3d6000fd5b505050506040513d601f19601f82011682018060405250810190611ae69190615359565b6005600101540290506005600201549450600560030160009054906101000a900460ff1660ff169350600560030160019054906101000a900460ff1660ff16925090919293949596565b6000611b3a6151eb565b611b426151eb565b611b4a61520d565b600260003373ffffffffffffffffffffffffffffffffffffffff1673ffffffffffffffffffffffffffffffffffffffff16815260200190815260200160002060000160009054906101000a900460ff1660ff169350600260003373ffffffffffffffffffffffffffffffffffffffff1673ffffffffffffffffffffffffffffffffffffffff168152602001908152602001600020600601600280602002604051908101604052809291908260028015611c18576020028201915b815481526020019060010190808311611c04575b50505050509250600260003373ffffffffffffffffffffffffffffffffffffffff1673ffffffffffffffffffffffffffffffffffffffff168152602001908152602001600020600401600280602002604051908101604052809291908260028015611c98576020028201915b815481526020019060010190808311611c84575b50505050509150600260003373ffffffffffffffffffffffffffffffffffffffff1673ffffffffffffffffffffffffffffffffffffffff168152602001908152602001600020600801600280602002604051908101604052809291906000905b82821015611dab578382018054600181600116156101000203166002900480601f016020809104026020016040519081016040528092919081815260200182805460018160011615610100020316600290048015611d975780601f10611d6c57610100808354040283529160200191611d97565b820191906000526020600020905b815481529060010190602001808311611d7a57829003601f168201915b505050505081526020019060010190611cf8565b50505050905090919293565b600460009054906101000a900473ffffffffffffffffffffffffffffffffffffffff1673ffffffffffffffffffffffffffffffffffffffff166391b7f5ed6107d06040518263ffffffff1660e01b8152600401611e149190615ab1565b600060405180830381600087803b158015611e2e57600080fd5b505af1158015611e42573d6000803e3d6000fd5b50505050611e4e61328e565b565b600460009054906101000a900473ffffffffffffffffffffffffffffffffffffffff1681565b600080600080600080600060096000015496506009600101549550600460009054906101000a900473ffffffffffffffffffffffffffffffffffffffff1673ffffffffffffffffffffffffffffffffffffffff166372366dbf6040518163ffffffff1660e01b815260040160206040518083038186803b158015611ef957600080fd5b505afa158015611f0d573d6000803e3d6000fd5b505050506040513d601f19601f82011682018060405250810190611f319190615359565b600960000154029150600460009054906101000a900473ffffffffffffffffffffffffffffffffffffffff1673ffffffffffffffffffffffffffffffffffffffff166372366dbf6040518163ffffffff1660e01b815260040160206040518083038186803b158015611fa257600080fd5b505afa158015611fb6573d6000803e3d6000fd5b505050506040513d601f19601f82011682018060405250810190611fda9190615359565b6009600101540290506009600201549450600960030160009054906101000a900460ff1660ff169350600960030160019054906101000a900460ff1660ff16925090919293949596565b662386f26fc1000034101561206e576040517f08c379a000000000000000000000000000000000000000000000000000000000815260040161206590615aec565b60405180910390fd5b6000600360003373ffffffffffffffffffffffffffffffffffffffff1673ffffffffffffffffffffffffffffffffffffffff16815260200190815260200160002060009054906101000a900460ff16612125576001339080600181540180825580915050600190039060005260206000200160009091909190916101000a81548173ffffffffffffffffffffffffffffffffffffffff021916908373ffffffffffffffffffffffffffffffffffffffff1602179055505b600260003373ffffffffffffffffffffffffffffffffffffffff1673ffffffffffffffffffffffffffffffffffffffff168152602001908152602001600020600b01604051612173906159c8565b908152602001604051809103902060009054906101000a900460ff1661234657600260003373ffffffffffffffffffffffffffffffffffffffff1673ffffffffffffffffffffffffffffffffffffffff16815260200190815260200160002060000160009054906101000a900460ff16905080600260003373ffffffffffffffffffffffffffffffffffffffff1673ffffffffffffffffffffffffffffffffffffffff168152602001908152602001600020600a01604051612234906159c8565b908152602001604051809103902060006101000a81548160ff021916908360ff160217905550600260003373ffffffffffffffffffffffffffffffffffffffff1673ffffffffffffffffffffffffffffffffffffffff168152602001908152602001600020600001600081819054906101000a900460ff168092919060010191906101000a81548160ff021916908360ff160217905550506001600260003373ffffffffffffffffffffffffffffffffffffffff1673ffffffffffffffffffffffffffffffffffffffff168152602001908152602001600020600b0160405161231c906159c8565b908152602001604051809103902060006101000a81548160ff0219169083151502179055506123b3565b600260003373ffffffffffffffffffffffffffffffffffffffff1673ffffffffffffffffffffffffffffffffffffffff168152602001908152602001600020600a01604051612394906159c8565b908152602001604051809103902060009054906101000a900460ff1690505b6000600460009054906101000a900473ffffffffffffffffffffffffffffffffffffffff1673ffffffffffffffffffffffffffffffffffffffff166398d5fdca6040518163ffffffff1660e01b815260040160206040518083038186803b15801561241d57600080fd5b505afa158015612431573d6000803e3d6000fd5b505050506040513d601f19601f820116820180604052508101906124559190615359565b905060003490506000600a6008848402028161246d57fe5b0490508160056000016000828254019250508190555081600260003373ffffffffffffffffffffffffffffffffffffffff1673ffffffffffffffffffffffffffffffffffffffff1681526020019081526020016000206002018560ff16600281106124d457fe5b01600082825401925050819055506040518060400160405280600581526020017f4574686572000000000000000000000000000000000000000000000000000000815250600260003373ffffffffffffffffffffffffffffffffffffffff1673ffffffffffffffffffffffffffffffffffffffff1681526020019081526020016000206008018560ff166002811061256857fe5b01908051906020019061257c92919061515d565b5080600260003373ffffffffffffffffffffffffffffffffffffffff1673ffffffffffffffffffffffffffffffffffffffff168152602001908152602001600020600101600082825401925050819055506125d561328e565b6001600360003373ffffffffffffffffffffffffffffffffffffffff1673ffffffffffffffffffffffffffffffffffffffff16815260200190815260200160002060006101000a81548160ff0219169083151502179055503373ffffffffffffffffffffffffffffffffffffffff167f90890809c654f11d6e72a28fa60149770a0d11ec6c92319d6ceb2bb0a4ea1a158342604051612675929190615cff565b60405180910390a250505050565b600360003373ffffffffffffffffffffffffffffffffffffffff1673ffffffffffffffffffffffffffffffffffffffff16815260200190815260200160002060009054906101000a900460ff1661270f576040517f08c379a000000000000000000000000000000000000000000000000000000000815260040161270690615acc565b60405180910390fd5b6000600260003373ffffffffffffffffffffffffffffffffffffffff1673ffffffffffffffffffffffffffffffffffffffff168152602001908152602001600020600a0160405161275f906159dd565b908152602001604051809103902060009054906101000a900460ff1660ff1690508160096000015410156127c8576040517f08c379a00000000000000000000000000000000000000000000000000000000081526004016127bf90615b2c565b60405180910390fd5b600260003373ffffffffffffffffffffffffffffffffffffffff1673ffffffffffffffffffffffffffffffffffffffff168152602001908152602001600020600201816002811061281557fe5b0154821115612859576040517f08c379a000000000000000000000000000000000000000000000000000000000815260040161285090615b8c565b60405180910390fd5b8160008054906101000a900473ffffffffffffffffffffffffffffffffffffffff1673ffffffffffffffffffffffffffffffffffffffff166370a08231306040518263ffffffff1660e01b81526004016128b391906159f2565b60206040518083038186803b1580156128cb57600080fd5b505afa1580156128df573d6000803e3d6000fd5b505050506040513d601f19601f820116820180604052508101906129039190615359565b1015612944576040517f08c379a000000000000000000000000000000000000000000000000000000000815260040161293b90615b4c565b60405180910390fd5b60008054906101000a900473ffffffffffffffffffffffffffffffffffffffff1673ffffffffffffffffffffffffffffffffffffffff1663a9059cbb33846040518363ffffffff1660e01b815260040161299f929190615a6d565b602060405180830381600087803b1580156129b957600080fd5b505af11580156129cd573d6000803e3d6000fd5b505050506040513d601f19601f820116820180604052508101906129f19190615307565b612a30576040517f08c379a0000000000000000000000000000000000000000000000000000000008152600401612a2790615c2c565b60405180910390fd5b60646050600460009054906101000a900473ffffffffffffffffffffffffffffffffffffffff1673ffffffffffffffffffffffffffffffffffffffff166372366dbf6040518163ffffffff1660e01b815260040160206040518083038186803b158015612a9c57600080fd5b505afa158015612ab0573d6000803e3d6000fd5b505050506040513d601f19601f82011682018060405250810190612ad49190615359565b84020281612ade57fe5b04600260003373ffffffffffffffffffffffffffffffffffffffff1673ffffffffffffffffffffffffffffffffffffffff168152602001908152602001600020600101600082825403925050819055508160096000016000828254039250508190555081600260003373ffffffffffffffffffffffffffffffffffffffff1673ffffffffffffffffffffffffffffffffffffffff1681526020019081526020016000206002018260028110612b8f57fe5b0160008282540392505081905550612ba561328e565b3373ffffffffffffffffffffffffffffffffffffffff167f884edad9ce6fa2440d8a54cc123490eb96d2768479d49ff9c7366125a942436483604051612beb9190615c4c565b60405180910390a25050565b6000600460009054906101000a900473ffffffffffffffffffffffffffffffffffffffff1673ffffffffffffffffffffffffffffffffffffffff166372366dbf6040518163ffffffff1660e01b815260040160206040518083038186803b158015612c6157600080fd5b505afa158015612c75573d6000803e3d6000fd5b505050506040513d601f19601f82011682018060405250810190612c999190615359565b60008054906101000a900473ffffffffffffffffffffffffffffffffffffffff1673ffffffffffffffffffffffffffffffffffffffff166370a08231306040518263ffffffff1660e01b8152600401612cf291906159f2565b60206040518083038186803b158015612d0a57600080fd5b505afa158015612d1e573d6000803e3d6000fd5b505050506040513d601f19601f82011682018060405250810190612d429190615359565b02600460009054906101000a900473ffffffffffffffffffffffffffffffffffffffff1673ffffffffffffffffffffffffffffffffffffffff166398d5fdca6040518163ffffffff1660e01b815260040160206040518083038186803b158015612dab57600080fd5b505afa158015612dbf573d6000803e3d6000fd5b505050506040513d601f19601f82011682018060405250810190612de39190615359565b470201905090565b60011515600260003373ffffffffffffffffffffffffffffffffffffffff1673ffffffffffffffffffffffffffffffffffffffff168152602001908152602001600020600c01604051612e3d906159dd565b908152602001604051809103902060009054906101000a900460ff16151514612e9b576040517f08c379a0000000000000000000000000000000000000000000000000000000008152600401612e9290615bac565b60405180910390fd5b6000600460009054906101000a900473ffffffffffffffffffffffffffffffffffffffff1673ffffffffffffffffffffffffffffffffffffffff166372366dbf6040518163ffffffff1660e01b815260040160206040518083038186803b158015612f0557600080fd5b505afa158015612f19573d6000803e3d6000fd5b505050506040513d601f19601f82011682018060405250810190612f3d9190615359565b90506000600260003373ffffffffffffffffffffffffffffffffffffffff1673ffffffffffffffffffffffffffffffffffffffff168152602001908152602001600020600a01604051612f8f906159dd565b908152602001604051809103902060009054906101000a900460ff1660ff169050600082840290506000600260003373ffffffffffffffffffffffffffffffffffffffff1673ffffffffffffffffffffffffffffffffffffffff168152602001908152602001600020600401836002811061300657fe5b01549050600260003373ffffffffffffffffffffffffffffffffffffffff1673ffffffffffffffffffffffffffffffffffffffff168152602001908152602001600020600601836002811061305757fe5b0154821461309a576040517f08c379a000000000000000000000000000000000000000000000000000000000815260040161309190615bcc565b60405180910390fd5b6000600260003373ffffffffffffffffffffffffffffffffffffffff1673ffffffffffffffffffffffffffffffffffffffff16815260200190815260200160002060060184600281106130e957fe5b01819055506064605085830202816130fd57fe5b04600260003373ffffffffffffffffffffffffffffffffffffffff1673ffffffffffffffffffffffffffffffffffffffff168152602001908152602001600020600101600082825401925050819055506000600260003373ffffffffffffffffffffffffffffffffffffffff1673ffffffffffffffffffffffffffffffffffffffff168152602001908152602001600020600401846002811061319c57fe5b01819055506000600260003373ffffffffffffffffffffffffffffffffffffffff1673ffffffffffffffffffffffffffffffffffffffff168152602001908152602001600020600c016040516131f1906159dd565b908152602001604051809103902060006101000a81548160ff021916908315150217905550806009600001600082825401925050819055508060096001016000828254039250508190555061324461328e565b3373ffffffffffffffffffffffffffffffffffffffff167f5f9ec7a6c98280524f8d172d79eecf9e9660ad36b52d1836dd45dd81a342bd1360405160405180910390a25050505050565b6000600460009054906101000a900473ffffffffffffffffffffffffffffffffffffffff1673ffffffffffffffffffffffffffffffffffffffff166398d5fdca6040518163ffffffff1660e01b815260040160206040518083038186803b1580156132f857600080fd5b505afa15801561330c573d6000803e3d6000fd5b505050506040513d601f19601f820116820180604052508101906133309190615359565b90506000600460009054906101000a900473ffffffffffffffffffffffffffffffffffffffff1673ffffffffffffffffffffffffffffffffffffffff166372366dbf6040518163ffffffff1660e01b815260040160206040518083038186803b15801561339c57600080fd5b505afa1580156133b0573d6000803e3d6000fd5b505050506040513d601f19601f820116820180604052508101906133d49190615359565b905060005b6001805490508160ff1610156149905760006002600060018460ff16815481106133ff57fe5b9060005260206000200160009054906101000a900473ffffffffffffffffffffffffffffffffffffffff1673ffffffffffffffffffffffffffffffffffffffff1673ffffffffffffffffffffffffffffffffffffffff168152602001908152602001600020600101541161395e576002600060018360ff168154811061348157fe5b9060005260206000200160009054906101000a900473ffffffffffffffffffffffffffffffffffffffff1673ffffffffffffffffffffffffffffffffffffffff1673ffffffffffffffffffffffffffffffffffffffff168152602001908152602001600020600c016040516134f5906159c8565b908152602001604051809103902060009054906101000a900460ff16156136775760006002600060018460ff168154811061352c57fe5b9060005260206000200160009054906101000a900473ffffffffffffffffffffffffffffffffffffffff1673ffffffffffffffffffffffffffffffffffffffff1673ffffffffffffffffffffffffffffffffffffffff168152602001908152602001600020600a016040516135a0906159c8565b908152602001604051809103902060009054906101000a900460ff16905060006002600060018560ff16815481106135d457fe5b9060005260206000200160009054906101000a900473ffffffffffffffffffffffffffffffffffffffff1673ffffffffffffffffffffffffffffffffffffffff1673ffffffffffffffffffffffffffffffffffffffff1681526020019081526020016000206004018260ff166002811061364a57fe5b01549050806005600001600082825401925050819055508060056001016000828254039250508190555050505b6002600060018360ff168154811061368b57fe5b9060005260206000200160009054906101000a900473ffffffffffffffffffffffffffffffffffffffff1673ffffffffffffffffffffffffffffffffffffffff1673ffffffffffffffffffffffffffffffffffffffff168152602001908152602001600020600c016040516136ff906159dd565b908152602001604051809103902060009054906101000a900460ff16156138815760006002600060018460ff168154811061373657fe5b9060005260206000200160009054906101000a900473ffffffffffffffffffffffffffffffffffffffff1673ffffffffffffffffffffffffffffffffffffffff1673ffffffffffffffffffffffffffffffffffffffff168152602001908152602001600020600a016040516137aa906159dd565b908152602001604051809103902060009054906101000a900460ff16905060006002600060018560ff16815481106137de57fe5b9060005260206000200160009054906101000a900473ffffffffffffffffffffffffffffffffffffffff1673ffffffffffffffffffffffffffffffffffffffff1673ffffffffffffffffffffffffffffffffffffffff1681526020019081526020016000206004018260ff166002811061385457fe5b01549050806009600001600082825401925050819055508060096001016000828254039250508190555050505b6002600060018360ff168154811061389557fe5b9060005260206000200160009054906101000a900473ffffffffffffffffffffffffffffffffffffffff1673ffffffffffffffffffffffffffffffffffffffff1673ffffffffffffffffffffffffffffffffffffffff168152602001908152602001600020600080820160006101000a81549060ff021916905560018201600090556002820160006139279190615234565b6004820160006139379190615234565b6006820160006139479190615234565b6008820160006139579190615242565b5050614983565b60005b6002600060018460ff168154811061397557fe5b9060005260206000200160009054906101000a900473ffffffffffffffffffffffffffffffffffffffff1673ffffffffffffffffffffffffffffffffffffffff1673ffffffffffffffffffffffffffffffffffffffff16815260200190815260200160002060000160009054906101000a900460ff1660ff16811015613de75760006103e8601460ff166002600060018760ff1681548110613a1357fe5b9060005260206000200160009054906101000a900473ffffffffffffffffffffffffffffffffffffffff1673ffffffffffffffffffffffffffffffffffffffff1673ffffffffffffffffffffffffffffffffffffffff1681526020019081526020016000206002018460028110613a8657fe5b01540281613a9057fe5b049050806002600060018660ff1681548110613aa857fe5b9060005260206000200160009054906101000a900473ffffffffffffffffffffffffffffffffffffffff1673ffffffffffffffffffffffffffffffffffffffff1673ffffffffffffffffffffffffffffffffffffffff1681526020019081526020016000206002018360028110613b1b57fe5b016000828254019250508190555060006002600060018660ff1681548110613b3f57fe5b9060005260206000200160009054906101000a900473ffffffffffffffffffffffffffffffffffffffff1673ffffffffffffffffffffffffffffffffffffffff1673ffffffffffffffffffffffffffffffffffffffff1681526020019081526020016000206008018360028110613bb257fe5b018054600181600116156101000203166002900480601f016020809104026020016040519081016040528092919081815260200182805460018160011615610100020316600290048015613c475780601f10613c1c57610100808354040283529160200191613c47565b820191906000526020600020905b815481529060010190602001808311613c2a57829003601f168201915b50505050509050604051602001613c5d906159c8565b6040516020818303038152906040528051906020012081604051602001613c8491906159b1565b604051602081830303815290604052805190602001201415613d3e57606460508784020281613caf57fe5b046002600060018760ff1681548110613cc457fe5b9060005260206000200160009054906101000a900473ffffffffffffffffffffffffffffffffffffffff1673ffffffffffffffffffffffffffffffffffffffff1673ffffffffffffffffffffffffffffffffffffffff16815260200190815260200160002060010160008282540192505081905550613dd8565b606460508684020281613d4d57fe5b046002600060018760ff1681548110613d6257fe5b9060005260206000200160009054906101000a900473ffffffffffffffffffffffffffffffffffffffff1673ffffffffffffffffffffffffffffffffffffffff1673ffffffffffffffffffffffffffffffffffffffff168152602001908152602001600020600101600082825401925050819055505b50508080600101915050613961565b5060006002600060018460ff1681548110613dfe57fe5b9060005260206000200160009054906101000a900473ffffffffffffffffffffffffffffffffffffffff1673ffffffffffffffffffffffffffffffffffffffff1673ffffffffffffffffffffffffffffffffffffffff168152602001908152602001600020600c01604051613e72906159c8565b908152602001604051809103902060009054906101000a900460ff168015613f3a57506002600060018460ff1681548110613ea957fe5b9060005260206000200160009054906101000a900473ffffffffffffffffffffffffffffffffffffffff1673ffffffffffffffffffffffffffffffffffffffff1673ffffffffffffffffffffffffffffffffffffffff168152602001908152602001600020600c01604051613f1d906159dd565b908152602001604051809103902060009054906101000a900460ff165b156141b75760006103e8601560ff166002600060018760ff1681548110613f5d57fe5b9060005260206000200160009054906101000a900473ffffffffffffffffffffffffffffffffffffffff1673ffffffffffffffffffffffffffffffffffffffff1673ffffffffffffffffffffffffffffffffffffffff168152602001908152602001600020600601600060028110613fd157fe5b01540281613fdb57fe5b04905060006103e8601560ff166002600060018860ff1681548110613ffc57fe5b9060005260206000200160009054906101000a900473ffffffffffffffffffffffffffffffffffffffff1673ffffffffffffffffffffffffffffffffffffffff1673ffffffffffffffffffffffffffffffffffffffff16815260200190815260200160002060060160016002811061407057fe5b0154028161407a57fe5b049050816002600060018760ff168154811061409257fe5b9060005260206000200160009054906101000a900473ffffffffffffffffffffffffffffffffffffffff1673ffffffffffffffffffffffffffffffffffffffff1673ffffffffffffffffffffffffffffffffffffffff16815260200190815260200160002060060160006002811061410657fe5b0160008282540192505081905550806002600060018760ff168154811061412957fe5b9060005260206000200160009054906101000a900473ffffffffffffffffffffffffffffffffffffffff1673ffffffffffffffffffffffffffffffffffffffff1673ffffffffffffffffffffffffffffffffffffffff16815260200190815260200160002060060160016002811061419d57fe5b016000828254019250508190555080820192505050614386565b6103e8601560ff166002600060018660ff16815481106141d357fe5b9060005260206000200160009054906101000a900473ffffffffffffffffffffffffffffffffffffffff1673ffffffffffffffffffffffffffffffffffffffff1673ffffffffffffffffffffffffffffffffffffffff16815260200190815260200160002060060160006002811061424757fe5b0154028161425157fe5b046002600060018560ff168154811061426657fe5b9060005260206000200160009054906101000a900473ffffffffffffffffffffffffffffffffffffffff1673ffffffffffffffffffffffffffffffffffffffff1673ffffffffffffffffffffffffffffffffffffffff1681526020019081526020016000206006016000600281106142da57fe5b01600082825401925050819055506103e8601560ff166002600060018660ff168154811061430457fe5b9060005260206000200160009054906101000a900473ffffffffffffffffffffffffffffffffffffffff1673ffffffffffffffffffffffffffffffffffffffff1673ffffffffffffffffffffffffffffffffffffffff16815260200190815260200160002060060160006002811061437857fe5b0154028161438257fe5b0490505b806002600060018560ff168154811061439b57fe5b9060005260206000200160009054906101000a900473ffffffffffffffffffffffffffffffffffffffff1673ffffffffffffffffffffffffffffffffffffffff1673ffffffffffffffffffffffffffffffffffffffff1681526020019081526020016000206001016000828254039250508190555060006002600060018560ff168154811061442657fe5b9060005260206000200160009054906101000a900473ffffffffffffffffffffffffffffffffffffffff1673ffffffffffffffffffffffffffffffffffffffff1673ffffffffffffffffffffffffffffffffffffffff1681526020019081526020016000206001015411614981576002600060018460ff16815481106144a857fe5b9060005260206000200160009054906101000a900473ffffffffffffffffffffffffffffffffffffffff1673ffffffffffffffffffffffffffffffffffffffff1673ffffffffffffffffffffffffffffffffffffffff168152602001908152602001600020600c0160405161451c906159c8565b908152602001604051809103902060009054906101000a900460ff161561469e5760006002600060018560ff168154811061455357fe5b9060005260206000200160009054906101000a900473ffffffffffffffffffffffffffffffffffffffff1673ffffffffffffffffffffffffffffffffffffffff1673ffffffffffffffffffffffffffffffffffffffff168152602001908152602001600020600a016040516145c7906159c8565b908152602001604051809103902060009054906101000a900460ff16905060006002600060018660ff16815481106145fb57fe5b9060005260206000200160009054906101000a900473ffffffffffffffffffffffffffffffffffffffff1673ffffffffffffffffffffffffffffffffffffffff1673ffffffffffffffffffffffffffffffffffffffff1681526020019081526020016000206004018260ff166002811061467157fe5b01549050806005600001600082825401925050819055508060056001016000828254039250508190555050505b6002600060018460ff16815481106146b257fe5b9060005260206000200160009054906101000a900473ffffffffffffffffffffffffffffffffffffffff1673ffffffffffffffffffffffffffffffffffffffff1673ffffffffffffffffffffffffffffffffffffffff168152602001908152602001600020600c01604051614726906159dd565b908152602001604051809103902060009054906101000a900460ff16156148a85760006002600060018560ff168154811061475d57fe5b9060005260206000200160009054906101000a900473ffffffffffffffffffffffffffffffffffffffff1673ffffffffffffffffffffffffffffffffffffffff1673ffffffffffffffffffffffffffffffffffffffff168152602001908152602001600020600a016040516147d1906159dd565b908152602001604051809103902060009054906101000a900460ff16905060006002600060018660ff168154811061480557fe5b9060005260206000200160009054906101000a900473ffffffffffffffffffffffffffffffffffffffff1673ffffffffffffffffffffffffffffffffffffffff1673ffffffffffffffffffffffffffffffffffffffff1681526020019081526020016000206004018260ff166002811061487b57fe5b01549050806009600001600082825401925050819055508060096001016000828254039250508190555050505b6002600060018460ff16815481106148bc57fe5b9060005260206000200160009054906101000a900473ffffffffffffffffffffffffffffffffffffffff1673ffffffffffffffffffffffffffffffffffffffff1673ffffffffffffffffffffffffffffffffffffffff168152602001908152602001600020600080820160006101000a81549060ff0219169055600182016000905560028201600061494e9190615234565b60048201600061495e9190615234565b60068201600061496e9190615234565b60088201600061497e9190615242565b50505b505b80806001019150506133d9565b505050565b600061499f6151eb565b60006149a961520d565b600260003373ffffffffffffffffffffffffffffffffffffffff1673ffffffffffffffffffffffffffffffffffffffff16815260200190815260200160002060000160009054906101000a900460ff1660ff169350600260003373ffffffffffffffffffffffffffffffffffffffff1673ffffffffffffffffffffffffffffffffffffffff168152602001908152602001600020600201600280602002604051908101604052809291908260028015614a77576020028201915b815481526020019060010190808311614a63575b50505050509250600260003373ffffffffffffffffffffffffffffffffffffffff1673ffffffffffffffffffffffffffffffffffffffff168152602001908152602001600020600101549150600260003373ffffffffffffffffffffffffffffffffffffffff1673ffffffffffffffffffffffffffffffffffffffff168152602001908152602001600020600801600280602002604051908101604052809291906000905b82821015614bcf578382018054600181600116156101000203166002900480601f016020809104026020016040519081016040528092919081815260200182805460018160011615610100020316600290048015614bbb5780601f10614b9057610100808354040283529160200191614bbb565b820191906000526020600020905b815481529060010190602001808311614b9e57829003601f168201915b505050505081526020019060010190614b1c565b50505050905090919293565b600360003373ffffffffffffffffffffffffffffffffffffffff1673ffffffffffffffffffffffffffffffffffffffff16815260200190815260200160002060009054906101000a900460ff16614c67576040517f08c379a0000000000000000000000000000000000000000000000000000000008152600401614c5e90615acc565b60405180910390fd5b6000600260003373ffffffffffffffffffffffffffffffffffffffff1673ffffffffffffffffffffffffffffffffffffffff168152602001908152602001600020600a01604051614cb7906159c8565b908152602001604051809103902060009054906101000a900460ff1660ff1690506000600460009054906101000a900473ffffffffffffffffffffffffffffffffffffffff1673ffffffffffffffffffffffffffffffffffffffff166398d5fdca6040518163ffffffff1660e01b815260040160206040518083038186803b158015614d4257600080fd5b505afa158015614d56573d6000803e3d6000fd5b505050506040513d601f19601f82011682018060405250810190614d7a9190615359565b9050670de0b6b3a764000083029250826005600001541015614dd1576040517f08c379a0000000000000000000000000000000000000000000000000000000008152600401614dc890615b0c565b60405180910390fd5b808302925082600260003373ffffffffffffffffffffffffffffffffffffffff1673ffffffffffffffffffffffffffffffffffffffff168152602001908152602001600020600101541015614e5b576040517f08c379a0000000000000000000000000000000000000000000000000000000008152600401614e5290615b6c565b60405180910390fd5b82600260003373ffffffffffffffffffffffffffffffffffffffff1673ffffffffffffffffffffffffffffffffffffffff1681526020019081526020016000206001016000828254039250508190555082600260003373ffffffffffffffffffffffffffffffffffffffff1673ffffffffffffffffffffffffffffffffffffffff1681526020019081526020016000206006018360028110614ef957fe5b01600082825401925050819055508060506064850281614f1557fe5b0481614f1d57fe5b04600260003373ffffffffffffffffffffffffffffffffffffffff1673ffffffffffffffffffffffffffffffffffffffff1681526020019081526020016000206004018360028110614f6b57fe5b01600082825401925050819055508060506064850281614f8757fe5b0481614f8f57fe5b04600260003373ffffffffffffffffffffffffffffffffffffffff1673ffffffffffffffffffffffffffffffffffffffff1681526020019081526020016000206002018360028110614fdd57fe5b01600082825403925050819055506001600260003373ffffffffffffffffffffffffffffffffffffffff1673ffffffffffffffffffffffffffffffffffffffff168152602001908152602001600020600c0160405161503b906159c8565b908152602001604051809103902060006101000a81548160ff021916908315150217905550806050606485028161506e57fe5b048161507657fe5b04600560000160008282540392505081905550806050606485028161509757fe5b048161509f57fe5b046005600101600082825401925050819055503373ffffffffffffffffffffffffffffffffffffffff166108fc8285816150d557fe5b049081150290604051600060405180830381858888f19350505050158015615101573d6000803e3d6000fd5b5061510a61328e565b3373ffffffffffffffffffffffffffffffffffffffff167f03951a10935c21c2aac3ad2e2caebf2ccd972c3db450d4bfa44c9dd359862f89846040516151509190615c4c565b60405180910390a2505050565b828054600181600116156101000203166002900490600052602060002090601f01602090048101928261519357600085556151da565b82601f106151ac57805160ff19168380011785556151da565b828001600101855582156151da579182015b828111156151d95782518255916020019190600101906151be565b5b5090506151e79190615263565b5090565b6040518060400160405280600290602082028036833780820191505090505090565b60405180604001604052806002905b606081526020019060019003908161521c5790505090565b506000815560010160009055565b50600081816152519190615280565b5060010160006152619190615280565b565b5b8082111561527c576000816000905550600101615264565b5090565b50805460018160011615610100020316600290046000825580601f106152a657506152c5565b601f0160209004906000526020600020908101906152c49190615263565b5b50565b6000815190506152d781615f33565b92915050565b6000813590506152ec81615f4a565b92915050565b60008151905061530181615f4a565b92915050565b60006020828403121561531957600080fd5b6000615327848285016152c8565b91505092915050565b60006020828403121561534257600080fd5b6000615350848285016152dd565b91505092915050565b60006020828403121561536b57600080fd5b6000615379848285016152f2565b91505092915050565b600061538e83836154c5565b905092915050565b60006153a28383615993565b60208301905092915050565b6153b781615e71565b82525050565b6153c681615e29565b82525050565b60006153d782615dab565b6153e18185615de6565b9350836020820285016153f385615d97565b8060005b8581101561542f57848403895281516154108582615382565b945061541b83615dcc565b925060208a019950506001810190506153f7565b50829750879550505050505092915050565b61544a81615db6565b6154548184615df1565b925061545f82615da1565b8060005b838110156154905781516154778782615396565b965061548283615dd9565b925050600181019050615463565b505050505050565b6154a181615e83565b82525050565b6154b081615ea7565b82525050565b6154bf81615eb9565b82525050565b60006154d082615dc1565b6154da8185615dfc565b93506154ea818560208601615eef565b6154f381615f22565b840191505092915050565b600061550982615dc1565b6155138185615e1e565b9350615523818560208601615eef565b80840191505092915050565b600061553c601483615e0d565b91507f596f75206172656e2774206465706f7369746f720000000000000000000000006000830152602082019050919050565b600061557c602283615e0d565b91507f4572726f722c206465706f736974206d757374206265203e3d20302e3031204560008301527f54480000000000000000000000000000000000000000000000000000000000006020830152604082019050919050565b60006155e2602483615e0d565b91507f506f6f6c206973206e6f7420656e6f75676820746f6b656e20746f206c656e6460008301527f20796f75000000000000000000000000000000000000000000000000000000006020830152604082019050919050565b6000615648602583615e0d565b91507f4e6f77206c697175696469747920646f6e2774206861766520656e6f7567682060008301527f746f6b656e0000000000000000000000000000000000000000000000000000006020830152604082019050919050565b60006156ae602283615e0d565b91507f536d61727420636f6e74726163742062616c616e6365206e6f7420656e6f756760008301527f682e0000000000000000000000000000000000000000000000000000000000006020830152604082019050919050565b6000615714602a83615e0d565b91507f596f7520646f6e2774206861766520656e6f75676820636f6c6c61746572616c60008301527f20746f20626f72726f77000000000000000000000000000000000000000000006020830152604082019050919050565b600061577a601b83615e0d565b91507f596f7520646f6e2774206861766520656e6f75676820746f6b656e00000000006000830152602082019050919050565b60006157ba601683615e0d565b91507f4572726f722c206c6f616e206e6f7420616374697665000000000000000000006000830152602082019050919050565b60006157fa600583615e1e565b91507f45746865720000000000000000000000000000000000000000000000000000006000830152600582019050919050565b600061583a600c83615e0d565b91507f446f6e277420656e6f75676800000000000000000000000000000000000000006000830152602082019050919050565b600061587a600d83615e0d565b91507f7472616e73666572206661696c000000000000000000000000000000000000006000830152602082019050919050565b60006158ba602983615e0d565b91507f596f7520646f6e2774206861766520656e6f6f75676820746f6b656e20746f2060008301527f77696474686472617700000000000000000000000000000000000000000000006020830152604082019050919050565b6000615920601683615e0d565b91507f546f6b656e207472616e73666572206661696c65642e000000000000000000006000830152602082019050919050565b6000615960600783615e1e565b91507f497568436f696e000000000000000000000000000000000000000000000000006000830152600782019050919050565b61599c81615e67565b82525050565b6159ab81615e67565b82525050565b60006159bd82846154fe565b915081905092915050565b60006159d3826157ed565b9150819050919050565b60006159e882615953565b9150819050919050565b6000602082019050615a0760008301846153bd565b92915050565b6000606082019050615a2260008301866153ae565b615a2f60208301856153bd565b615a3c60408301846159a2565b949350505050565b6000604082019050615a5960008301856153ae565b615a6660208301846154a7565b9392505050565b6000604082019050615a8260008301856153ae565b615a8f60208301846159a2565b9392505050565b6000602082019050615aab6000830184615498565b92915050565b6000602082019050615ac660008301846154b6565b92915050565b60006020820190508181036000830152615ae58161552f565b9050919050565b60006020820190508181036000830152615b058161556f565b9050919050565b60006020820190508181036000830152615b25816155d5565b9050919050565b60006020820190508181036000830152615b458161563b565b9050919050565b60006020820190508181036000830152615b65816156a1565b9050919050565b60006020820190508181036000830152615b8581615707565b9050919050565b60006020820190508181036000830152615ba58161576d565b9050919050565b60006020820190508181036000830152615bc5816157ad565b9050919050565b60006020820190508181036000830152615be58161582d565b9050919050565b60006020820190508181036000830152615c058161586d565b9050919050565b60006020820190508181036000830152615c25816158ad565b9050919050565b60006020820190508181036000830152615c4581615913565b9050919050565b6000602082019050615c6160008301846159a2565b92915050565b600060c082019050615c7c60008301876159a2565b615c896020830186615441565b615c966060830185615441565b81810360a0830152615ca881846153cc565b905095945050505050565b600060a082019050615cc860008301876159a2565b615cd56020830186615441565b615ce260608301856159a2565b8181036080830152615cf481846153cc565b905095945050505050565b6000604082019050615d1460008301856159a2565b615d2160208301846159a2565b9392505050565b600060e082019050615d3d600083018a6159a2565b615d4a60208301896159a2565b615d5760408301886159a2565b615d6460608301876159a2565b615d7160808301866159a2565b615d7e60a08301856159a2565b615d8b60c08301846159a2565b98975050505050505050565b6000819050919050565b6000819050919050565b600060029050919050565b600060029050919050565b600081519050919050565b6000602082019050919050565b6000602082019050919050565b600081905092915050565b600081905092915050565b600082825260208201905092915050565b600082825260208201905092915050565b600081905092915050565b6000615e3482615e47565b9050919050565b60008115159050919050565b600073ffffffffffffffffffffffffffffffffffffffff82169050919050565b6000819050919050565b6000615e7c82615ecb565b9050919050565b6000615e8e82615e95565b9050919050565b6000615ea082615e47565b9050919050565b6000615eb282615e67565b9050919050565b6000615ec482615e67565b9050919050565b6000615ed682615edd565b9050919050565b6000615ee882615e47565b9050919050565b60005b83811015615f0d578082015181840152602081019050615ef2565b83811115615f1c576000848401525b50505050565b6000601f19601f8301169050919050565b615f3c81615e3b565b8114615f4757600080fd5b50565b615f5381615e67565b8114615f5e57600080fd5b5056fea2646970667358221220d14106fbd61181c072c63eee877c08df7bed54d4195dd599713d225c5715ba0264736f6c63430007060033",
  "immutableReferences": {},
  "source": "// SPDX-License-Identifier: MIT\r\npragma solidity >=0.6.0 <0.8.0;\r\npragma experimental ABIEncoderV2;\r\nimport \"./oracle.sol\";\r\nimport \"./IuhCoin.sol\";\r\n\r\ncontract iuhBank {\r\n  iuhCoin private iuhcoin;\r\n  uint8 constant exchangeLendRate = 20;\r\n  uint8 constant exchangeBorrowRate = 21;\r\n    struct pool{\r\n      uint totalAmount;\r\n      uint borrowAmount;\r\n      uint price;\r\n      uint8 lendRate;\r\n      uint8 borrowRate;\r\n    }\r\n    struct UserInfo{\r\n      uint8 index;\r\n      uint Collateral;\r\n      uint[2] LendAmount;\r\n      uint[2] frezeAmount;\r\n      uint[2] Borrow;\r\n      string[2] tokenName;\r\n      mapping(string => uint8) token;\r\n      mapping(string => bool) isToken;\r\n      mapping(string => bool) isBorrowed;\r\n    }\r\n    address[] userAddress;\r\n    mapping(address => UserInfo) user;\r\n    mapping(address => bool) isDeposited;\r\n   \r\n    Oracle public oracle;\r\n     \r\n    constructor(Oracle _oracle, iuhCoin _iuhcoin) public{\r\n      oracle = _oracle;\r\n      iuhcoin = _iuhcoin;\r\n      EtherToken.price = oracle.getPrice();\r\n      IuhToken.price = oracle.getIuhPrice();\r\n    }\r\n    pool EtherToken = pool({\r\n          totalAmount:0 ,\r\n          borrowAmount: 0 ,\r\n          price: 0,\r\n          lendRate: 20,\r\n          borrowRate: 21});\r\n      pool IuhToken = pool({\r\n          totalAmount:0 ,\r\n          borrowAmount: 0 ,\r\n          price: 0,\r\n          lendRate: 20,\r\n          borrowRate: 21});\r\n    \r\n    event Deposit(address indexed user, uint etherAmount, uint timeStart);\r\n    event Withdraw(address indexed user, uint etherAmount);\r\n    event Borrowing(address indexed user, uint amount);\r\n    event Repay(address indexed user);\r\n\r\n    modifier depositor{\r\n      require(isDeposited[msg.sender],\"You aren't depositor\");\r\n      _;\r\n    }\r\n\r\n    function depositEther()  payable public {\r\n    require(msg.value>=1e16, 'Error, deposit must be >= 0.01 ETH');\r\n    uint8 index;\r\n\r\n    if (!isDeposited[msg.sender]) {\r\n        userAddress.push(msg.sender);\r\n    }\r\n\r\n    if (!user[msg.sender].isToken[\"Ether\"]) {\r\n        index = user[msg.sender].index;\r\n        user[msg.sender].token[\"Ether\"] = index;\r\n        user[msg.sender].index++;\r\n        user[msg.sender].isToken[\"Ether\"] = true;\r\n    } else {\r\n        index = user[msg.sender].token[\"Ether\"];\r\n    }\r\n    uint price = oracle.getPrice();\r\n    uint value = msg.value;\r\n    uint collateral = (value * price * 8) / 10;\r\n    EtherToken.totalAmount += value;\r\n    user[msg.sender].LendAmount[index] += value;\r\n    user[msg.sender].tokenName[index] = \"Ether\";\r\n    user[msg.sender].Collateral += collateral;\r\n    updateRate();\r\n    isDeposited[msg.sender] = true;\r\n\r\n    emit Deposit(msg.sender, value, block.timestamp);\r\n  }\r\n  function depositIuhCoin( uint amount)  payable public {\r\n    amount = amount * 10 **18;\r\n    require(amount>=1e16, 'Error, deposit must be >= 0.01 ETH');\r\n    uint8 index;\r\n    if(!isDeposited[msg.sender]){\r\n      userAddress.push(msg.sender);\r\n    }\r\n    if(!user[msg.sender].isToken[\"IuhCoin\"]){\r\n      index = user[msg.sender].index;\r\n      user[msg.sender].token[\"IuhCoin\"] = index;\r\n      user[msg.sender].index +=1;\r\n      user[msg.sender].isToken[\"IuhCoin\"] =true;\r\n    }else{\r\n        index =user[msg.sender].token[\"IuhCoin\"];\r\n    }\r\n      \r\n    require(iuhcoin.transferFrom(msg.sender,address(this),amount), \"transfer fail\");\r\n    IuhToken.totalAmount += amount;\r\n    user[msg.sender].LendAmount[index] += amount;\r\n    user[msg.sender].tokenName[index] = \"IuhCoin\";\r\n    user[msg.sender].Collateral += (msg.value * oracle.getIuhPrice() * 80 ) / 100;\r\n    updateRate();\r\n    isDeposited[msg.sender] = true;\r\n    emit Deposit(msg.sender, amount, block.timestamp);\r\n  }\r\n  function updateRate() public {\r\n    uint etherPrice = oracle.getPrice();\r\n    uint iuhCoinPrice = oracle.getIuhPrice();\r\n    for (uint8 i = 0; i < userAddress.length ; i++) \r\n    {\r\n      if(user[userAddress[i]].Collateral <= 0){\r\n        if(user[userAddress[i]].isBorrowed[\"Ether\"]){ \r\n        uint8 etherIndex = user[userAddress[i]].token[\"Ether\"];\r\n        uint freze =  user[userAddress[i]].frezeAmount[etherIndex];\r\n        EtherToken.totalAmount += freze;\r\n        EtherToken.borrowAmount -= freze;\r\n        }\r\n        \r\n        if(user[userAddress[i]].isBorrowed[\"IuhCoin\"]){ \r\n        uint8 iuhIndex = user[userAddress[i]].token[\"IuhCoin\"];\r\n        uint freze =  user[userAddress[i]].frezeAmount[iuhIndex];\r\n        IuhToken.totalAmount += freze;\r\n        IuhToken.borrowAmount -= freze;  \r\n        }\r\n        delete user[userAddress[i]];\r\n        }else{\r\n      for(uint j = 0; j < user[userAddress[i]].index ;j++){\r\n        uint value1 =((user[userAddress[i]].LendAmount[j] * exchangeLendRate) / 1000);\r\n        user[userAddress[i]].LendAmount[j] += value1;\r\n        string memory tokenName = user[userAddress[i]].tokenName[j];\r\n        if (keccak256(abi.encodePacked(tokenName)) == keccak256(abi.encodePacked(\"Ether\"))) {\r\n          user[userAddress[i]].Collateral += (value1 * etherPrice * 80 ) / 100;\r\n        } else{\r\n          user[userAddress[i]].Collateral += (value1 * iuhCoinPrice * 80 ) / 100;\r\n        }\r\n      }\r\n      uint addBorrow = 0;\r\n      if(user[userAddress[i]].isBorrowed[\"Ether\"] && user[userAddress[i]].isBorrowed[\"IuhCoin\"]  ){\r\n        uint value1 = ((user[userAddress[i]].Borrow[0] * exchangeBorrowRate) / 1000);\r\n        uint value2 = ((user[userAddress[i]].Borrow[1] * exchangeBorrowRate) / 1000);\r\n        user[userAddress[i]].Borrow[0] += value1;\r\n        user[userAddress[i]].Borrow[1] += value2;\r\n        addBorrow = value1 + value2;\r\n      }else{\r\n        user[userAddress[i]].Borrow[0] +=((user[userAddress[i]].Borrow[0] * exchangeBorrowRate) / 1000);\r\n        addBorrow = ((user[userAddress[i]].Borrow[0] * exchangeBorrowRate) / 1000);\r\n      }\r\n      user[userAddress[i]].Collateral -= addBorrow;\r\n      if(user[userAddress[i]].Collateral <= 0){\r\n        if(user[userAddress[i]].isBorrowed[\"Ether\"]){ \r\n        uint8 etherIndex = user[userAddress[i]].token[\"Ether\"];\r\n        uint freze =  user[userAddress[i]].frezeAmount[etherIndex];\r\n        EtherToken.totalAmount += freze;\r\n        EtherToken.borrowAmount -= freze;\r\n        }\r\n        \r\n        if(user[userAddress[i]].isBorrowed[\"IuhCoin\"]){ \r\n        uint8 iuhIndex = user[userAddress[i]].token[\"IuhCoin\"];\r\n        uint freze =  user[userAddress[i]].frezeAmount[iuhIndex];\r\n        IuhToken.totalAmount += freze;\r\n        IuhToken.borrowAmount -= freze;  \r\n        }\r\n        delete user[userAddress[i]];\r\n        }\r\n    }}\r\n  }\r\n  function withdrawEther(uint amount) depositor public {\r\n    // thc hin rt\r\n    uint index = user[msg.sender].token[\"Ether\"]; \r\n    require(EtherToken.totalAmount >= amount, \"Now liquidity don't have enough token\");\r\n    require(amount <= user[msg.sender].LendAmount[index], \"You don't have enoough token to widthdraw\");\r\n\r\n    user[msg.sender].Collateral -= (amount * oracle.getPrice() * 80 ) / 100;\r\n    //ci t trng thi pool\r\n    EtherToken.totalAmount -= amount;\r\n    user[msg.sender].LendAmount[index] -= amount;\r\n    msg.sender.transfer(amount);\r\n    updateRate();\r\n    emit Withdraw(msg.sender, amount);\r\n  }\r\n  function withdrawIuh(uint amount) depositor  public {\r\n    // thc hin rt\r\n    uint index = user[msg.sender].token[\"IuhCoin\"]; \r\n    require(IuhToken.totalAmount >= amount,\"Now liquidity don't have enough token\");\r\n    require(amount <= user[msg.sender].LendAmount[index], \"You don't have enough token\");\r\n     // Kim tra s d token ca smart contract tr li cho ngi dng\r\n    require(iuhcoin.balanceOf(address(this)) >= amount, \"Smart contract balance not enough.\");\r\n    // Chuyn token t smart contract tr li cho ngi dng\r\n    require(iuhcoin.transfer(msg.sender, amount), \"Token transfer failed.\");\r\n    //ci t trng thi pool\r\n    user[msg.sender].Collateral -= (amount * oracle.getIuhPrice() * 80) / (100);\r\n    IuhToken.totalAmount -= amount;\r\n    user[msg.sender].LendAmount[index] -= amount;\r\n    updateRate();\r\n    emit Withdraw(msg.sender, amount);\r\n  }\r\n  \r\n  function borrowingEth(uint amount) depositor public {\r\n    uint index = user[msg.sender].token[\"Ether\"]; \r\n    uint etherPrice = oracle.getPrice();\r\n    amount = amount * 10 **18;\r\n    require(EtherToken.totalAmount >= amount, \"Pool is not enough token to lend you\");\r\n\r\n    amount = amount  * etherPrice; \r\n    require(user[msg.sender].Collateral >= amount, \"You don't have enough collateral to borrow\");\r\n\r\n    user[msg.sender].Collateral -= amount;\r\n    user[msg.sender].Borrow[index] += amount;\r\n    user[msg.sender].frezeAmount[index] += ((amount * 100)/80) / etherPrice;\r\n    user[msg.sender].LendAmount[index] -= ((amount * 100)/80) / etherPrice;\r\n    user[msg.sender].isBorrowed[\"Ether\"] = true;\r\n\r\n    EtherToken.totalAmount -= ((amount * 100)/80) / etherPrice;\r\n    EtherToken.borrowAmount += ((amount * 100)/80) / etherPrice;\r\n\r\n    msg.sender.transfer(amount / etherPrice);\r\n    updateRate();\r\n    emit Borrowing(msg.sender, amount);\r\n  }\r\n\r\n  function borrowingIuhCoin(uint amount) depositor public {\r\n    uint index = user[msg.sender].token[\"IuhCoin\"]; \r\n    uint price = oracle.getIuhPrice();\r\n    amount = amount * 10 **18;\r\n    require(IuhToken.totalAmount >= amount, \"Pool is not enough token to lend you\");\r\n    amount = amount * price; \r\n\r\n    require(user[msg.sender].Collateral>= amount, \"You don't have enough collateral to borrow\");\r\n    user[msg.sender].Collateral -= amount;\r\n    user[msg.sender].Borrow[index] += amount;\r\n    user[msg.sender].frezeAmount[index] += ((amount * 100)/80) / price;\r\n    user[msg.sender].isBorrowed[\"IuhCoin\"] = true;\r\n\r\n    IuhToken.totalAmount -= ((amount * 100)/80) / price;\r\n    IuhToken.borrowAmount += ((amount * 100)/80) / price;\r\n    iuhcoin.transfer(msg.sender, amount / price);\r\n    updateRate();\r\n    emit Borrowing(msg.sender, amount);\r\n  }\r\n\r\n  function repayEther() payable public {\r\n    require(user[msg.sender].isBorrowed[\"Ether\"] == true, 'Error, loan not active');\r\n    uint price = oracle.getPrice();\r\n    uint index = user[msg.sender].token[\"Ether\"];\r\n    uint payAmount = msg.value * price;\r\n    uint freze = user[msg.sender].frezeAmount[index];\r\n    require(payAmount == user[msg.sender].Borrow[index], \"Don't enough\");\r\n\r\n    user[msg.sender].Borrow[index] = 0;\r\n    user[msg.sender].LendAmount[index] +=  freze;\r\n    user[msg.sender].Collateral += (freze * price * 80) / 100;\r\n    user[msg.sender].frezeAmount[index] = 0;\r\n\r\n    user[msg.sender].isBorrowed[\"Ether\"] = false;\r\n\r\n    EtherToken.totalAmount += freze;\r\n    EtherToken.borrowAmount -= freze;\r\n\r\n    updateRate();\r\n    emit Repay(msg.sender);\r\n  }\r\n\r\n  function repayIuhCoin(uint amount) payable public {\r\n    require(user[msg.sender].isBorrowed[\"IuhCoin\"] == true, 'Error, loan not active');\r\n    uint price = oracle.getIuhPrice();\r\n    uint index = user[msg.sender].token[\"IuhCoin\"];\r\n    uint payAmount = amount * price ;\r\n    uint freze = user[msg.sender].frezeAmount[index];\r\n    require(payAmount == user[msg.sender].Borrow[index], \"Don't enough\");\r\n    \r\n    user[msg.sender].Borrow[index] = 0;\r\n    user[msg.sender].Collateral += (freze * price *80) /100 ;\r\n    user[msg.sender].frezeAmount[index] = 0;\r\n    user[msg.sender].isBorrowed[\"IuhCoin\"] = false;\r\n\r\n    IuhToken.totalAmount += freze;\r\n    IuhToken.borrowAmount -= freze;\r\n    updateRate();\r\n    emit Repay(msg.sender);\r\n  }\r\n  // ly thng tin ngi dng\r\n\r\n  function getUserSupplied() public view returns(uint  index,uint[2] memory LendAmount, uint  Collateral, string[2] memory tokenName ){\r\n    index = user[msg.sender].index;\r\n    LendAmount = user[msg.sender].LendAmount;\r\n    Collateral = user[msg.sender].Collateral;\r\n    tokenName = user[msg.sender].tokenName;\r\n  }\r\n  function getUserBorrow() public view returns(uint  index,uint[2] memory Borrow,uint[2] memory frezeAmount, string[2] memory tokenName ){\r\n    index = user[msg.sender].index;\r\n    Borrow = user[msg.sender].Borrow;\r\n    frezeAmount = user[msg.sender].frezeAmount;\r\n    tokenName = user[msg.sender].tokenName;\r\n  }\r\n\r\n  // Ly thng tin h\r\n  function getEtherPoolInfo() public view returns (uint  totalAmount, \r\n  uint borrowAmount, uint  price, uint lendRate, uint borrowRate,uint totalAmountInUsd , uint borrowAmountInUsd) {\r\n    totalAmount = EtherToken.totalAmount;\r\n    borrowAmount = EtherToken.borrowAmount;\r\n    totalAmountInUsd = EtherToken.totalAmount * oracle.getPrice();\r\n    borrowAmountInUsd = EtherToken.borrowAmount * oracle.getPrice();\r\n    price = EtherToken.price;\r\n    lendRate = EtherToken.lendRate;\r\n    borrowRate = EtherToken.borrowRate;\r\n  }\r\n  function getIuhCoinPoolInfo() external view returns (uint  totalAmount, \r\n  uint borrowAmount, uint  price, uint lendRate, uint borrowRate, uint totalAmountInUsd, uint borrowAmountInUsd) {\r\n    totalAmount = IuhToken.totalAmount;\r\n    borrowAmount = IuhToken.borrowAmount;\r\n    totalAmountInUsd = IuhToken.totalAmount * oracle.getIuhPrice();\r\n    borrowAmountInUsd = IuhToken.borrowAmount * oracle.getIuhPrice();\r\n    price = IuhToken.price;\r\n    lendRate = IuhToken.lendRate;\r\n    borrowRate = IuhToken.borrowRate;\r\n  }\r\n  function getTotalLiquidInUsd() external view returns(uint){\r\n    return (address(this).balance * oracle.getPrice()) + (iuhcoin.balanceOf(address(this)) * oracle.getIuhPrice());\r\n  }\r\n  function updatePrice() public {\r\n    oracle.setPrice(2000);\r\n    updateRate();\r\n  }\r\n  function mintIuhCoin() public{\r\n    iuhcoin.mint(msg.sender, 100 *10 **18);\r\n  }\r\n}\r\n\r\n\r\n",
  "sourcePath": "C:\\Users\\acer\\client\\contracts\\dBank.sol",
  "compiler": {
    "name": "solc",
    "version": "0.7.6+commit.7338295f.Emscripten.clang"
  },
  "schemaVersion": "3.4.12",
  "updatedAt": "2023-05-06T01:29:26.884Z",
  "networkType": "ethereum",
  "devdoc": {
    "kind": "dev",
    "methods": {},
    "version": 1
  },
  "userdoc": {
    "kind": "user",
    "methods": {},
    "version": 1
  }
}