{
  "contractName": "LoanContract",
  "abi": [
    {
      "inputs": [
        {
          "internalType": "contract iuhCoin",
          "name": "_iuhcoin",
          "type": "address"
        }
      ],
      "stateMutability": "nonpayable",
      "type": "constructor"
    },
    {
      "anonymous": false,
      "inputs": [
        {
          "indexed": true,
          "internalType": "uint256",
          "name": "requestId",
          "type": "uint256"
        },
        {
          "indexed": true,
          "internalType": "address",
          "name": "borrower",
          "type": "address"
        },
        {
          "indexed": true,
          "internalType": "address",
          "name": "lender",
          "type": "address"
        }
      ],
      "name": "LoanClosed",
      "type": "event"
    },
    {
      "anonymous": false,
      "inputs": [
        {
          "indexed": true,
          "internalType": "uint256",
          "name": "requestId",
          "type": "uint256"
        },
        {
          "indexed": true,
          "internalType": "address",
          "name": "borrower",
          "type": "address"
        },
        {
          "indexed": true,
          "internalType": "address",
          "name": "lender",
          "type": "address"
        },
        {
          "indexed": false,
          "internalType": "uint256",
          "name": "amount",
          "type": "uint256"
        }
      ],
      "name": "LoanRepaid",
      "type": "event"
    },
    {
      "anonymous": false,
      "inputs": [
        {
          "indexed": true,
          "internalType": "uint256",
          "name": "requestId",
          "type": "uint256"
        }
      ],
      "name": "LoanRequested",
      "type": "event"
    },
    {
      "anonymous": false,
      "inputs": [
        {
          "indexed": true,
          "internalType": "uint256",
          "name": "requestId",
          "type": "uint256"
        },
        {
          "indexed": true,
          "internalType": "address",
          "name": "borrower",
          "type": "address"
        },
        {
          "indexed": true,
          "internalType": "address",
          "name": "lender",
          "type": "address"
        },
        {
          "indexed": false,
          "internalType": "uint256",
          "name": "amount",
          "type": "uint256"
        },
        {
          "indexed": false,
          "internalType": "uint256",
          "name": "deposit",
          "type": "uint256"
        }
      ],
      "name": "LoanTaken",
      "type": "event"
    },
    {
      "inputs": [
        {
          "internalType": "uint256",
          "name": "",
          "type": "uint256"
        }
      ],
      "name": "loanRequests",
      "outputs": [
        {
          "internalType": "address payable",
          "name": "owner",
          "type": "address"
        },
        {
          "internalType": "address payable",
          "name": "borrower",
          "type": "address"
        },
        {
          "internalType": "uint256",
          "name": "amount",
          "type": "uint256"
        },
        {
          "internalType": "uint256",
          "name": "deposit",
          "type": "uint256"
        },
        {
          "internalType": "uint256",
          "name": "interestRate",
          "type": "uint256"
        },
        {
          "internalType": "uint256",
          "name": "loanDuration",
          "type": "uint256"
        },
        {
          "internalType": "uint256",
          "name": "timestamp",
          "type": "uint256"
        },
        {
          "internalType": "string",
          "name": "token",
          "type": "string"
        },
        {
          "internalType": "string",
          "name": "tokenCollateral",
          "type": "string"
        },
        {
          "internalType": "bool",
          "name": "borrowed",
          "type": "bool"
        },
        {
          "internalType": "bool",
          "name": "returned",
          "type": "bool"
        },
        {
          "internalType": "bool",
          "name": "closed",
          "type": "bool"
        }
      ],
      "stateMutability": "view",
      "type": "function",
      "constant": true
    },
    {
      "inputs": [],
      "name": "requestIndex",
      "outputs": [
        {
          "internalType": "uint256",
          "name": "",
          "type": "uint256"
        }
      ],
      "stateMutability": "view",
      "type": "function",
      "constant": true
    },
    {
      "inputs": [
        {
          "internalType": "uint256",
          "name": "_amount",
          "type": "uint256"
        },
        {
          "internalType": "uint256",
          "name": "_deposit",
          "type": "uint256"
        },
        {
          "internalType": "uint256",
          "name": "_interestRate",
          "type": "uint256"
        },
        {
          "internalType": "uint256",
          "name": "_loanDuration",
          "type": "uint256"
        },
        {
          "internalType": "string",
          "name": "_token",
          "type": "string"
        },
        {
          "internalType": "string",
          "name": "_tokenCollateral",
          "type": "string"
        }
      ],
      "name": "createLoanRequest",
      "outputs": [],
      "stateMutability": "payable",
      "type": "function",
      "payable": true
    },
    {
      "inputs": [
        {
          "internalType": "uint256",
          "name": "_amount",
          "type": "uint256"
        },
        {
          "internalType": "uint256",
          "name": "_deposit",
          "type": "uint256"
        },
        {
          "internalType": "uint256",
          "name": "_interestRate",
          "type": "uint256"
        },
        {
          "internalType": "uint256",
          "name": "_loanDuration",
          "type": "uint256"
        },
        {
          "internalType": "string",
          "name": "_token",
          "type": "string"
        },
        {
          "internalType": "string",
          "name": "_tokenCollateral",
          "type": "string"
        }
      ],
      "name": "createLoanRequestByIuhCoin",
      "outputs": [],
      "stateMutability": "nonpayable",
      "type": "function"
    },
    {
      "inputs": [
        {
          "internalType": "uint256",
          "name": "requestId",
          "type": "uint256"
        },
        {
          "internalType": "uint256",
          "name": "amount",
          "type": "uint256"
        }
      ],
      "name": "takeLoanByIuhCoin",
      "outputs": [],
      "stateMutability": "payable",
      "type": "function",
      "payable": true
    },
    {
      "inputs": [
        {
          "internalType": "uint256",
          "name": "requestId",
          "type": "uint256"
        }
      ],
      "name": "takeLoanByEther",
      "outputs": [],
      "stateMutability": "payable",
      "type": "function",
      "payable": true
    },
    {
      "inputs": [
        {
          "internalType": "uint256",
          "name": "requestId",
          "type": "uint256"
        }
      ],
      "name": "repayLoanByEther",
      "outputs": [],
      "stateMutability": "payable",
      "type": "function",
      "payable": true
    },
    {
      "inputs": [
        {
          "internalType": "uint256",
          "name": "requestId",
          "type": "uint256"
        },
        {
          "internalType": "uint256",
          "name": "amount",
          "type": "uint256"
        }
      ],
      "name": "repayLoanByIuhCoin",
      "outputs": [],
      "stateMutability": "payable",
      "type": "function",
      "payable": true
    },
    {
      "inputs": [
        {
          "internalType": "uint256",
          "name": "requestId",
          "type": "uint256"
        }
      ],
      "name": "cancelLoan",
      "outputs": [],
      "stateMutability": "nonpayable",
      "type": "function"
    },
    {
      "inputs": [
        {
          "internalType": "uint256",
          "name": "requestId",
          "type": "uint256"
        }
      ],
      "name": "widthdraw",
      "outputs": [],
      "stateMutability": "nonpayable",
      "type": "function"
    },
    {
      "inputs": [
        {
          "internalType": "uint256",
          "name": "requestId",
          "type": "uint256"
        }
      ],
      "name": "check",
      "outputs": [
        {
          "internalType": "bool",
          "name": "",
          "type": "bool"
        }
      ],
      "stateMutability": "view",
      "type": "function",
      "constant": true
    },
    {
      "inputs": [
        {
          "internalType": "uint256",
          "name": "index",
          "type": "uint256"
        }
      ],
      "name": "getInfo",
      "outputs": [
        {
          "internalType": "address",
          "name": "owner",
          "type": "address"
        },
        {
          "internalType": "address",
          "name": "borrower",
          "type": "address"
        },
        {
          "internalType": "uint256",
          "name": "amount",
          "type": "uint256"
        },
        {
          "internalType": "uint256",
          "name": "deposit",
          "type": "uint256"
        },
        {
          "internalType": "uint256",
          "name": "interestRate",
          "type": "uint256"
        },
        {
          "internalType": "uint256",
          "name": "loanDuration",
          "type": "uint256"
        },
        {
          "internalType": "uint256",
          "name": "timestamp",
          "type": "uint256"
        },
        {
          "internalType": "string",
          "name": "token",
          "type": "string"
        },
        {
          "internalType": "string",
          "name": "tokenCollateral",
          "type": "string"
        },
        {
          "internalType": "bool",
          "name": "returned",
          "type": "bool"
        },
        {
          "internalType": "bool",
          "name": "borrowed",
          "type": "bool"
        },
        {
          "internalType": "bool",
          "name": "closed",
          "type": "bool"
        }
      ],
      "stateMutability": "view",
      "type": "function",
      "constant": true
    },
    {
      "inputs": [],
      "name": "getResqestAmount",
      "outputs": [
        {
          "internalType": "uint256",
          "name": "",
          "type": "uint256"
        }
      ],
      "stateMutability": "view",
      "type": "function",
      "constant": true
    }
  ],
  "bytecode": "0x608060405260006001553480156200001657600080fd5b50604051620039ee380380620039ee83398181016040528101906200003c91906200009b565b80600260006101000a81548173ffffffffffffffffffffffffffffffffffffffff021916908373ffffffffffffffffffffffffffffffffffffffff1602179055505062000129565b60008151905062000095816200010f565b92915050565b600060208284031215620000ae57600080fd5b6000620000be8482850162000084565b91505092915050565b6000620000d482620000ef565b9050919050565b6000620000e882620000c7565b9050919050565b600073ffffffffffffffffffffffffffffffffffffffff82169050919050565b6200011a81620000db565b81146200012657600080fd5b50565b6138b580620001396000396000f3fe6080604052600436106100c25760003560e01c80635f72f4501161007f578063bdbfa3de11610059578063bdbfa3de1461023b578063d1b332f414610264578063e0da260c146102ac578063f7c93ac0146102d5576100c2565b80635f72f450146101b75780638a79ea26146101f4578063b034d2ab1461021f576100c2565b80631a3cd59a146100c75780631cf79ba71461010f5780633b7534871461012b578063420714bd146101475780634d5d83ab146101725780635bbef6a81461018e575b600080fd5b3480156100d357600080fd5b506100ee60048036038101906100e99190612a02565b6102f1565b6040516101069c9b9a999897969594939291906133a8565b60405180910390f35b61012960048036038101906101249190612a2b565b610514565b005b61014560048036038101906101409190612a02565b6109b6565b005b34801561015357600080fd5b5061015c610d5a565b604051610169919061368b565b60405180910390f35b61018c60048036038101906101879190612a02565b610d60565b005b34801561019a57600080fd5b506101b560048036038101906101b09190612a67565b611266565b005b3480156101c357600080fd5b506101de60048036038101906101d99190612a02565b6116c3565b6040516101eb9190613470565b60405180910390f35b34801561020057600080fd5b506102096116f6565b604051610216919061368b565b60405180910390f35b61023960048036038101906102349190612a2b565b611700565b005b34801561024757600080fd5b50610262600480360381019061025d9190612a02565b611cb0565b005b34801561027057600080fd5b5061028b60048036038101906102869190612a02565b611f8a565b6040516102a39c9b9a99989796959493929190613280565b60405180910390f35b3480156102b857600080fd5b506102d360048036038101906102ce9190612a02565b612181565b005b6102ef60048036038101906102ea9190612a67565b6124ec565b005b60008060008060008060006060806000806000806000808f815260200190815260200160002090508060000160009054906101000a900473ffffffffffffffffffffffffffffffffffffffff169c508060010160009054906101000a900473ffffffffffffffffffffffffffffffffffffffff169b5080600201549a5080600301549950806004015498508060050154975080600601549650806007018054600181600116156101000203166002900480601f0160208091040260200160405190810160405280929190818152602001828054600181600116156101000203166002900480156104225780601f106103f757610100808354040283529160200191610422565b820191906000526020600020905b81548152906001019060200180831161040557829003601f168201915b50505050509550806008018054600181600116156101000203166002900480601f0160208091040260200160405190810160405280929190818152602001828054600181600116156101000203166002900480156104c15780601f10610496576101008083540402835291602001916104c1565b820191906000526020600020905b8154815290600101906020018083116104a457829003601f168201915b505050505094508060090160019054906101000a900460ff1693508060090160009054906101000a900460ff1692508060090160029054906101000a900460ff1691505091939597999b5091939597999b565b60008060008481526020019081526020016000209050670de0b6b3a7640000820291508060090160009054906101000a900460ff1615610589576040517f08c379a00000000000000000000000000000000000000000000000000000000081526004016105809061350b565b60405180910390fd5b806003015482146105cf576040517f08c379a00000000000000000000000000000000000000000000000000000000081526004016105c69061366b565b60405180910390fd5b8060000160009054906101000a900473ffffffffffffffffffffffffffffffffffffffff1673ffffffffffffffffffffffffffffffffffffffff163373ffffffffffffffffffffffffffffffffffffffff161415610662576040517f08c379a00000000000000000000000000000000000000000000000000000000081526004016106599061354b565b60405180910390fd5b600260009054906101000a900473ffffffffffffffffffffffffffffffffffffffff1673ffffffffffffffffffffffffffffffffffffffff166323b872dd3330856040518463ffffffff1660e01b81526004016106c193929190613348565b602060405180830381600087803b1580156106db57600080fd5b505af11580156106ef573d6000803e3d6000fd5b505050506040513d601f19601f8201168201806040525081019061071391906129d9565b610752576040517f08c379a00000000000000000000000000000000000000000000000000000000081526004016107499061364b565b60405180910390fd5b60405160200161076190613234565b604051602081830303815290604052805190602001208160070160405160200161078b9190613208565b60405160208183030381529060405280519060200120141561086857600260009054906101000a900473ffffffffffffffffffffffffffffffffffffffff1673ffffffffffffffffffffffffffffffffffffffff1663a9059cbb3383600201546040518363ffffffff1660e01b815260040161080892919061337f565b602060405180830381600087803b15801561082257600080fd5b505af1158015610836573d6000803e3d6000fd5b505050506040513d601f19601f8201168201806040525081019061085a91906129d9565b61086357600080fd5b6108b4565b3373ffffffffffffffffffffffffffffffffffffffff166108fc82600201549081150290604051600060405180830381858888f193505050501580156108b2573d6000803e3d6000fd5b505b338160010160006101000a81548173ffffffffffffffffffffffffffffffffffffffff021916908373ffffffffffffffffffffffffffffffffffffffff16021790555042816006018190555060018160090160006101000a81548160ff0219169083151502179055503373ffffffffffffffffffffffffffffffffffffffff168160010160009054906101000a900473ffffffffffffffffffffffffffffffffffffffff1673ffffffffffffffffffffffffffffffffffffffff16847f61be8e36d163e49ba6fce03d9b68ca9a76ad948bcd66c79a6d49e557f2e8e2ab846002015485600301546040516109a99291906136a6565b60405180910390a4505050565b600080600083815260200190815260200160002090508060090160009054906101000a900460ff1615610a1e576040517f08c379a0000000000000000000000000000000000000000000000000000000008152600401610a159061350b565b60405180910390fd5b80600301543414610a64576040517f08c379a0000000000000000000000000000000000000000000000000000000008152600401610a5b9061366b565b60405180910390fd5b8060000160009054906101000a900473ffffffffffffffffffffffffffffffffffffffff1673ffffffffffffffffffffffffffffffffffffffff163373ffffffffffffffffffffffffffffffffffffffff161415610af7576040517f08c379a0000000000000000000000000000000000000000000000000000000008152600401610aee9061354b565b60405180910390fd5b604051602001610b0690613234565b6040516020818303038152906040528051906020012081600701604051602001610b309190613208565b604051602081830303815290604052805190602001201415610c0d57600260009054906101000a900473ffffffffffffffffffffffffffffffffffffffff1673ffffffffffffffffffffffffffffffffffffffff1663a9059cbb3383600201546040518363ffffffff1660e01b8152600401610bad92919061337f565b602060405180830381600087803b158015610bc757600080fd5b505af1158015610bdb573d6000803e3d6000fd5b505050506040513d601f19601f82011682018060405250810190610bff91906129d9565b610c0857600080fd5b610c59565b3373ffffffffffffffffffffffffffffffffffffffff166108fc82600201549081150290604051600060405180830381858888f19350505050158015610c57573d6000803e3d6000fd5b505b338160010160006101000a81548173ffffffffffffffffffffffffffffffffffffffff021916908373ffffffffffffffffffffffffffffffffffffffff16021790555060018160090160006101000a81548160ff0219169083151502179055504281600601819055503373ffffffffffffffffffffffffffffffffffffffff168160010160009054906101000a900473ffffffffffffffffffffffffffffffffffffffff1673ffffffffffffffffffffffffffffffffffffffff16837f61be8e36d163e49ba6fce03d9b68ca9a76ad948bcd66c79a6d49e557f2e8e2ab84600201548560030154604051610d4e9291906136a6565b60405180910390a45050565b60015481565b6000806000838152602001908152602001600020905060008160060154420390508160050154811115610dc8576040517f08c379a0000000000000000000000000000000000000000000000000000000008152600401610dbf906134ab565b60405180910390fd5b8160010160009054906101000a900473ffffffffffffffffffffffffffffffffffffffff1673ffffffffffffffffffffffffffffffffffffffff163373ffffffffffffffffffffffffffffffffffffffff1614610e5a576040517f08c379a0000000000000000000000000000000000000000000000000000000008152600401610e519061358b565b60405180910390fd5b6000612710836002015484600401540281610e7157fe5b049050808360020154013414610ebc576040517f08c379a0000000000000000000000000000000000000000000000000000000008152600401610eb39061348b565b60405180910390fd5b8260000160009054906101000a900473ffffffffffffffffffffffffffffffffffffffff1673ffffffffffffffffffffffffffffffffffffffff166108fc349081150290604051600060405180830381858888f19350505050158015610f26573d6000803e3d6000fd5b50604051602001610f3690613234565b6040516020818303038152906040528051906020012083600801604051602001610f609190613208565b60405160208183030381529060405280519060200120141561106157600260009054906101000a900473ffffffffffffffffffffffffffffffffffffffff1673ffffffffffffffffffffffffffffffffffffffff1663a9059cbb8460010160009054906101000a900473ffffffffffffffffffffffffffffffffffffffff1685600301546040518363ffffffff1660e01b815260040161100192919061337f565b602060405180830381600087803b15801561101b57600080fd5b505af115801561102f573d6000803e3d6000fd5b505050506040513d601f19601f8201168201806040525081019061105391906129d9565b61105c57600080fd5b6110d1565b8260010160009054906101000a900473ffffffffffffffffffffffffffffffffffffffff1673ffffffffffffffffffffffffffffffffffffffff166108fc84600301549081150290604051600060405180830381858888f193505050501580156110cf573d6000803e3d6000fd5b505b60018360090160026101000a81548160ff02191690831515021790555060018360090160016101000a81548160ff0219169083151502179055508260000160009054906101000a900473ffffffffffffffffffffffffffffffffffffffff1673ffffffffffffffffffffffffffffffffffffffff168360010160009054906101000a900473ffffffffffffffffffffffffffffffffffffffff1673ffffffffffffffffffffffffffffffffffffffff16857f710e531990ea39fba48230679094c845e457119cedc84798e6f0e1eb2422ac5986600201546040516111b5919061368b565b60405180910390a48260000160009054906101000a900473ffffffffffffffffffffffffffffffffffffffff1673ffffffffffffffffffffffffffffffffffffffff168360010160009054906101000a900473ffffffffffffffffffffffffffffffffffffffff1673ffffffffffffffffffffffffffffffffffffffff16857f39216c7cea6343fd0a13b91aae1cf3ed1c66d2fdc1248e508b429aa69a81039860405160405180910390a450505050565b670de0b6b3a764000086029550670de0b6b3a764000085029450600086116112c3576040517f08c379a00000000000000000000000000000000000000000000000000000000081526004016112ba9061360b565b60405180910390fd5b60008511611306576040517f08c379a00000000000000000000000000000000000000000000000000000000081526004016112fd9061352b565b60405180910390fd5b60008411611349576040517f08c379a0000000000000000000000000000000000000000000000000000000008152600401611340906134eb565b60405180910390fd5b6000831161138c576040517f08c379a00000000000000000000000000000000000000000000000000000000081526004016113839061362b565b60405180910390fd5b600260009054906101000a900473ffffffffffffffffffffffffffffffffffffffff1673ffffffffffffffffffffffffffffffffffffffff166323b872dd3330896040518463ffffffff1660e01b81526004016113eb93929190613348565b602060405180830381600087803b15801561140557600080fd5b505af1158015611419573d6000803e3d6000fd5b505050506040513d601f19601f8201168201806040525081019061143d91906129d9565b61147c576040517f08c379a0000000000000000000000000000000000000000000000000000000008152600401611473906135cb565b60405180910390fd5b6040518061018001604052803373ffffffffffffffffffffffffffffffffffffffff168152602001600073ffffffffffffffffffffffffffffffffffffffff1681526020018781526020018681526020018581526020018481526020016000815260200183815260200182815260200160001515815260200160001515815260200160001515815250600080600154815260200190815260200160002060008201518160000160006101000a81548173ffffffffffffffffffffffffffffffffffffffff021916908373ffffffffffffffffffffffffffffffffffffffff16021790555060208201518160010160006101000a81548173ffffffffffffffffffffffffffffffffffffffff021916908373ffffffffffffffffffffffffffffffffffffffff16021790555060408201518160020155606082015181600301556080820151816004015560a0820151816005015560c0820151816006015560e08201518160070190805190602001906115f592919061289c565b5061010082015181600801908051906020019061161392919061289c565b506101208201518160090160006101000a81548160ff0219169083151502179055506101408201518160090160016101000a81548160ff0219169083151502179055506101608201518160090160026101000a81548160ff0219169083151502179055509050506001547f3aaf3cfb4a0b578d6f38e521e750d0d70b9da5f05aa80dc67d0f251c954725af60405160405180910390a2600160008154809291906001019190505550505050505050565b60008060008084815260200190815260200160002090506000816006015442039050816005015481101592505050919050565b6000600154905090565b6000806000848152602001908152602001600020905060008160060154420390508160050154811115611768576040517f08c379a000000000000000000000000000000000000000000000000000000000815260040161175f906134ab565b60405180910390fd5b8160010160009054906101000a900473ffffffffffffffffffffffffffffffffffffffff1673ffffffffffffffffffffffffffffffffffffffff163373ffffffffffffffffffffffffffffffffffffffff16146117fa576040517f08c379a00000000000000000000000000000000000000000000000000000000081526004016117f19061358b565b60405180910390fd5b600061271083600201548460040154028161181157fe5b04905080836002015401841461185c576040517f08c379a00000000000000000000000000000000000000000000000000000000081526004016118539061348b565b60405180910390fd5b600260009054906101000a900473ffffffffffffffffffffffffffffffffffffffff1673ffffffffffffffffffffffffffffffffffffffff166323b872dd338560000160009054906101000a900473ffffffffffffffffffffffffffffffffffffffff16876040518463ffffffff1660e01b81526004016118df93929190613249565b602060405180830381600087803b1580156118f957600080fd5b505af115801561190d573d6000803e3d6000fd5b505050506040513d601f19601f8201168201806040525081019061193191906129d9565b611970576040517f08c379a0000000000000000000000000000000000000000000000000000000008152600401611967906135ab565b60405180910390fd5b60405160200161197f90613234565b60405160208183030381529060405280519060200120836008016040516020016119a99190613208565b604051602081830303815290604052805190602001201415611aaa57600260009054906101000a900473ffffffffffffffffffffffffffffffffffffffff1673ffffffffffffffffffffffffffffffffffffffff1663a9059cbb8460010160009054906101000a900473ffffffffffffffffffffffffffffffffffffffff1685600301546040518363ffffffff1660e01b8152600401611a4a92919061337f565b602060405180830381600087803b158015611a6457600080fd5b505af1158015611a78573d6000803e3d6000fd5b505050506040513d601f19601f82011682018060405250810190611a9c91906129d9565b611aa557600080fd5b611b1a565b8260010160009054906101000a900473ffffffffffffffffffffffffffffffffffffffff1673ffffffffffffffffffffffffffffffffffffffff166108fc84600301549081150290604051600060405180830381858888f19350505050158015611b18573d6000803e3d6000fd5b505b60018360090160026101000a81548160ff02191690831515021790555060018360090160016101000a81548160ff0219169083151502179055508260000160009054906101000a900473ffffffffffffffffffffffffffffffffffffffff1673ffffffffffffffffffffffffffffffffffffffff168360010160009054906101000a900473ffffffffffffffffffffffffffffffffffffffff1673ffffffffffffffffffffffffffffffffffffffff16867f710e531990ea39fba48230679094c845e457119cedc84798e6f0e1eb2422ac598660020154604051611bfe919061368b565b60405180910390a48260000160009054906101000a900473ffffffffffffffffffffffffffffffffffffffff1673ffffffffffffffffffffffffffffffffffffffff168360010160009054906101000a900473ffffffffffffffffffffffffffffffffffffffff1673ffffffffffffffffffffffffffffffffffffffff16867f39216c7cea6343fd0a13b91aae1cf3ed1c66d2fdc1248e508b429aa69a81039860405160405180910390a45050505050565b6000806000838152602001908152602001600020905060008160060154420390508160050154811015611d18576040517f08c379a0000000000000000000000000000000000000000000000000000000008152600401611d0f906135eb565b60405180910390fd5b8160090160029054906101000a900460ff1615611d6a576040517f08c379a0000000000000000000000000000000000000000000000000000000008152600401611d619061350b565b60405180910390fd5b604051602001611d799061321f565b6040516020818303038152906040528051906020012082600801604051602001611da39190613208565b604051602081830303815290604052805190602001201415611e33578160000160009054906101000a900473ffffffffffffffffffffffffffffffffffffffff1673ffffffffffffffffffffffffffffffffffffffff166108fc83600301549081150290604051600060405180830381858888f19350505050158015611e2d573d6000803e3d6000fd5b50611ee8565b600260009054906101000a900473ffffffffffffffffffffffffffffffffffffffff1673ffffffffffffffffffffffffffffffffffffffff1663a9059cbb3384600301546040518363ffffffff1660e01b8152600401611e9492919061337f565b602060405180830381600087803b158015611eae57600080fd5b505af1158015611ec2573d6000803e3d6000fd5b505050506040513d601f19601f82011682018060405250810190611ee691906129d9565b505b60018260090160026101000a81548160ff021916908315150217905550600073ffffffffffffffffffffffffffffffffffffffff168260010160009054906101000a900473ffffffffffffffffffffffffffffffffffffffff1673ffffffffffffffffffffffffffffffffffffffff16847f39216c7cea6343fd0a13b91aae1cf3ed1c66d2fdc1248e508b429aa69a81039860405160405180910390a4505050565b60006020528060005260406000206000915090508060000160009054906101000a900473ffffffffffffffffffffffffffffffffffffffff16908060010160009054906101000a900473ffffffffffffffffffffffffffffffffffffffff1690806002015490806003015490806004015490806005015490806006015490806007018054600181600116156101000203166002900480601f0160208091040260200160405190810160405280929190818152602001828054600181600116156101000203166002900480156120a05780601f10612075576101008083540402835291602001916120a0565b820191906000526020600020905b81548152906001019060200180831161208357829003601f168201915b505050505090806008018054600181600116156101000203166002900480601f01602080910402602001604051908101604052809291908181526020018280546001816001161561010002031660029004801561213e5780601f106121135761010080835404028352916020019161213e565b820191906000526020600020905b81548152906001019060200180831161212157829003601f168201915b5050505050908060090160009054906101000a900460ff16908060090160019054906101000a900460ff16908060090160029054906101000a900460ff1690508c565b600080600083815260200190815260200160002090508060000160009054906101000a900473ffffffffffffffffffffffffffffffffffffffff1673ffffffffffffffffffffffffffffffffffffffff163373ffffffffffffffffffffffffffffffffffffffff1614612229576040517f08c379a0000000000000000000000000000000000000000000000000000000008152600401612220906134cb565b60405180910390fd5b8060090160029054906101000a900460ff161561227b576040517f08c379a00000000000000000000000000000000000000000000000000000000081526004016122729061350b565b60405180910390fd5b8060090160009054906101000a900460ff16156122cd576040517f08c379a00000000000000000000000000000000000000000000000000000000081526004016122c49061356b565b60405180910390fd5b6040516020016122dc9061321f565b60405160208183030381529060405280519060200120816007016040516020016123069190613208565b604051602081830303815290604052805190602001201415612396578060000160009054906101000a900473ffffffffffffffffffffffffffffffffffffffff1673ffffffffffffffffffffffffffffffffffffffff166108fc82600201549081150290604051600060405180830381858888f19350505050158015612390573d6000803e3d6000fd5b5061244b565b600260009054906101000a900473ffffffffffffffffffffffffffffffffffffffff1673ffffffffffffffffffffffffffffffffffffffff1663a9059cbb3383600201546040518363ffffffff1660e01b81526004016123f792919061337f565b602060405180830381600087803b15801561241157600080fd5b505af1158015612425573d6000803e3d6000fd5b505050506040513d601f19601f8201168201806040525081019061244991906129d9565b505b60018160090160026101000a81548160ff021916908315150217905550600073ffffffffffffffffffffffffffffffffffffffff168160000160009054906101000a900473ffffffffffffffffffffffffffffffffffffffff1673ffffffffffffffffffffffffffffffffffffffff16837f39216c7cea6343fd0a13b91aae1cf3ed1c66d2fdc1248e508b429aa69a81039860405160405180910390a45050565b670de0b6b3a764000086029550670de0b6b3a76400008502945060008611612549576040517f08c379a00000000000000000000000000000000000000000000000000000000081526004016125409061360b565b60405180910390fd5b6000851161258c576040517f08c379a00000000000000000000000000000000000000000000000000000000081526004016125839061352b565b60405180910390fd5b600084116125cf576040517f08c379a00000000000000000000000000000000000000000000000000000000081526004016125c6906134eb565b60405180910390fd5b60008311612612576040517f08c379a00000000000000000000000000000000000000000000000000000000081526004016126099061362b565b60405180910390fd5b85341015612655576040517f08c379a000000000000000000000000000000000000000000000000000000000815260040161264c906135cb565b60405180910390fd5b6040518061018001604052803373ffffffffffffffffffffffffffffffffffffffff168152602001600073ffffffffffffffffffffffffffffffffffffffff1681526020018781526020018681526020018581526020018481526020016000815260200183815260200182815260200160001515815260200160001515815260200160001515815250600080600154815260200190815260200160002060008201518160000160006101000a81548173ffffffffffffffffffffffffffffffffffffffff021916908373ffffffffffffffffffffffffffffffffffffffff16021790555060208201518160010160006101000a81548173ffffffffffffffffffffffffffffffffffffffff021916908373ffffffffffffffffffffffffffffffffffffffff16021790555060408201518160020155606082015181600301556080820151816004015560a0820151816005015560c0820151816006015560e08201518160070190805190602001906127ce92919061289c565b506101008201518160080190805190602001906127ec92919061289c565b506101208201518160090160006101000a81548160ff0219169083151502179055506101408201518160090160016101000a81548160ff0219169083151502179055506101608201518160090160026101000a81548160ff0219169083151502179055509050506001547f3aaf3cfb4a0b578d6f38e521e750d0d70b9da5f05aa80dc67d0f251c954725af60405160405180910390a2600160008154809291906001019190505550505050505050565b828054600181600116156101000203166002900490600052602060002090601f0160209004810192826128d25760008555612919565b82601f106128eb57805160ff1916838001178555612919565b82800160010185558215612919579182015b828111156129185782518255916020019190600101906128fd565b5b509050612926919061292a565b5090565b5b8082111561294357600081600090555060010161292b565b5090565b600061295a61295584613700565b6136cf565b90508281526020810184848401111561297257600080fd5b61297d8482856137fc565b509392505050565b60008151905061299481613851565b92915050565b600082601f8301126129ab57600080fd5b81356129bb848260208601612947565b91505092915050565b6000813590506129d381613868565b92915050565b6000602082840312156129eb57600080fd5b60006129f984828501612985565b91505092915050565b600060208284031215612a1457600080fd5b6000612a22848285016129c4565b91505092915050565b60008060408385031215612a3e57600080fd5b6000612a4c858286016129c4565b9250506020612a5d858286016129c4565b9150509250929050565b60008060008060008060c08789031215612a8057600080fd5b6000612a8e89828a016129c4565b9650506020612a9f89828a016129c4565b9550506040612ab089828a016129c4565b9450506060612ac189828a016129c4565b935050608087013567ffffffffffffffff811115612ade57600080fd5b612aea89828a0161299a565b92505060a087013567ffffffffffffffff811115612b0757600080fd5b612b1389828a0161299a565b9150509295509295509295565b612b29816137c6565b82525050565b612b388161377e565b82525050565b612b478161376c565b82525050565b612b5681613790565b82525050565b6000612b6782613745565b612b718185613750565b9350612b8181856020860161380b565b612b8a81613840565b840191505092915050565b600081546001811660008114612bb25760018114612bd757612c1b565b607f6002830416612bc38187613761565b955060ff1983168652808601935050612c1b565b60028204612be58187613761565b9550612bf085613730565b60005b82811015612c1257815481890152600182019150602081019050612bf3565b82880195505050505b505092915050565b6000612c30603b83613750565b91507f416d6f756e742072657061696420646f6573206e6f74206d61746368206c6f6160008301527f6e20616d6f756e7420616e6420696e74657265737420726174652e00000000006020830152604082019050919050565b6000612c96600983613750565b91507f54696d65206f76657200000000000000000000000000000000000000000000006000830152602082019050919050565b6000612cd6601883613750565b91507f4f6e6c79206f776e65722063616e2077696474686472617700000000000000006000830152602082019050919050565b6000612d16602883613750565b91507f496e7465726573742072617465206d757374206265206772656174657220746860008301527f616e207a65726f2e0000000000000000000000000000000000000000000000006020830152604082019050919050565b6000612d7c601f83613750565b91507f4c6f616e207265717565737420697320616c726561647920636c6f7365642e006000830152602082019050919050565b6000612dbc602983613750565b91507f4465706f73697420616d6f756e74206d7573742062652067726561746572207460008301527f68616e207a65726f2e00000000000000000000000000000000000000000000006020830152604082019050919050565b6000612e22602483613750565b91507f426f72726f7765722063616e6e6f742074616b65207468656972206f776e206c60008301527f6f616e2e000000000000000000000000000000000000000000000000000000006020830152604082019050919050565b6000612e88601e83613750565b91507f4c6f616e207265717565737420697320616c726561647920626f72726f7700006000830152602082019050919050565b6000612ec8602183613750565b91507f4f6e6c7920626f72726f7765722063616e20726570617920746865206c6f616e60008301527f2e000000000000000000000000000000000000000000000000000000000000006020830152604082019050919050565b6000612f2e600d83613750565b91507f5472616e6665722077726f6e67000000000000000000000000000000000000006000830152602082019050919050565b6000612f6e600583613761565b91507f45746865720000000000000000000000000000000000000000000000000000006000830152600582019050919050565b6000612fae602d83613750565b91507f4465706f73697420616d6f756e74206d7573742062652073656e74207769746860008301527f2074686520726571756573742e000000000000000000000000000000000000006020830152604082019050919050565b6000613014601183613750565b91507f446f6e277420656e6f7567682074696d650000000000000000000000000000006000830152602082019050919050565b6000613054602683613750565b91507f4c6f616e20616d6f756e74206d7573742062652067726561746572207468616e60008301527f207a65726f2e00000000000000000000000000000000000000000000000000006020830152604082019050919050565b60006130ba602883613750565b91507f4c6f616e206475726174696f6e206d757374206265206772656174657220746860008301527f616e207a65726f2e0000000000000000000000000000000000000000000000006020830152604082019050919050565b6000613120602083613750565b91507f596f7520646f6e2774206861766520656e6f75676820636f6c6c61746572616c6000830152602082019050919050565b6000613160600783613761565b91507f497568436f696e000000000000000000000000000000000000000000000000006000830152600782019050919050565b60006131a0602b83613750565b91507f4465706f73697420616d6f756e7420646f6573206e6f74206d61746368206c6f60008301527f616e20726571756573742e0000000000000000000000000000000000000000006020830152604082019050919050565b613202816137bc565b82525050565b60006132148284612b95565b915081905092915050565b600061322a82612f61565b9150819050919050565b600061323f82613153565b9150819050919050565b600060608201905061325e6000830186612b20565b61326b6020830185612b20565b61327860408301846131f9565b949350505050565b600061018082019050613296600083018f612b2f565b6132a3602083018e612b2f565b6132b0604083018d6131f9565b6132bd606083018c6131f9565b6132ca608083018b6131f9565b6132d760a083018a6131f9565b6132e460c08301896131f9565b81810360e08301526132f68188612b5c565b905081810361010083015261330b8187612b5c565b905061331b610120830186612b4d565b613329610140830185612b4d565b613337610160830184612b4d565b9d9c50505050505050505050505050565b600060608201905061335d6000830186612b20565b61336a6020830185612b3e565b61337760408301846131f9565b949350505050565b60006040820190506133946000830185612b20565b6133a160208301846131f9565b9392505050565b6000610180820190506133be600083018f612b3e565b6133cb602083018e612b3e565b6133d8604083018d6131f9565b6133e5606083018c6131f9565b6133f2608083018b6131f9565b6133ff60a083018a6131f9565b61340c60c08301896131f9565b81810360e083015261341e8188612b5c565b90508181036101008301526134338187612b5c565b9050613443610120830186612b4d565b613451610140830185612b4d565b61345f610160830184612b4d565b9d9c50505050505050505050505050565b60006020820190506134856000830184612b4d565b92915050565b600060208201905081810360008301526134a481612c23565b9050919050565b600060208201905081810360008301526134c481612c89565b9050919050565b600060208201905081810360008301526134e481612cc9565b9050919050565b6000602082019050818103600083015261350481612d09565b9050919050565b6000602082019050818103600083015261352481612d6f565b9050919050565b6000602082019050818103600083015261354481612daf565b9050919050565b6000602082019050818103600083015261356481612e15565b9050919050565b6000602082019050818103600083015261358481612e7b565b9050919050565b600060208201905081810360008301526135a481612ebb565b9050919050565b600060208201905081810360008301526135c481612f21565b9050919050565b600060208201905081810360008301526135e481612fa1565b9050919050565b6000602082019050818103600083015261360481613007565b9050919050565b6000602082019050818103600083015261362481613047565b9050919050565b60006020820190508181036000830152613644816130ad565b9050919050565b6000602082019050818103600083015261366481613113565b9050919050565b6000602082019050818103600083015261368481613193565b9050919050565b60006020820190506136a060008301846131f9565b92915050565b60006040820190506136bb60008301856131f9565b6136c860208301846131f9565b9392505050565b6000604051905081810181811067ffffffffffffffff821117156136f6576136f561383e565b5b8060405250919050565b600067ffffffffffffffff82111561371b5761371a61383e565b5b601f19601f8301169050602081019050919050565b60008190508160005260206000209050919050565b600081519050919050565b600082825260208201905092915050565b600081905092915050565b60006137778261379c565b9050919050565b60006137898261379c565b9050919050565b60008115159050919050565b600073ffffffffffffffffffffffffffffffffffffffff82169050919050565b6000819050919050565b60006137d1826137d8565b9050919050565b60006137e3826137ea565b9050919050565b60006137f58261379c565b9050919050565b82818337600083830152505050565b60005b8381101561382957808201518184015260208101905061380e565b83811115613838576000848401525b50505050565bfe5b6000601f19601f8301169050919050565b61385a81613790565b811461386557600080fd5b50565b613871816137bc565b811461387c57600080fd5b5056fea26469706673582212203541a20c3cb0107b75eff0d6520f86ebf06841b549c16b90354d8ac04b68ef9164736f6c63430007060033",
  "immutableReferences": {},
  "source": "// SPDX-License-Identifier: MIT\r\npragma solidity >=0.6.0 <0.8.0;\r\npragma experimental ABIEncoderV2;\r\nimport \"./IuhCoin.sol\";\r\n\r\ncontract LoanContract {\r\n    \r\n    // Struct to represent a loan request\r\n    struct LoanRequest {\r\n        address payable owner;\r\n        address payable borrower;\r\n        uint256 amount;\r\n        uint256 deposit;\r\n        uint256 interestRate;\r\n        uint256 loanDuration;\r\n        uint256 timestamp;\r\n        string token;\r\n        string tokenCollateral;\r\n        bool borrowed;\r\n        bool returned;\r\n        bool closed;\r\n    }\r\n    \r\n    mapping(uint256 => LoanRequest) public loanRequests;\r\n    uint256 public requestIndex = 0;\r\n    iuhCoin private IuhCoin;\r\n    event LoanRequested(uint256 indexed requestId);\r\n    event LoanTaken(uint256 indexed requestId, address indexed borrower, address indexed lender, uint256 amount, uint256 deposit);\r\n    event LoanRepaid(uint256 indexed requestId, address indexed borrower, address indexed lender, uint256 amount);\r\n    event LoanClosed(uint256 indexed requestId, address indexed borrower, address indexed lender);\r\n    \r\n    constructor(iuhCoin _iuhcoin) public{\r\n        IuhCoin = _iuhcoin;\r\n    }\r\n\r\n    function createLoanRequest(\r\n        uint256 _amount, \r\n        uint256 _deposit, \r\n        uint256 _interestRate, \r\n        uint256 _loanDuration,\r\n        string memory _token,\r\n        string memory _tokenCollateral) public payable {\r\n        _amount *= 10**18;\r\n        _deposit *= 10**18;\r\n        require(_amount > 0, \"Loan amount must be greater than zero.\");\r\n        require(_deposit > 0, \"Deposit amount must be greater than zero.\");\r\n        require(_interestRate > 0, \"Interest rate must be greater than zero.\");\r\n        require(_loanDuration > 0, \"Loan duration must be greater than zero.\");\r\n        require(msg.value >= _amount, \"Deposit amount must be sent with the request.\");\r\n        loanRequests[requestIndex] = LoanRequest({\r\n            owner: payable (msg.sender),\r\n            borrower: address(0),\r\n            amount: _amount,\r\n            deposit: _deposit,\r\n            interestRate: _interestRate,\r\n            loanDuration: _loanDuration,\r\n            timestamp: 0,\r\n            token: _token,\r\n            tokenCollateral: _tokenCollateral,\r\n            borrowed:false,\r\n            returned: false,\r\n            closed: false}\r\n        );\r\n        emit LoanRequested(requestIndex);\r\n        requestIndex++;\r\n    }\r\n    function createLoanRequestByIuhCoin(\r\n        uint256 _amount, \r\n        uint256 _deposit, \r\n        uint256 _interestRate, \r\n        uint256 _loanDuration,\r\n        string memory _token,\r\n        string memory _tokenCollateral) public {\r\n        _amount *= 10**18;\r\n        _deposit *= 10**18;\r\n        require(_amount > 0, \"Loan amount must be greater than zero.\");\r\n        require(_deposit > 0, \"Deposit amount must be greater than zero.\");\r\n        require(_interestRate > 0, \"Interest rate must be greater than zero.\");\r\n        require(_loanDuration > 0, \"Loan duration must be greater than zero.\");\r\n        require(IuhCoin.transferFrom(msg.sender, address(this), _amount), \"Deposit amount must be sent with the request.\");\r\n        loanRequests[requestIndex] = LoanRequest({\r\n            owner: payable (msg.sender),\r\n            borrower: address(0),\r\n            amount: _amount,\r\n            deposit: _deposit,\r\n            interestRate: _interestRate,\r\n            loanDuration: _loanDuration,\r\n            timestamp: 0,\r\n            token: _token,\r\n            tokenCollateral: _tokenCollateral,\r\n            borrowed:false,\r\n            returned: false,\r\n            closed: false}\r\n        );\r\n        emit LoanRequested(requestIndex);\r\n        requestIndex++;\r\n    }\r\n    function takeLoanByIuhCoin(uint256 requestId, uint amount) public payable {\r\n        LoanRequest storage loan = loanRequests[requestId];\r\n        amount *= 10 **18;\r\n        require(!loan.borrowed, \"Loan request is already closed.\");\r\n        require(amount == loan.deposit, \"Deposit amount does not match loan request.\");\r\n        require(msg.sender != loan.owner, \"Borrower cannot take their own loan.\");\r\n        require(IuhCoin.transferFrom(msg.sender, address(this), amount), \"You don't have enough collateral\");\r\n        if(keccak256(abi.encodePacked(loan.token)) == keccak256(abi.encodePacked(\"IuhCoin\"))){\r\n            require(IuhCoin.transfer(msg.sender,loan.amount));\r\n        }else{\r\n            msg.sender.transfer(loan.amount);\r\n        }\r\n        loan.borrower = msg.sender;\r\n        loan.timestamp = block.timestamp;\r\n        loan.borrowed = true;\r\n        emit LoanTaken(requestId, loan.borrower, msg.sender, loan.amount, loan.deposit);\r\n    }\r\n    function takeLoanByEther(uint256 requestId) public payable {\r\n        LoanRequest storage loan = loanRequests[requestId];\r\n        require(!loan.borrowed, \"Loan request is already closed.\");\r\n        require(msg.value == loan.deposit, \"Deposit amount does not match loan request.\");\r\n        require(msg.sender != loan.owner, \"Borrower cannot take their own loan.\");\r\n        if(keccak256(abi.encodePacked(loan.token)) == keccak256(abi.encodePacked(\"IuhCoin\"))){\r\n            require(IuhCoin.transfer(msg.sender,loan.amount));\r\n        }else{\r\n            msg.sender.transfer(loan.amount);\r\n        }\r\n        loan.borrower = msg.sender;\r\n        loan.borrowed = true;\r\n        loan.timestamp = block.timestamp;\r\n        emit LoanTaken(requestId, loan.borrower, msg.sender, loan.amount, loan.deposit);\r\n        \r\n    }\r\n    function repayLoanByEther(uint256 requestId) public payable {\r\n        LoanRequest storage loan = loanRequests[requestId];\r\n        uint256 duration = block.timestamp - loan.timestamp;\r\n        require(duration <= loan.loanDuration, \"Time over\");\r\n        require(msg.sender == loan.borrower, \"Only borrower can repay the loan.\");\r\n        uint interest = (loan.interestRate * loan.amount) / 10000;\r\n        require(msg.value == loan.amount + interest, \"Amount repaid does not match loan amount and interest rate.\");\r\n        \r\n        loan.owner.transfer(msg.value);\r\n\r\n        if(keccak256(abi.encodePacked(loan.tokenCollateral)) == keccak256(abi.encodePacked(\"IuhCoin\"))){\r\n            require(IuhCoin.transfer(loan.borrower,loan.deposit));\r\n        }else{\r\n            loan.borrower.transfer(loan.deposit);\r\n        }\r\n        loan.closed = true;\r\n        loan.returned = true;\r\n        emit LoanRepaid(requestId, loan.borrower, loan.owner, loan.amount);\r\n        emit LoanClosed(requestId, loan.borrower, loan.owner);\r\n    }\r\n    function repayLoanByIuhCoin(uint256 requestId, uint amount) public payable {\r\n        LoanRequest storage loan = loanRequests[requestId];\r\n        uint256 duration = block.timestamp - loan.timestamp;\r\n        require(duration <= loan.loanDuration, \"Time over\");\r\n        require(msg.sender == loan.borrower, \"Only borrower can repay the loan.\");\r\n        uint interest = (loan.interestRate * loan.amount) / 10000;\r\n        require(amount == (loan.amount + interest), \"Amount repaid does not match loan amount and interest rate.\");\r\n        require(IuhCoin.transferFrom(msg.sender, loan.owner, amount),\"Tranfer wrong\");\r\n\r\n        if(keccak256(abi.encodePacked(loan.tokenCollateral)) == keccak256(abi.encodePacked(\"IuhCoin\"))){\r\n            require(IuhCoin.transfer(loan.borrower,loan.deposit));\r\n        }else{\r\n            loan.borrower.transfer(loan.deposit);\r\n        }\r\n        loan.closed = true;\r\n        loan.returned = true;\r\n        emit LoanRepaid(requestId, loan.borrower, loan.owner, loan.amount);\r\n        emit LoanClosed(requestId, loan.borrower, loan.owner);\r\n    }\r\n    function cancelLoan(uint256 requestId) public {\r\n        LoanRequest storage loan = loanRequests[requestId];\r\n        uint256 duration = block.timestamp - loan.timestamp;\r\n        require(duration >= loan.loanDuration, \"Don't enough time\");\r\n        require(!loan.closed, \"Loan request is already closed.\");\r\n        \r\n        if(keccak256(abi.encodePacked(loan.tokenCollateral)) == keccak256(abi.encodePacked(\"Ether\"))){\r\n            loan.owner.transfer(loan.deposit);\r\n        }else{\r\n            IuhCoin.transfer(msg.sender, loan.deposit);\r\n        }\r\n        loan.closed = true;\r\n        \r\n        emit LoanClosed(requestId, loan.borrower, address(0));\r\n    }\r\n    function widthdraw(uint256 requestId) public{\r\n        LoanRequest storage loan = loanRequests[requestId];\r\n        require(msg.sender == loan.owner,\"Only owner can widthdraw\");\r\n        require(!loan.closed, \"Loan request is already closed.\");\r\n        require(!loan.borrowed, \"Loan request is already borrow\");\r\n        if(keccak256(abi.encodePacked(loan.token)) == keccak256(abi.encodePacked(\"Ether\"))){\r\n            loan.owner.transfer(loan.amount);\r\n        }else{\r\n            IuhCoin.transfer(msg.sender, loan.amount);\r\n        }\r\n        loan.closed = true;\r\n        emit LoanClosed(requestId, loan.owner, address(0));\r\n    }\r\n\r\n    function check(uint256 requestId) public view returns (bool){\r\n        LoanRequest storage loan = loanRequests[requestId];\r\n        uint256 duration = block.timestamp - loan.timestamp;\r\n        return duration >= loan.loanDuration;\r\n    }\r\n    function getInfo(uint index) public view returns (\r\n        address owner,\r\n        address borrower,\r\n        uint256 amount,\r\n        uint256 deposit,\r\n        uint256 interestRate,\r\n        uint256 loanDuration,\r\n        uint256 timestamp,\r\n        string memory token,\r\n        string memory tokenCollateral,\r\n        bool returned,\r\n        bool borrowed,\r\n        bool closed\r\n    ){\r\n        LoanRequest storage loan = loanRequests[index];\r\n        owner = loan.owner; \r\n        borrower = loan.borrower; \r\n        amount = loan.amount;\r\n        deposit = loan.deposit;\r\n        interestRate = loan.interestRate;\r\n        loanDuration = loan.loanDuration;\r\n        timestamp = loan.timestamp;\r\n        token = loan.token; \r\n        tokenCollateral = loan.tokenCollateral;\r\n        returned = loan.returned;\r\n        borrowed = loan.borrowed;\r\n        closed = loan.closed;\r\n    }\r\n    function getResqestAmount()public view returns(uint){\r\n        return requestIndex;\r\n    }\r\n    }",
  "sourcePath": "C:\\Users\\acer\\client\\contracts\\loanContract.sol",
  "compiler": {
    "name": "solc",
    "version": "0.7.6+commit.7338295f.Emscripten.clang"
  },
  "schemaVersion": "3.4.12",
  "updatedAt": "2023-05-06T01:29:26.948Z",
  "networkType": "ethereum",
  "devdoc": {
    "kind": "dev",
    "methods": {},
    "version": 1
  },
  "userdoc": {
    "kind": "user",
    "methods": {},
    "version": 1
  }
}